:020000040800F2
:100000000050002021020008270200082B020008EF
:100010009D020008A1020008E9020008000000009B
:100020000000000000000000000000003103000894
:100030003503000800000000390300083D090008EE
:100040004D0300084D0300084D0300084D03000850
:100050004D0300084D030008810B00089D0B0008AC
:10006000B90B0008D50B0008F10B00084D03000880
:100070004D0300084D0300084D0300084D03000820
:100080004D0300084D0300084D0300084D03000810
:100090004D0300084D0300084D0300080D0C000837
:1000A0004D0300084D0300084D0300084D030008F0
:1000B0004D0300084D0300084D0300084D030008E0
:1000C0004D0300084D0300084D0300084D030008D0
:1000D0004D0300084D0300084D0300084D030008C0
:1000E000950C00084D0300084D03000800000000B7
:1000F0000000000000000000000000000000000000
:1001000000000000000000005FF808F100B583B0B7
:1001100000F0AAF9304B314A1360314A1360314B79
:10012000314A32498B4204D21168196004330432D7
:10013000F7E72A4B1A682E4B9A4200D0FEE7284B6D
:100140001A682C4B9A42F9D1234B2B4A13602B4A45
:1001500013602B4B02E000221A600433294A9342B9
:10016000F9D3254B1B6813B9244B1B6803B1FEE779
:1001700000F086F9694601A800F022F9224C234BD1
:10018000E41AA4100025AC4214DC214C214BE41AE3
:10019000A4100025AC4213DC0099019800F0C4FFC4
:1001A00005461D4C1D4BE41AA410002C0EDC2846FD
:1001B00000F0E2F8154B53F8253098470135E2E797
:1001C000144B53F8253098470135E3E7013C134BB6
:1001D00053F824309847E8E7BABADECA0000002096
:1001E0008C000020000000208043000890000020C8
:1001F000785634123254769890000020A4010020E2
:1002000090000020A801002078030008780300086F
:1002100078030008780300087803000878030008D2
:1002200008B5FFF773FF00BEFEE71EF0040F0CBF1A
:10023000EFF30880EFF309807146414A10472DE93A
:10024000F04182B004468846124B5E6B9F6B9D6AFC
:100250001B6B13F0020F03D00E4BDB6A002B0CDB81
:100260000D4800F0B5F8CDF800803B4632462946EF
:10027000204600F009F900BEFEE74BF6AB6100F046
:100280007DF90028ECD0034B4FF00042DA6202B057
:10029000BDE8F08100ED00E01442000800BEFEE77A
:1002A0001EF0040F0CBFEFF30880EFF309807146D6
:1002B000244A10472DE9F04182B004468846084B95
:1002C0005E6B9F6B9D6A074800F082F8CDF8008056
:1002D0003B4632462946204600F0D6F800BEFEE7EF
:1002E00000ED00E0244200081EF0040F0CBFEFF305
:1002F0000880EFF309807146134A10472DE9F04159
:1003000082B004468846084B5E6B9F6B9D6A074827
:1003100000F05EF8CDF800803B4632462946204684
:1003200000F0B2F800BEFEE700ED00E03042000849
:1003300000BEFEE700BEFEE700BEFEE7704700001D
:100340003F020008B5020008FD02000800BEFEE7FB
:100350008043000800000020900000208043000837
:10036000000000000000000090000020A801002014
:08037000000000000000000085
:10037800FEE7000008B503460C4A12685AB10B4A5A
:100388001068033323F003030344094A934206D851
:10039800064A136008BD054A06491160EFE701F0F7
:1003A800A9FF0C2303604FF0FF30F3E7940000200F
:1003B800004C0020A801002001230360014B0B60C2
:1003C800704700BF040000200FB400B583B004AB31
:1003D80053F8042B01938021064801F0BDFF002843
:1003E80003DD0146034800F037F803B05DF804EB7D
:1003F80004B070479C0000202DE9F04385B0044606
:100408000F4643560BB10E461EE0042528462146EA
:10041800ABBE0446384605B0BDE8F08314F9011BAD
:1004280004AA1A4402F8101C0133AB42F6D304AAFA
:100438001344002203F8102C4FF00408E946404604
:100448004946ABBE8046761B002EE3D03546102EBB
:1004580028BF10250023E8E708B5FFF7CDFF08BD42
:1004680008B500F0FDF8024A024B9A6008BD00BFCB
:100478000000000800ED00E008B500F019F908BD1B
:10048800F8B504460D4617461E462748FFF79CFF59
:1004980021682648FFF798FF61682548FFF794FF11
:1004A800A1682448FFF790FFE1682348FFF78CFF15
:1004B80021692248FFF788FF61692148FFF784FF17
:1004C800A1692048FFF780FFE1691F48FFF77CFF1B
:1004D8001E48FFF779FF29461D48FFF775FF1D4C99
:1004E800E16A1D48FFF770FF216B1C48FFF76CFF9E
:1004F800E16B1B48FFF768FF15F0800F0AD115F470
:10050800004F0CD11748FFF75FFF06991648FFF711
:100518005BFFF8BD39461548FFF756FFEFE7314650
:100528001348FFF751FFEDE7F840000808410008BD
:1005380018410008284100083841000848410008CF
:1005480058410008684100087841000888410008BF
:100558009441000800ED00E0A4410008B4410008FF
:10056800C4410008F4410008FC410008D4410008D7
:10057800E441000883691A888A4201D00020704744
:100588000268033A012A03D80233836101207047C5
:100598000020704782B00023019300932C4A13680F
:1005A80043F4803313602A4B1B6803F40033009331
:1005B800019B01330193009B1BB9019BB3F5A06F0D
:1005C800F1D1234B1B6813F4003F06D0012300939D
:1005D800009B012B04D002B0704700230093F7E77B
:1005E8001C4B1A6842F010021A601A6822F00302C3
:1005F8001A601A6842F002021A60A3F580535A681A
:100608005A605A685A605A6842F480625A605A6856
:1006180022F47C125A605A6842F4E8125A601A6846
:1006280042F080721A600A4B1B6813F0007FFAD000
:10063800074B5A6822F003025A605A6842F00202D5
:100648005A60034B5B6803F00C03082BF9D1C2E72F
:10065800001002400020024008B5FFF79BFF08BDCC
:1006680008B5104B1A6842F001021A6059680E4A20
:100678000A405A601A6822F0847222F480321A60A2
:100688001A6822F480221A605A6822F4FE025A601C
:100698004FF41F029A60FFF7DFFF044B4FF0006230
:1006A8009A6008BD001002400000FFF800ED00E06D
:1006B8001F4B5B6803F00C03042B15D0082B17D0D5
:1006C8001BB11C4B1C4A1A6002E01A4B1A4A1A60EA
:1006D800174B5B68C3F30313184AD35CDAB21549A6
:1006E8000B68D3400B607047124B134A1A60EFE750
:1006F8000F4A53685268C3F38343023312F4803FAE
:100708000AD00B4A526812F4003F0BD00C4A02FB85
:1007180003F3084A1360DBE7094A02FB03F3054ABF
:100728001360D5E7044A02FB03F3024A1360CFE7DC
:10073800001002401C00002000127A000C0000206B
:1007480000093D0008B50221084600F003F9002120
:10075800022000F0FFF81121012000F0FBF8092227
:100768000221002000F0E6FA04220321002000F014
:10077800E1FA094B40F241329A60DA6842F0080225
:10078800DA60DA6842F00402DA60DA6842F40052A9
:10079800DA6000221A6008BD00440040064B586029
:1007A800054B1B6813F0400FFAD0034A136823F077
:1007B80040031360704700BF0044004010B5044672
:1007C80002E0FFF7EBFF013420780028F9D110BDD3
:1007D80000B585B000F054FF6B46082201F066FDB5
:1007E8006846FFF7EBFF05B05DF804FB174B1A6886
:1007F80022F010021A601A681A6008229A62DA68EF
:1008080042F00102DA601A6A42F001021A629A6939
:1008180022F010029A619A6942F020029A619A695C
:1008280042F040029A619A6922F008029A611A68B5
:1008380042F080021A606422DA621A6842F0010209
:100848001A605A6942F001025A6170470004004078
:10085800014B1860704700BF340400404FF08043DC
:100868001A6822F010021A601A6842F010021A6020
:1008780008229A62DA6842F00102DA601A6A42F0E3
:1008880010021A629A6922F480529A619A6942F4B3
:1008980000529A619A6942F480429A619A6922F4F4
:1008A80000629A611A6842F080021A606422DA6271
:1008B8001A6842F001021A605A6942F001025A614C
:1008C80070470000014B1860704700BF38000040B7
:1008D800014B00221A60704710E000E0094B586095
:1008E8001A6842F001021A60064B1B6813F4803F35
:1008F800FAD0044B1A6842F001021A6000225A60CA
:100908009A60704710E000E0054B58601A6842F0A2
:1009180001021A601A6842F002021A60704700BFAA
:1009280010E000E0024B58689B68C01A704700BF8F
:1009380010E000E0014B1B68704700BF10E000E0CA
:10094800034B4FF480321A60043301221A60704757
:10095800001002401F291CD801280BD010B1022812
:1009680010D070470B480368012202FA01F11943BD
:100978000160704708480368012202FA01F119432F
:100988000160704705480368012202FA01F1194322
:1009980001607047141002401C10024018100240F9
:1009A8001F2809D93B2806D82038C0B2012303FAEA
:1009B80000F0044B18607047012303FA00F0024B63
:1009C8001860704704E100E000E100E0082802D068
:1009D800024B18787047024B18787047290100209D
:1009E8002801002010B50C460131C9B200F060FAA8
:1009F800082C0AD001281DD018BB134B02221A70EC
:100A0800124A1368013313601BE001280AD030B979
:100A18000F4B02221A700F4A1368013313600D4BF3
:100A2800186810E00A4B01221A700A4A1368013B41
:100A38001360F4E7044B01221A70044A1368013B5F
:100A48001360024B186810BD290100202401002002
:100A58002801002020010020082802D00A2804D0FC
:100A68007047044B00221A607047034B00221A603B
:100A7800F6E700BF2001002024010020C0EB001091
:100A88008300C1EB0111C1EB01110348A0FB012157
:100A9800890CB3FBF1F0704783DE1B4300000000B4
:100AA800D0B5400000F0DAFD0DA3D3E9002300F033
:100AB8003FFE00220E4B00F03BFE0BA3D3E90023C0
:100AC80000F060FF06460F460A4C206800F0D8FD8B
:100AD80032463B4600F076FC01F0C4F82060D0BDF9
:100AE8001F85EB51B81E09400000000000206C4033
:100AF80000000C401C010020014B00221A607047C6
:100B08001C010020044B9A6842F001029A601A689E
:100B180022F001021A60704700040140012911D037
:100B280049B1022915D010490B68012202FA00F0D8
:100B38001843086070470C498B68012282401343B0
:100B48008B60F0E70849CB68012282401343CB60F1
:100B5800E9E7054A91680123834019439160D16808
:100B68000B43D360DFE700BF00040140014B43F8AB
:100B7800210070472C01002008B5044B1B689847DA
:100B8800034A536943F00103536108BD2C01002057
:100B98000004014008B5044B5B689847034A536951
:100BA80043F00203536108BD2C01002000040140FA
:100BB80008B5044B9B689847034A536943F00403FC
:100BC800536108BD2C0100200004014008B5044B06
:100BD800DB689847034A536943F00803536108BD2B
:100BE8002C0100200004014008B5044B1B699847FC
:100BF800034A536943F01003536108BD2C010020D8
:100C080000040140F8B51F4B5A695F69C7F38017A4
:100C18005E69C6F3C0165D69C5F300255C69C4F357
:100C2800402412F0200F07D0174B5B699847154AEC
:100C3800536943F0200353613FB1134B9B699847B5
:100C4800104A536943F0400353613EB10E4BDB69D0
:100C580098470C4A536943F0800353613DB10A4BEE
:100C68001B6A9847074A536943F4807353613CB140
:100C7800054B5B6A9847034A536943F40073536111
:100C8800F8BD00BF000401402C0100202DE9F0410F
:100C9800264B5A695969C1F3C0285F69C7F3003701
:100CA8005E69C6F340365D69C5F380355C69C4F397
:100CB800803412F4806F07D01D4B9B6A98471B4AFB
:100CC800536943F480635361B8F1000F07D0184BA0
:100CD800DB6A9847154A536943F4006353613FB18F
:100CE800134B1B6B9847114A536943F48053536164
:100CF8003EB10F4B5B6B98470C4A536943F4005362
:100D080053613DB10A4B9B6B9847084A536943F4BA
:100D1800804353613CB1064BDB6B9847034A5369E8
:100D280043F400435361BDE8F08100BF0004014073
:100D38002C01002010B4012827D018B1022847D070
:100D480010BC7047072912D90F29F9D8A1F1080456
:100D5800E4B2314B1968A4000F20A04021EA000139
:100D68001960186802FA04F101431960E8E72B4B8F
:100D7800186889000F248C4020EA0400186018685D
:100D880002FA01F101431960DAE7072912D90F299C
:100D9800D6D8A1F10800C0B2214B196880000F24F1
:100DA800844021EA040119601C6802FA00F1214319
:100DB8001960C5E71B4B186889000F248C4020EA8E
:100DC80004001860186802FA01F101431960B7E7D6
:100DD800072912D90F29B3D8A1F10803DBB21248A9
:100DE80001689B000F249C4021EA0401016004680B
:100DF80002FA03F121430160A2E70C4B186889004D
:100E08000F248C4020EA04001860186802FA01F1E7
:100E18000143196094E700BF04080140000801403D
:100E2800040C0140000C0140041001400010014076
:100E3800012812D010B102281ED07047012A06D00E
:100E480012BB012303FA01F1134B19607047012308
:100E580003FA01F1114B19607047012A06D09AB9BB
:100E6800012303FA01F10E4B19607047012303FABD
:100E780001F10C4B19607047012A06D022B90123F1
:100E880003FA01F1084B19607047012303FA01F1D5
:100E9800064B1960704700BF140801401008014054
:100EA800140C0140100C01401410014010100140B6
:100EB80001280AD018B102280DD000207047094B2C
:100EC8001868C84000F001007047074B1868C84010
:100ED80000F001007047054B1868C84000F0010099
:100EE800704700BF08080140080C01400810014085
:100EF80030B4032813D9072808D90B280AD90F2892
:100F080022D8A0F10C03D8B2032309E00438C0B2F8
:100F1800012305E0A0F10803D8B2022300E0002372
:100F28000A4A023352F8234080000F25854024EAFC
:100F3800050442F8234052F8234001FA00F0204308
:100F480042F8230030BC70470023E9E70000014065
:100F5800054B5A6842F480725A60DA6ADA629A6813
:100F680042F002029A6070470024014038B5144CE0
:100F7800236900EB40050722AA4013432361636BF2
:100F8800013901EB8101884018436063A36843F08D
:100F98000103A3604FF47A70FFF7A0FCA36843F045
:100FA8000103A3604FF47A70FFF798FCA36843F03D
:100FB8000403A360024B9B6813F0040FFAD138BDF9
:100FC80000240140014BD86C80B2704700240140D6
:100FD80008B508210020FFF705FD014B186008BD82
:100FE8007C01002008B50A210120FFF7FBFC014B1A
:100FF800186008BD8C01002038B5174B93F90030F4
:1010080003B138BD0820FFF7E1FC144B1870144DEC
:10101800144C29682068FFF731FD134B18602068CD
:10102800FFF73EFD114B18600820FFF715FD0A2059
:10103800FFF7CCFC0E4B18700E4C29682068FFF7A0
:101048001DFD0D4B18602068FFF72AFD0B4B18603B
:101058000A20FFF701FDD4E724000020A1010020A9
:10106800740100207C01002078010020800100200C
:10107800A00100208C0100208801002090010020A0
:1010880038B5FFF79FFF1E4B188000F0E7FA1AA348
:10109800D3E9002300F04CFB00221A4B00F048FB78
:1010A80000F0E0FD0546184B1860184B1C88184BDB
:1010B8001888204400F0E0FE294600F031FF05467C
:1010C800204600F0D9FE0146284600F0DDFF114C0D
:1010D8002060114900F024FF00F0D2FA00F0E8F88F
:1010E80000220E4B00F04EFC00F0BCFD2060FFF724
:1010F8006FFB38BDAFF300808FC2F5285C8F0640C8
:101108006C0100200000303F700100202200002008
:1011180020000020840100200000C842000059403F
:1011280008B5FFF70DFC02210846FFF713FC032161
:101138000220FFF70FFC00210220FFF70BFC002123
:101148000120FFF707FC01210846FFF703FC0921EE
:101158000220FFF7FFFB0A2201210020FFF7EAFD2A
:10116800022200210846FFF7E5FD0A220621002099
:10117800FFF7E0FD022205210020FFF7DBFD042236
:1011880008210020FFF7D6FD042209210020FFF7DF
:10119800D1FD04220A210120FFF7CCFD04220B21F6
:1011A8000120FFF7C7FD002211460120FFF7C2FD0D
:1011B80000210820FFF79CFE01210A20FFF798FE76
:1011C80008213248FFF7D2FC0A213148FFF7CEFC4C
:1011D800FFF798FC00210820FFF7A0FC00210A2057
:1011E800FFF79CFCFFF7B4FE01210820FFF7BEFEC5
:1011F8001720FFF7D5FB2820FFF7D2FBFFF768FB86
:10120800FFF72CFBFFF7F2FAFFF79CFA2148FFF7EC
:101218007BFB04E0FFF786FB1F4B98422ED8002289
:1012280005211046FFF704FE002211461046FFF77D
:10123800FFFD1E20FFF746FB1E20FFF709FBFFF707
:1012480071FB164B1860A0F57420A0F510703228B9
:10125800E0D8FFF7D1FE1249124B186800F0F4FFEE
:101268000028DCD00020FFF72DFB0020FFF7F0FA64
:101278000120FFF793FAFFF73FFCD0E7FFF752FB97
:10128800094B9842CBD8FFF7FBFEC8E7D90F0008F7
:10129800ED0F0008C0C62D007F841E0074010020D9
:1012A80000008C4280010020B2841E000000000073
:1012B800C1F30A522DE9F843A2F2FF36132E0B466A
:1012C8000D460446884607461DDC002E3DDB384A9D
:1012D80042FA06F901EA0902024319D032A3D3E916
:1012E800002300F06FF80022002300F0B1FCD0B317
:1012F800002D04DA4FF4801343FA06F6B04428EAC6
:10130800090500272FE0332E06DDB6F5806F2FD0B4
:1013180019462046BDE8F8834FF0FF39A2F2134280
:1013280029FA02F919EA000FF2D01FA3D3E9002322
:1013380000F048F80022002300F08AFC98B1002D44
:1013480024DB27EA090745460DE017A3D3E9002364
:1013580000F038F80022002300F07AFC18B1002DC4
:101368000BDB00273D463C4629462046BDE8F8836E
:10137800024600F027F80446CBE725F000430D4A63
:101388001F43002F18BF15460027ECE7142E08D07E
:101398000123C6F1340603FA06F6371928BF984424
:1013A800CFE705F10108CCE79C7500883CE4377E5F
:1013B800FFFF0F000000F0BF81F0004102E000BF16
:1013C80083F0004330B54FEA41044FEA430594EAFD
:1013D800050F08BF90EA020F1FBF54EA000C55EA38
:1013E800020C7FEA645C7FEA655C00F0E2804FEA09
:1013F8005454D4EB5555B8BF6D420CDD2C4480EAEB
:10140800020281EA030382EA000083EA010180EA1A
:10141800020281EA0303362D88BF30BD11F0004F68
:101428004FEA01314FF4801C4CEA113102D040429E
:1014380061EB410113F0004F4FEA03334CEA1333D9
:1014480002D0524263EB430394EA050F00F0A780F1
:10145800A4F10104D5F1200E0DDB02FA0EFC22FAEC
:1014680005F2801841F1000103FA0EF2801843FAE0
:1014780005F359410EE0A5F120050EF1200E012AD1
:1014880003FA0EFC28BF4CF0020C43FA05F3C0180F
:1014980051EBE37101F0004507D54FF0000EDCF188
:1014A800000C7EEB00006EEB0101B1F5801F1BD331
:1014B800B1F5001F0CD349085FEA30004FEA3C0C35
:1014C80004F101044FEA445212F5800F80F09A802B
:1014D800BCF1004F08BF5FEA500C50F1000041EB2F
:1014E800045141EA050130BD5FEA4C0C404141EB33
:1014F800010111F4801FA4F10104E9D191F0000F5A
:1015080004BF01460020B1FA81F308BF2033A3F1DC
:101518000B03B3F120020CDA0C3208DD02F1140CD3
:10152800C2F10C0201FA0CF021FA02F10CE002F10E
:101538001402D8BFC2F1200C01FA02F120FA0CFC07
:10154800DCBF41EA0C019040E41AA2BF01EB045150
:10155800294330BD6FEA04041F3C1CDA0C340EDC4E
:1015680004F11404C4F1200220FA04F001FA02F391
:1015780040EA030021FA04F345EA030130BDC4F14F
:101588000C04C4F1200220FA02F001FA04F340EA44
:101598000300294630BD21FA04F0294630BD94F0F5
:1015A800000F83F4801306BF81F480110134013DDC
:1015B8004EE77FEA645C18BF7FEA655C29D094EA4D
:1015C800050F08BF90EA020F05D054EA000C04BFCB
:1015D8001946104630BD91EA030F1EBF00210020B6
:1015E80030BD5FEA545C05D14000494128BF41F055
:1015F800004130BD14F580043CBF01F5801130BDB9
:1016080001F0004545F0FE4141F470014FF0000043
:1016180030BD7FEA645C1ABF194610467FEA655CF4
:101628001CBF0B46024650EA013406BF52EA033596
:1016380091EA030F41F4002130BD00BF90F0000F84
:1016480004BF0021704730B54FF4806404F13204C0
:101658004FF000054FF0000150E700BF90F0000F79
:1016680004BF0021704730B54FF4806404F13204A0
:1016780010F0004548BF40424FF000013EE700BF70
:1016880042004FEAE2014FEA31014FEA02701FBF00
:1016980012F07F4393F07F4F81F06051704732F032
:1016A8007F4208BF704793F07F4F04BF41F4002189
:1016B800704730B54FF4607401F0004521F00041E7
:1016C8001CE700BF50EA010208BF704730B54FF071
:1016D80000050AE050EA010208BF704730B511F072
:1016E800004502D5404261EB41014FF4806404F1AA
:1016F80032045FEA915C3FF4D8AE4FF003025FEA30
:10170800DC0C18BF03325FEADC0C18BF033202EBB3
:10171800DC02C2F1200300FA03FC20FA02F001FA0D
:1017280003FE40EA0E0021FA02F11444BDE600BFB0
:1017380070B54FF0FF0C4CF4E06C1CEA11541DBF5F
:101748001CEA135594EA0C0F95EA0C0F00F0DEF82A
:101758002C4481EA030621EA4C5123EA4C5350EA0F
:10176800013518BF52EA033541F4801143F4801360
:1017780038D0A0FB02CE4FF00005E1FB02E506F0F1
:101788000042E0FB03E54FF00006E1FB03569CF046
:10179800000F18BF4EF0010EA4F1FF04B6F5007F4C
:1017A80064F5407404D25FEA4E0E6D4146EB0606BE
:1017B80042EAC62141EA55514FEAC52040EA5E5047
:1017C8004FEACE2EB4F1FD0C88BFBCF5E06F1ED8F1
:1017D800BEF1004F08BF5FEA500E50F1000041EB28
:1017E800045170BD06F0004646EA010140EA0200D5
:1017F80081EA0301B4EB5C04C2BFD4EB0C0541EAF7
:10180800045170BD41F480114FF0000E013C00F30B
:10181800AB8014F1360FDEBF002001F0004170BD2F
:10182800C4F10004203C35DA0C341BDC04F1140448
:10183800C4F1200500FA05F320FA04F001FA05F2D4
:1018480040EA020001F0004221F0004110EBD370A1
:1018580021FA04F642EB06015EEA430E08BF20EACD
:10186800D37070BDC4F10C04C4F1200500FA04F370
:1018780020FA05F001FA04F240EA020001F0004102
:1018880010EBD37041F100015EEA430E08BF20EA75
:10189800D37070BDC4F1200500FA05F24EEA020EBD
:1018A80020FA04F301FA05F243EA020321FA04F0EC
:1018B80001F0004121FA04F220EA020000EBD370A3
:1018C8005EEA430E08BF20EAD37070BD94F0000FA3
:1018D8000FD101F00046400041EB010111F4801FD7
:1018E80008BF013CF7D041EA060195F0000F18BF88
:1018F800704703F00046520043EB030313F4801FC4
:1019080008BF013DF7D043EA0603704794EA0C0F7D
:101918000CEA135518BF95EA0C0F0CD050EA410693
:1019280018BF52EA4306D1D181EA030101F0004110
:101938004FF0000070BD50EA410606BF1046194638
:1019480052EA430619D094EA0C0F02D150EA013644
:1019580013D195EA0C0F05D152EA03361CBF104685
:1019680019460AD181EA030101F0004141F0FE4124
:1019780041F470014FF0000070BD41F0FE4141F4A8
:10198800780170BD70B54FF0FF0C4CF4E06C1CEAA8
:1019980011541DBF1CEA135594EA0C0F95EA0C0F5D
:1019A80000F0A7F8A4EB050481EA030E52EA033518
:1019B8004FEA013100F088804FEA03334FF0805539
:1019C80045EA131343EA12634FEA022245EA111566
:1019D80045EA10654FEA00260EF000419D4208BF17
:1019E800964244F1FD0404F5407402D25B084FEAC4
:1019F8003202B61A65EB03055B084FEA32024FF470
:101A080080104FF4002CB6EB020E75EB030E22BFCC
:101A1800B61A754640EA0C005B084FEA3202B6EB8C
:101A2800020E75EB030E22BFB61A754640EA5C003B
:101A38005B084FEA3202B6EB020E75EB030E22BFCB
:101A4800B61A754640EA9C005B084FEA3202B6EBCC
:101A5800020E75EB030E22BFB61A754640EADC008B
:101A680055EA060E18D04FEA051545EA16754FEAED
:101A780006164FEAC30343EA52734FEAC2025FEA0B
:101A88001C1CC0D111F4801F0BD141EA00014FF09A
:101A980000004FF0004CB6E711F4801F04BF01436B
:101AA8000020B4F1FD0C88BFBCF5E06F3FF6AFAE87
:101AB800B5EB030C04BFB6EB020C5FEA500C50F117
:101AC800000041EB045170BD0EF0004E4EEA11319A
:101AD80014EB5C04C2BFD4EB0C0541EA045170BDA1
:101AE80041F480114FF0000E013C90E645EA060EE5
:101AF8008DE60CEA135594EA0C0F08BF95EA0C0F13
:101B08003FF43BAF94EA0C0F0AD150EA01347FF45A
:101B180034AF95EA0C0F7FF425AF104619462CE731
:101B280095EA0C0F06D152EA03353FF4FDAE104694
:101B3800194622E750EA410618BF52EA43067FF4E5
:101B4800C5AE50EA41047FF40DAF52EA43057FF475
:101B5800EBAE12E74FF0FF3C06E000BF4FF0010C80
:101B680002E000BF4FF0010C4DF804CD4FEA410CE4
:101B78007FEA6C5C4FEA430C18BF7FEA6C5C1BD0B1
:101B880001B050EA410C0CBF52EA430C91EA030F32
:101B980002BF90EA020F0020704710F1000F91EA8F
:101BA800030F58BF994208BF90422CBFD8176FEA5D
:101BB800E37040F0010070474FEA410C7FEA6C5C2B
:101BC80002D150EA013C07D14FEA430C7FEA6C5C32
:101BD800D6D152EA033CD3D05DF8040B704700BF5E
:101BE8008446104662468C461946634600E000BFAC
:101BF80001B5FFF7B7FF002848BF10F1000F01BD7E
:101C08004DF808EDFFF7F4FF0CBF012000205DF848
:101C180008FB00BF4DF808EDFFF7EAFF34BF0120CD
:101C280000205DF808FB00BF4DF808EDFFF7E0FF66
:101C380094BF012000205DF808FB00BF4DF808EDB7
:101C4800FFF7CEFF94BF012000205DF808FB00BF1E
:101C58004DF808EDFFF7C4FF34BF012000205DF800
:101C680008FB00BF4FEA4102B2F1E04324BFB3F5DD
:101C7800001CDCF1FE5C0DD901F0004C4FEAC002FB
:101C88004CEA5070B2F1004F40EB830008BF20F0DF
:101C98000100704711F0804F21D113F13872BCBF99
:101CA80001F00040704741F480114FEA5252C2F1EE
:101CB8001802C2F1200C10FA0CF320FA02F018BF37
:101CC80040F001004FEAC1234FEAD32303FA0CFC8A
:101CD80040EA0C0023FA02F34FEA4303CCE77FEA19
:101CE800625307D150EA01331EBF4FF0FE4040F463
:101CF8004000704701F0004040F0FE4040F4000012
:101D0800704700BF80F0004002E000BF81F0004152
:101D180042001FBF5FEA410392EA030F7FEA226C89
:101D28007FEA236C6AD04FEA1262D2EB1363C1BF19
:101D3800D218414048404140B8BF5B42192B88BF88
:101D4800704710F0004F40F4000020F07F4018BFAB
:101D5800404211F0004F41F4000121F07F4118BFCB
:101D6800494292EA030F3FD0A2F1010241FA03FC73
:101D780010EB0C00C3F1200301FA03F100F000435B
:101D880002D5494260EB4000B0F5000F13D3B0F123
:101D9800807F06D340084FEA310102F10102FE2A92
:101DA80051D2B1F1004F40EBC25008BF20F0010002
:101DB80040EA03007047490040EB000010F4000FB0
:101DC800A2F10102EDD1B0FA80FCACF1080CB2EB43
:101DD8000C0200FA0CF0AABF00EBC25052421843A2
:101DE800BCBFD0401843704792F0000F81F4000147
:101DF80006BF80F400000132013BB5E74FEA41031A
:101E08007FEA226C18BF7FEA236C21D092EA030F85
:101E180004D092F0000F08BF0846704790EA010FFF
:101E28001CBF0020704712F07F4F04D1400028BF2C
:101E380040F00040704712F100723CBF00F500000E
:101E4800704700F0004343F0FE4040F40000704744
:101E58007FEA226216BF08467FEA236301464202F0
:101E680006BF5FEA412390EA010F40F48000704703
:101E78004FF0000304E000BF10F0004348BF4042A9
:101E88005FEA000C08BF704743F0964301464FF0E5
:101E980000001CE050EA010208BF70474FF0000341
:101EA8000AE000BF50EA010208BF704711F0004382
:101EB80002D5404261EB41015FEA010C02BF844652
:101EC8000146002043F0B64308BFA3F18053A3F5B1
:101ED8000003BCFA8CF2083AA3EBC25310DB01FAF8
:101EE80002FC634400FA02FCC2F12002BCF1004F7C
:101EF80020FA02F243EB020008BF20F0010070470D
:101F080002F1200201FA02FCC2F1200250EA4C0060
:101F180021FA02F243EB020008BF20EADC707047A6
:101F28004FF0FF0C1CEAD0521EBF1CEAD15392EAB4
:101F38000C0F93EA0C0F6FD01A4480EA010C400290
:101F480018BF5FEA41211ED04FF0006343EA5010EA
:101F580043EA5111A0FB01310CF00040B1F5000F2C
:101F68003EBF490041EAD3715B0040EA010062F1DB
:101F78007F02FD2A1DD8B3F1004F40EBC25008BFC5
:101F880020F00100704790F0000F0CF0004C08BFE3
:101F980049024CEA502040EA51207F3AC2BFD2F1B0
:101FA800FF0340EAC250704740F400004FF00003BE
:101FB800013A5DDC12F1190FDCBF00F000407047F8
:101FC800C2F10002410021FA02F1C2F1200200FA36
:101FD80002FC5FEA310040F1000053EA4C0308BFFD
:101FE80020EADC70704792F0000F00F0004C02BF4E
:101FF800400010F4000F013AF9D040EA0C0093F0C9
:10200800000F01F0004C02BF490011F4000F013B22
:10201800F9D041EA0C018FE70CEAD15392EA0C0F90
:1020280018BF93EA0C0F0AD030F0004C18BF31F0FB
:10203800004CD8D180EA010000F00040704790F0D1
:10204800000F17BF90F0004F084691F0000F91F075
:10205800004F14D092EA0C0F01D142020FD193EA3B
:102068000C0F03D14B0218BF084608D180EA0100C3
:1020780000F0004040F0FE4040F40000704740F09F
:10208800FE4040F4400070474FF0FF0C1CEAD0526D
:102098001EBF1CEAD15392EA0C0F93EA0C0F69D0C9
:1020A800A2EB030280EA010C49024FEA402037D034
:1020B8004FF0805343EA111143EA10130CF000402B
:1020C8008B4238BF5B0042F17D024FF4000C8B421B
:1020D80024BF5B1A40EA0C00B3EB510F24BFA3EBFB
:1020E800510340EA5C00B3EB910F24BFA3EB9103CB
:1020F80040EA9C00B3EBD10F24BFA3EBD10340EA25
:10210800DC001B0118BF5FEA1C1CE0D1FD2A3FF66A
:1021180050AF8B4240EBC25008BF20F0010070471F
:102128000CF0004C4CEA50207F32C2BFD2F1FF03C2
:1021380040EAC250704740F400004FF00003013AF3
:1021480037E792F0000F00F0004C02BF400010F497
:10215800000F013AF9D040EA0C0093F0000F01F0AB
:10216800004C02BF490011F4000F013BF9D041EACD
:102178000C0195E70CEAD15392EA0C0F08D1420200
:102188007FF47DAF93EA0C0F7FF470AF084676E7D3
:1021980093EA0C0F04D14B023FF44CAF08466EE7AC
:1021A80030F0004C18BF31F0004CCAD130F000427A
:1021B8007FF45CAF31F000437FF43CAF5FE700BFD2
:1021C8004FF0FF3C06E000BF4FF0010C02E000BFFB
:1021D8004FF0010C4DF804CD4FEA40024FEA41039D
:1021E8007FEA226C18BF7FEA236C11D001B052EA53
:1021F800530C18BF90EA010F58BFB2EB030088BF19
:10220800C81738BF6FEAE17018BF40F00100704787
:102218007FEA226C02D15FEA402C05D17FEA236C69
:10222800E4D15FEA412CE1D05DF8040B704700BFB0
:10223800844608466146FFE70FB5FFF7C9FF002847
:1022480048BF10F1000F0FBD4DF808EDFFF7F4FF80
:102258000CBF012000205DF808FB00BF4DF808ED19
:10226800FFF7EAFF34BF012000205DF808FB00BF3C
:102278004DF808EDFFF7E0FF94BF012000205DF85E
:1022880008FB00BF4DF808EDFFF7D2FF94BF01200F
:1022980000205DF808FB00BF4DF808EDFFF7C8FF08
:1022A80034BF012000205DF808FB00BFF0B51C46D4
:1022B80085B000231546002206460F46FFF7AAFC04
:1022C800234618B12D22013D03F8012B6722002176
:1022D800CDE90053CDE90221054932463B4608685D
:1022E80000F0BEF8002814BF2046002005B0F0BD5D
:1022F80028000020014B1868704700BF2800002004
:1023080030B5141E05469BB0184605DA8B234FF0EE
:10231800FF302B601BB030BD4FF40273ADF80C30AA
:102328000CBF234604F1FF33029305934FF6FF7366
:1023380000910491ADF80E3002461E9B694628466E
:1023480000F03CFD431CBCBF8B232B60002CE1D06C
:102358000022009B1A70DDE707B5009313460A4672
:10236800014603480068FFF7CBFF03B05DF804FBA4
:1023780028000020F0B58BB00F4608A9109C0491E6
:1023880007A9039109A90291611C019102210091F9
:102398009DF84460129D01F037F842F20F73014630
:1023A8000998984204D1384600F096FF0BB0F0BD6A
:1023B8000B783B70002D42D1002C40D17B1C11F8CA
:1023C800012F0AB1002C3EDC672E43D0472E43D0A4
:1023D8001A4630271D19A91A002938DC002CA8BF75
:1023E8001B19411E002909911A46B7BF2D212B211F
:1023F800C0F101000990099802F8026BB4BF597046
:10240800597063280BDD642190FBF1F101F1300470
:10241800DA1C9C706FF0630303FB010109910A2326
:10242800099991FBF3F303F1300010706FF0090084
:1024380000FB03133033537000239370B6E72E224A
:10244800BB1C7A70BBE703F8012B013CB7E702F825
:10245800017BC0E76526C4E74526C2E70000000007
:102468002DE9F04317461D468BB08146DDE912641D
:102478000022002338462946DDF85480FFF7CAFBBE
:1024880008B105F100450022002338462946FFF728
:10249800B7FB38B1302323700023637020460BB09C
:1024A800BDE8F08352A3D3E9002338462946FFF755
:1024B800BBFB68B19DF85030013E0193CDF8088010
:1024C80000963A462B4621464846FFF753FFE5E774
:1024D800304600F06FFB3A462B46FFF7A5FB002875
:1024E800E8D10022444B29463846FFF793FB09A957
:1024F80008AA07ABCDE90321CDE9016388B303231B
:1025080000933A462B46484600F07EFF42F20F738E
:10251800079A9A4227D023462644074610F8011BFB
:10252800F21A079D49B3002D22DCB8F1000F02D141
:102538003978002949D09C4204BF302121704FF0DE
:102548002E014FF000004FF0300608BF631C1970D1
:102558000799013300290D4624DB00B10791791E44
:102568002BE00223CCE70146204600F0B5FE95E7B4
:10257800013D03F8011B0795CFE7AD1A302605E0AA
:10258800002A06DD012103F8016B013AA81800288A
:10259800F6DC0029C9D00790C7E703F8016B013AB8
:1025A8000120D7E7002A01F10101F6DC0028D6D086
:1025B8000795D4E703F8010B013A11F8010F08B1A8
:1025C800002AF7DCB8F1000F0BD100221A7065E77A
:1025D80001F8016B681A0028FADC002AA8BF9B18CA
:1025E800F3E719469D183026F4E700BFAFF30080E3
:1025F8002D431CEBE2361A3F0000F03F70B5456AE8
:1026080004460E463DB9102001F0B2FC6062C0E9F4
:1026180001550560C560656AEB6883B1636ADB686C
:1026280053F82600B8B9012101FA06F56A1D92008F
:10263800204600F0DBFA60B1C0E901650EE0212216
:102648000421204600F0D2FA636AE860DB68002BB8
:10265800E4D1002070BD026843F826200023C0E9B9
:102668000333F7E770B5446A06460D463CB91020B7
:1026780001F07EFC7062C0E901440460C4603DB1B1
:10268800736A6A68DB6853F82210296043F822509D
:1026980070BD2DE9F0411F4606460C4600230D6922
:1026A80001F1140CDCF80000013381B202FB017166
:1026B800000C0F0C02FB007089B201EB00419D4237
:1026C8004FEA10474CF8041BECDCD7B1A368AB42C7
:1026D80012DC616830460131FFF790FF80462269BD
:1026E80004F10C01023292000C3001F057FC214633
:1026F8003046FFF7B7FF444604EB850301355F61B9
:1027080025612046BDE8F081020C12040346B2B9E7
:102718000304102013F07F4F04BF1B02083013F08E
:10272800704F04BF1B01043013F0404F04BF9B00DF
:102738000230002B06DB5B0003D501307047002018
:10274800E8E7202070470368014613F007020BD022
:10275800DA0723D4980749BF5B089B0801200B6060
:102768005CBF0B600220704798B2A8B910201B0C00
:1027780013F0FF0F04BF1B0A08301A0704BF1B0918
:1027880004309A0704BF9B080230DA0702D45B08BA
:1027980006D001300B6070471046E9E7002070470B
:1027A8002020704710B50C460121FFF727FF0122B2
:1027B8004461026110BD2DE9F74F14460A69236987
:1027C80088469A42BEBF0B46A0461C46D8F81070F1
:1027D800D4F81090D8F80830D8F8041007EB090698
:1027E800B342B8BF0131FFF709FF00F114052B46CA
:1027F800002205EB860E734516D304F1140208F186
:10280800140102EB890301EB87070093009B0192F7
:1028180093420CD8002E03DD5EF8043D002B5DD0FA
:10282800066103B0BDE8F08F43F8042BE3E7B2F884
:1028380000B0BBF1000F23D08946AC464FF000082A
:1028480059F8044BDCF800A0A3B21FFA8AFA0BFB74
:1028580003A34FEA144ADCF8004043444FEA144803
:102868000BFB0A84E24604EB13449BB243EA04439D
:102878004F454FEA14484AF8043B2BD8CCF804805B
:10288800019B0432B3F802A0BAF1000F20D08946A8
:10289800A8464FF0000B2B68B9F800C0B8F8024002
:1028A8009BB20AFB0C44C4465C4443EA04434CF81C
:1028B800043B59F8043BB8F804B01B0C0AFB03B3FB
:1028C8004F4503EB14434FEA134B05D8C8F80430BF
:1028D80004359BE7D446B3E7E046DDE7013E99E7D8
:1028E8002DE9F843154612F0030206460F4607D0B5
:1028F800214C013A002354F82220FFF7CAFE07466C
:10290800AD1035D0746A3CB9102001F031FB70620B
:10291800C0E901440460C460D6F82480D8F80840AF
:102928004CB940F271213046FFF73CFF00230446C2
:10293800C8F8080003604FF00008EB070AD53946CD
:1029480022463046FFF737FF814639463046FFF7C3
:1029580089FE4F466D100BD0206838B922462146B3
:102968003046FFF728FF2060C0F800800446E4E7FF
:102978003846BDE8F88300BF304300082DE9F0472A
:102988000C460746164623694FEA621A0AEB030902
:102998004968A36809F10105AB4232DB3846FFF705
:1029A8002DFE002380461A4600F1140153452BDB07
:1029B80020692AEAEA7A04F1140316F01F0201EBEF
:1029C8008A0103EB800C25D00020C2F1200E8A4634
:1029D8001E68964030434AF8040B53F8040B9C4594
:1029E80020FA0EF014D8486008B109F10205013D3B
:1029F8003846C8F810502146FFF734FE4046BDE877
:102A0800F08701315B00C7E741F823200133CDE7A8
:102A18005146DCE7043953F8042B9C4541F8042F50
:102A2800F9D8E4E703690A6930B59B1A0CD192001A
:102A3800143014318418114454F8045D51F8042DED
:102A4800954203D005D30123184630BDA042F3D3E5
:102A5800FAE74FF0FF33F7E72DE9F0470D46074651
:102A6800114628461446FFF7DDFF061E08D13146F9
:102A78003846FFF7C3FD0123C0E90436BDE8F087F7
:102A8800A4BF23462C4638466168A6BF1D460026CB
:102A98000126FFF7B3FD4FF0000EC6602B692669CB
:102AA80004F1140205F1140902EB860709EB830807
:102AB80000F1140152F804AB59F8045B1FFA8AF3C9
:102AC8007344ACB21B1B2C0CC4EB1A4404EB234418
:102AD8009BB24FEA244EC84543EA0444944641F861
:102AE800044BE7D8BC4504D351F8043D83B10661D3
:102AF800C4E75CF8044BA2B27244131403EB14430A
:102B080092B242EA03424FEA234E41F8042BE9E726
:102B1800013EE9E72DE9F3411C46DDE9086501219D
:102B28009046FFF76BFDC4F31302C4F30A5407463B
:102B380034BB0192B8F1000227D002A840F8082D52
:102B4800FFF701FE0099F0B1019AC0F1200302FAE3
:102B580003F30B43C2407B610192019B002B14BF1E
:102B680002210121BB613961C4B1A4F23344044498
:102B78003460C0F135002860384602B0BDE8F08105
:102B880042F48012D5E77961E7E701A8FFF7DBFD9A
:102B98000121019B39617B612030E5E7A0F23240D9
:102BA80007EB810330601869FFF7AEFDC0EB4110F9
:102BB800E1E700001728D0B5044605DC084B03EB15
:102BC800C004D4E90001D0BD002000260549064F05
:102BD80032463B46FEF7ACFD013CF9D1F3E700BFB6
:102BE800684200080000F03F0000244038B502FBAE
:102BF80001F4214600F008F8054618B122460021E4
:102C080001F0F0F9284638BD70B5CD1C25F0030554
:102C180008350C2D38BF0C25002D064601DBA942CE
:102C280003D90C233360002070BD01F0E3F9214A79
:102C38001468214691B9204C23681BB9304600F02E
:102C48003BFB20602946304600F036FB431C24D16C
:102C58000C233046336001F0CEF9E4E70B685B1BC8
:102C680018D40B2B0FD90B60CC18CD50304601F07F
:102C7800C2F904F10B00231D20F00700C31AD3D0BA
:102C88005A42E250D0E74B688C4216BF636013602B
:102C98000C46EBE70C464968CCE7C41C24F0030457
:102CA800A04205D0211A304600F006FB0130CFD0F3
:102CB8002560DBE79401002098010020F8B507465D
:102CC80014460E4621B9BDE8F8401146FFF79CBFEF
:102CD80022B901F091F925462846F8BD01F0D8F946
:102CE800A0420FD221463846FFF78EFF054600283E
:102CF800F2D03146224601F051F93146384601F00A
:102D08007BF9E9E73546E7E72DE9F0478E68824623
:102D18009E420C469046994637D88A8912F4906F9D
:102D280031D00223256809696F1A656905EB4505E5
:102D380095FBF3F509F101033B449D4238BF1D465D
:102D4800530530D52946FFF75FFF064650B90C23D7
:102D58004FF0FF30CAF80030A38943F04003A38145
:102D6800BDE8F0873A46216901F018F9A38923F4F0
:102D7800906343F08003A38126613E4426604E465B
:102D88006561ED1BA5604E4500D94E463246414669
:102D9800206801F00EF9A36800209B1BA36023683C
:102DA8001E442660DCE72A46FFF788FF064600280F
:102DB800E2D12169504601F01FF9C8E72DE9F04F2B
:102DC8009DB003938B8980461D060C4616460FD589
:102DD8000B696BB94021FFF717FF2060206128B904
:102DE8000C23C8F800304FF0FF30C7E04023636180
:102DF8000023099320238DF8293030234FF0010B4D
:102E08008DF82A3037463D4615F8013B0BB1252B86
:102E18003ED1B7EB060A0BD0534632462146404610
:102E2800FFF772FF013000F0A480099B5344099317
:102E38003B78002B00F09D8000234FF0FF32CDE956
:102E48000523049307938DF853301A932F460522D0
:102E580017F8011B4F4801F093F8049BD0B9D90625
:102E680044BF20228DF853201A0744BF2B228DF827
:102E780053202A782A2A15D02F4600200A25079A97
:102E8800394611F8013B303B092B4DD9B8B10FE059
:102E98002F46B8E73F4A3D46801A0BFA00F0184320
:102EA8000490D3E7039A111D12680391002A01DBED
:102EB800079204E0524243F00203079204933B78DE
:102EC8002E2B0CD17B782A2B33D1039B02371A1D6A
:102ED8001B680392002BB8BF4FF0FF3305932E4DAC
:102EE80003223978284601F04BF838B14023401BBB
:102EF80003FA00F0049B0137034304933978062250
:102F080026487E1C8DF8281001F03AF8002838D0A1
:102F1800234B13BB039B073323F0070308330393A7
:102F2800099B4B4409936DE705FB023201200F46CC
:102F3800A6E700230A25194601370593384610F8F5
:102F4800012B303A092A03D9002BC8D00591C6E7CE
:102F580005FB012101230746F0E703AB0093224656
:102F6800104B04A94046AFF30080B0F1FF3F814603
:102F7800D6D1A3895B063FF536AF09981DB0BDE8E9
:102F8800F08F03AB00932246064B04A9404600F09D
:102F980081F8EAE73C43000842430008464300083A
:102FA80000000000112D00082DE9F04791461F464A
:102FB8008A680B6906469342B8BF1346C9F80030C1
:102FC80091F843200C46DDF8208012B10133C9F88E
:102FD80000302368990642BFD9F800300233C9F897
:102FE8000030256815F0060507D104F1190AE368D1
:102FF800D9F800209B1AAB4229DC94F843302268A8
:10300800003318BF012392062ED404F14302394637
:103018003046C047013021D02368E56803F0060335
:10302800042B18BF0025D9F800204FF0000908BF6D
:10303800AD1AA368226908BF25EAE5759342C4BFA3
:103048009B1AED181A344D451AD1002008E00123C7
:10305800524639463046C047013003D14FF0FF3061
:10306800BDE8F0870135C2E73020E11881F8430058
:103078005A1C94F845102244023382F84310C4E7DE
:103088000123224639463046C0470130E6D009F1CF
:103098000109D8E72DE9F04301F1430C0C46097EFC
:1030A80085B06E291746064698460C9A00F0B380FC
:1030B80022D8632936D00AD8002900F0B9805829C7
:1030C80000F0838004F1420584F8421032E064295C
:1030D80001D06929F6D120681368050603F10401B7
:1030E8002AD51B681160002B03DA2D225B4284F875
:1030F80043206F480A2239E0732900F09D8008D8E0
:103108006F2920D07029DDD1236843F02003236084
:1031180003E0752917D07829D4D17823654884F835
:10312800453055E0136804F14205191D1B6811600C
:1031380084F8423001238CE01B6810F0400F1160C6
:1031480018BF1BB2CFE713682568181D1060280642
:1031580001D51B6802E06806FBD51B886F2914BFE0
:103168000A2208225248002184F843106568002D7D
:10317800A560C0F29580216821F004012160002B30
:103188003DD1002D40F08E806546082A0BD123687A
:10319800DB0708D5236962689A42DEBF302305F849
:1031A800013C05F1FF35ACEB05032361CDF8008048
:1031B8003B4603AA21463046FFF7F6FE01304DD1C3
:1031C8004FF0FF3005B0BDE8F083394884F845106A
:1031D800136821681D1D1B6815600A060BD5CA07F0
:1031E80044BF41F0200121601BB9226822F020026F
:1031F80022601022B7E74D0648BF9BB2EFE765464D
:10320800B3FBF2F102FB1133C35C05F8013D0B4639
:103218000029F5D1B9E713682568181D61691060A0
:1032280028061B6801D5196002E06A06FBD51980DB
:10323800002365462361B9E71368191D11601D68ED
:1032480062680021284600F09BFE08B1401B6060C0
:1032580063682361002384F84330A7E723692A467B
:1032680039463046C0470130AAD023689B0713D49B
:10327800E068039B9842B8BF1846A3E701234A4673
:1032880039463046C04701309AD00135E368039A81
:103298009B1AAB42F2DCEBE7002504F11909F5E7CC
:1032A800002BACD1037804F1420584F842306CE776
:1032B8004D4300085E43000838B50023054C054619
:1032C80008462360FDF756F8431C02D1236803B172
:1032D8002B6038BD9C010020034611F8012B03F830
:1032E800012B002AF9D170472DE9F74F03690C69C2
:1032F8008046A342C0F28480013C01F1140700F12A
:10330800140657F8245056F824000135B0FBF5F59B
:103318004FEA840C06EB0C0307EB0C0901939DB3F1
:103328004FF0000A3846B646D34650F8042B93B2FD
:1033380005FB03A3120C4FEA134A05FB02A29BB23A
:10334800ABEB0303DEF800B04FEA124A1FFA8BFB1F
:103358005B441FFA82FBDEF800208145CBEB12426A
:1033680002EB23429BB243EA02434FEA224B4EF858
:10337800043BDAD256F80C3033B9019B043B9E4229
:103388001A4631D3C8F810404046FFF74BFB0028D7
:1033980026DB30464FF0000C013557F8041BD0F8F7
:1033A80000E08BB2ACEB03031FFA8EF213440A0C55
:1033B800C2EB1E4202EB23429BB243EA0243B945E9
:1033C8004FEA224C40F8043BE7D256F8242006EB9B
:1033D80084032AB9043B9E421A460BD3C8F810400E
:1033E800284603B0BDE8F08F1268043B002AC9D113
:1033F800013CC4E71268043B002AEFD1013CEAE72C
:103408000020EEE7000000002DE9F04F16461F46A9
:10341800456A95B00446DDF88480CDE902673DB978
:10342800102000F0A5FD6062C0E901550560C56087
:10343800636A196851B15A68012393404A608B60E6
:103448002046FFF70FF90022636A1A603B1EAFBFE0
:103458000023012223F000430393ACBFC8F80030D7
:10346800C8F80020AE4BDDF80C8033EA08031BD106
:1034780042F20F73209A1360029B23B9C8F313001A
:10348800002800F04585229B53B9A64B21E0A64BA6
:1034980006930833229A1360069815B0BDE8F08F9A
:1034A800A04B06930333F5E7DDE90267002200230A
:1034B80030463946FEF7A4FB824660B10123209AC4
:1034C8001360229B002B00F02085984B229A1360F2
:1034D800013B0693E0E712AB019313AB009332462E
:1034E8003B462046FFF716FBC8F30A558346002DD6
:1034F8007DD0B046C7F3130343F07F5949F4401910
:10350800A5F2FF35CDF840A00022894B4046494638
:10351800FDF756FF7CA3D3E90023FEF709F97CA346
:10352800D3E90023FDF74EFF064628460F46FEF76F
:1035380095F879A3D3E90023FEF7FAF802460B467B
:1035480030463946FDF73EFF06460F4600F0A8FD17
:1035580000228246002330463946FEF75BFB48B11D
:103568005046FEF77BF832463B46FEF749FB08B962
:103578000AF1FF3ABAF1160F5AD8DDE902236D496C
:1035880001EBCA01D1E90001FEF762FB002851D026
:1035980000230AF1FF3A0D93129B5D1B6B1E0793E4
:1035A80043BF0023C5F1010907934FF00009BAF1A1
:1035B800000F41DB079BCDF830A05344079300234D
:1035C80008931E9B092B00F28F80052BC4BF043B78
:1035D8001E931E9BC8BF0025A3F10203D8BF012577
:1035E800032B00F28D80DFE803F07B7D2F6FDDE990
:1035F80012531D4405F23240202813DDC0F140006B
:10360800029B08FA00F805F2124023FA00F048EA93
:103618000000FEF713F801238046A1F1F879013D77
:10362800109371E7029BC0F1200003FA00F0F0E765
:103638000123B0E70D90AFE7CAF100030893002318
:10364800A9EB0A090C93BCE7012309931F9B002BE4
:1036580074DD984604930022666A7260042202F1BF
:103668001400984271686ED92046FEF7C7FF636A56
:1036780030601B68B8F10E0F069300F2ED80002D44
:1036880000F0EA80DDE90223BAF1000FCDE90E234C
:1036980077DD284A0AF00F034FEA2A1602EBC30324
:1036A800F006D3E90023CDE90A2368D5DDE90E0148
:1036B800214B0325D3E90823FEF764F9CDE902017C
:1036C80006F00F061C4F4FE0012309931F9B53443C
:1036D80003F1010804934346012BB8BF0123BAE75D
:1036E8000023B2E70023F0E70125002309951E9384
:1036F8004FF0FF3300220493984612231F92AAE743
:1037080001230993F4E700BF61436F63A787D23FA2
:10371800B3C8608B288AC63FFB799F501344D33FB8
:103728000000F07F784300086F4300087D430008DD
:103738000000F83F68420008404200080123049353
:1037480098461A46DAE701317160520087E7F107B7
:1037580008D5DDE90A01D7E90023FDF7E9FFCDE93E
:103768000A01013576100837002EF0D1DDE90A2369
:10377800DDE90201FEF706F9CDE902011BE00225A9
:10378800A0E700F0A480DDE90E01CAF10006A04B15
:1037980006F00F0203EBC203D3E90023FDF7C8FFCD
:1037A80002250023CDE902019A4F3611002E40F080
:1037B8008380002BE0D10D9B002B00F08A80DDE98F
:1037C8000223CDE90A23DDE90A010022924BFEF724
:1037D80021FA00287DD0B8F1000F7AD0049B002B85
:1037E80036DDDDE90A0100228C4BFDF7A1FFCDE9AA
:1037F8000201049E0AF1FF3701352846FDF72EFF26
:10380800DDE90223FDF794FF0022854BFDF7DAFD81
:10381800A1F15075CDE90A010B95002E5CD1DDE9C7
:10382800020100227F4BFDF7CBFD0A9A2B46CDE91A
:103838000201FEF70DFA002840F08182DDE902015D
:103848000A9A05F10043FEF7E5F9002840F0758271
:10385800DDE90E23CDE90223139B002BC0F24B8137
:10386800BAF10E0F00F34781694B03EBCA03D3E9A2
:103878000023CDE904231F9B002B80F2D780B8F1E9
:10388800000F00F3D38040F05782DDE904010022E5
:10389800644BFDF74DFFDDE90223FEF7CFF94646FD
:1038A8004746002840F02D82069B069A5D1C31236E
:1038B8000AF1010A137028E2F20705D5D7E90023B7
:1038C800FDF736FF01230135761008376EE702252C
:1038D80071E75746464690E74D4B03EBC60353E95D
:1038E8000201099B002B48D002460B4600204E4996
:1038F800FEF748F8DDE90A23FDF762FDCDE90A0184
:10390800069DDDE9020100F0CBFB1190FDF7A6FE54
:1039180002460B46DDE90201FDF752FD119BCDE998
:103928000201303305F8013BDDE90A23FEF772F99D
:10393800002863D1DDE9022300203749FDF740FD67
:10394800DDE90A23FEF766F9002840F0B580069BFA
:10395800EB1A9E427FF77CAFDDE90A0100222F4B6C
:10396800FDF7E6FE0022CDE90A01DDE902012B4B55
:10397800FDF7DEFECDE90201C3E7DDE90A23FDF725
:10398800D7FE069BCDE90A019D191E46DDE9020115
:1039980000F086FB1190FDF761FE02460B46DDE95B
:1039A8000201FDF70DFD119BCDE90201303306F848
:1039B800013BAE424FF0000224D1DDE90A011A4B67
:1039C800FDF700FD02460B46DDE90201FEF740F96E
:1039D800002871D1DDE90A2300201349FDF7F0FC26
:1039E80002460B46DDE90201FEF714F900283FF410
:1039F8002FAF15F8013C6A1E302B01D0BA464AE0B9
:103A08001546F6E7054BFDF793FECDE90201BDE744
:103A180068420008404200080000F03F00002440CF
:103A280000001C40000014400000E03F069DDDE956
:103A38000267DDE9042330463946FDF7A3FF00F0AD
:103A48002FFB8146FDF70AFEDDE90423FDF770FE32
:103A580002460B4630463946FDF7B2FC09F13006FE
:103A680005F8016B069E0246AE1BB0450B4635D1E4
:103A7800FDF7A8FCDDE9042306460F46FEF7E8F843
:103A8800C8B9DDE9042330463946FEF7B9F810B164
:103A980019F0010F0FD159462046FEF7E3FD002328
:103AA800209A2B700AF101031360229B002B3FF42C
:103AB800F3AC1D60F0E4574615F8012C6B1E392A4B
:103AC80006D1069A9A4207D130231370134601375C
:103AD8001A7801321A7091E71D46EDE70022994BDA
:103AE800FDF726FE0022002306460F46FEF788F85B
:103AF80000289ED0CFE7099A002A00F088801E9AF5
:103B0800012A6DDC109A002A66D003F233434D4631
:103B1800089E079A01211A44204699440792FEF705
:103B280041FE0746002D0BDD079B002B08DDAB424D
:103B3800A8BF2B46079AA9EB0309ED1AD31A0793D6
:103B4800089BEBB1099B002B65D08EB139463246F4
:103B58002046FEF7C5FE5A46014607462046FEF7B0
:103B68002AFE59460A902046FEF77CFD0A9B9B4692
:103B7800089B9A1B04D059462046FEF7B1FE83469F
:103B880001212046FEF70EFE0C9B0646002B00F096
:103B9800C6811A4601462046FEF7A2FE1E9B06462F
:103BA800012B3EDC029B002B37D1039BC3F313038D
:103BB800002B34D1039B23F000431B0D1B052BB1B5
:103BC800079B09F1010901330793012308930C9B13
:103BD800002B28D101202EE0129BC3F1360396E773
:103BE800089B08F1FF36B342B7BF089B9E1BF21A29
:103BF8000C9BBFBF08969B180C930026B8F1000FCA
:103C0800B9BFA9EB080500234D46434681E7089E46
:103C18004D46099F86E7089AADE70023D6E7029B41
:103C2800D4E700230893336906EB83031869FEF78A
:103C38006BFDC0F12000079B184410F01F0047D00F
:103C4800C0F12003042B3BDD079BC0F11C0081441D
:103C5800054403440793B9F1000F05DD59464A4668
:103C68002046FEF78BFE8346079B002B05DD314679
:103C78001A462046FEF782FE06460D9B53B3314690
:103C88005846FEF7CFFE002824DA002359460A22B8
:103C98002046FEF7FEFC099B0AF1FF3A8346002BFB
:103CA80000F04481002339460A222046FEF7F1FC41
:103CB800049B0746002B4DDC1E9B022B4ADD11E0BE
:103CC800C9D0079A1C331A4499441D441346C1E7C6
:103CD8000346F6E7B8F1000F36DC1E9B022B33DDF6
:103CE800CDF81080049B63B9314605222046FEF7C3
:103CF800D0FC014606465846FEF794FE00283FF7DA
:103D0800D3AD1F9B069D6FEA030A4FF000093146A9
:103D18002046FEF7A7FC002F3FF4BDAEB9F1000F17
:103D280005D0B94503D049462046FEF79BFC3946E5
:103D38002046FEF797FCAEE600263746E1E7BA468E
:103D48003746B1E500002440099BCDF81080002BD0
:103D580000F0F380002D05DD39462A462046FEF79F
:103D68000DFE0746089B002B4CD079682046FEF7CD
:103D780045FC05463A6907F10C01023292000C3005
:103D880000F00CF9012229462046FEF7F7FDB94656
:103D98000746069B0793029B03F0010308933146ED
:103DA8005846FFF7A1FA4946054600F1300858463B
:103DB800FEF738FE3A46029031462046FEF74CFEA2
:103DC800C368024603BB014609905846FEF72AFE1F
:103DD8000346099A114620460993FEF743FC099BBE
:103DE800A3B91E9A92B9089A82B9B8F1390F29D0A5
:103DF800029B002B01DD05F13108079B5D1C83F850
:103E0800008084E73846C2E70123E3E7029A002AE4
:103E180004DB23D11E9A0ABB089AFAB9002BECDD01
:103E2800594601222046FEF7A9FD31468346FEF792
:103E3800F9FD002803DCE0D118F0010FDDD0B8F15E
:103E4800390FD8D1079B079A5D1C3923137015F8D1
:103E5800013C6A1E392B4DD0013352E0079A002BE2
:103E680002F1010506DDB8F1390FEBD008F10108C0
:103E7800079BC4E7069B049AEB1A934205F8018C4A
:103E880021D0594600230A222046FEF702FCB945F4
:103E980083464FF000034FF00A024946204605D1F9
:103EA800FEF7F7FB81460746079578E7FEF7F1FB33
:103EB8003946814600230A222046FEF7EAFB0746D8
:103EC800F2E74FF00009594601222046FEF756FD59
:103ED80031468346FEF7A6FD0028B8DC02D118F06B
:103EE800010FB4D115F8013C6A1E302B7FF40FAFD7
:103EF8001546F7E7069B934205D13123069A0AF146
:103F0800010A137003E71546A1E7174BFFF7E1BA5B
:103F1800229B002B7FF4BBAA144BFFF7DABA1E9B37
:103F2800012B7FF73FAE0C9B089353E6049B002BB5
:103F380003DC1E9B022B3FF7D5AE069D3146584643
:103F4800FFF7D2F9069B00F1300805F8018B049AB7
:103F5800EB1A9A42B5DD594600230A222046FEF79D
:103F680098FB8346EAE700BF7C4300086F430008DC
:103F7800024B01461868FEF747BE00BF2800002024
:103F880010B5C9B202449042034601D1002303E0B0
:103F98001C7801308C42F6D1184610BD10B5431E6E
:103FA8000A44914200D110BD11F8014B03F8014FAA
:103FB800F7E7884210B501EB020307D8421E994281
:103FC8000AD011F8014B02F8014FF8E78342F5D9FE
:103FD8008118D21AD34200D110BD13F8014D01F84F
:103FE800014DF7E703460244934200D1704703F8B6
:103FF800011BF9E77047704738B50546002943D0DB
:1040080051F8043C0C1F002BB8BFE418FFF7F2FF6F
:104018001E4A1368104633B9636014602846BDE829
:104028003840FFF7E8BFA3420BD9216862189342D2
:1040380001BF1A685B685218226063600460EDE78C
:1040480013465A680AB1A242FAD919685818A04208
:104058000BD120680144581882421960DED11068DB
:104068005268014419605A60D8E702D90C232B60C2
:10407800D4E7206821188A4201BF116852680918DC
:10408800216062605C60C9E738BD00BF9401002010
:1040980051F8043C181F002BBCBF0B58C0187047C0
:1040A8004FEA410212F5001215D211D56FF4787358
:1040B800B3EB625212D94FEAC12343F0004343EAFB
:1040C800505311F0004F23FA02F018BF40427047D6
:1040D8004FF00000704750EA013005D111F0004060
:1040E80008BF6FF0004070474FF00000704700BFF6
:1040F800537461636B206672616D653A0A00000053
:10410800205230203D2020253038580A0000000079
:10411800205231203D2020253038580A0000000068
:10412800205232203D2020253038580A0000000057
:10413800205233203D2020253038580A0000000046
:1041480020523132203D20253038580A0000000026
:10415800204C52203D2020253038580A000000000D
:10416800205043203D2020253038580A0000000008
:1041780020505352203D20253038580A00000000B6
:104188004653522F4641523A0A00000020434653F4
:1041980052203D2020253038580A00002048465338
:1041A80052203D2020253038580A0000204446532C
:1041B80052203D2020253038580A0000204146531F
:1041C80052203D2020253038580A0000204D4D4609
:1041D8004152203D20253038580A000020424641EF
:1041E80052203D2020253038580A00004D6973635D
:1041F8000A000000204C522F4558435F5245545541
:10420800524E3D20253038580A0000005B48617244
:10421800644661756C745D0A000000005B4275734A
:104228004661756C745D0A005B557361676546612C
:10423800756C745D0A0000000080E03779C3414363
:10424800176E05B5B5B89346F5F93FE9034F384DF4
:10425800321D30F94877825A3CBF737FDD4F1575A0
:10426800000000000000F03F0000000000002440B3
:1042780000000000000059400000000000408F408E
:10428800000000000088C34000000000006AF840F9
:104298000000000080842E4100000000D01263411D
:1042A8000000000084D797410000000065CDCD4193
:1042B800000000205FA00242000000E87648374274
:1042C800000000A2941A6D42000040E59C30A24212
:1042D8000000901EC4BCD64200003426F56B0C4387
:1042E8000080E03779C3414300A0D885573476432E
:1042F80000C84E676DC1AB43003D9160E458E1438F
:10430800408CB5781DAF154450EFE2D6E41A4B4403
:1043180092D54D06CFF08044F64AE1C7022DB54448
:10432800B49DD9794378EA440500000019000000DB
:104338007D000000232D302B2000686C4C00656642
:1043480067454647003031323334353637383941DE
:1043580042434445460030313233343536373839F4
:1043680061626364656600496E66696E69747900A6
:064378004E614E00300012
:104380007856341298000020000000000000000061
:1043900000000000010203040607080900A24A0405
:1043A00030754C1D01FFFFFF2C00002000000000B5
:1043B00000000000000000000000000000000000FD
:1043C00000000000000000000000000000000000ED
:1043D00000000000000000000000000000000000DD
:1043E00000000000000000000000000000000000CD
:1043F00000000000000000000000000000000000BD
:104400000000000000000000000000003254769818
:040000050800010DE1
:00000001FF
