:020000040800F2
:1000000000500020851E0008D51E0008D51E0008DF
:10001000D51E0008D51E0008D51E000800000000EF
:10002000000000000000000000000000D51E0008D5
:10003000D51E000800000000D51E0008E5140008C9
:10004000D51E0008D51E0008D51E0008D51E0008C4
:10005000D51E0008D51E000815100008391000082C
:100060005D10000881100008A5100008D51E0008CA
:10007000D51E0008D51E0008D51E0008D51E000894
:10008000D51E0008D51E0008D51E0008D51E000884
:10009000D51E0008D51E0008D51E0008C91000088E
:1000A000D51E0008D51E0008D51E0008D51E000864
:1000B000D51E0008D51E0008D51E0008D51E000854
:1000C000D51E0008D51E0008D51E0008D51E000844
:1000D000D51E0008D51E0008D51E0008D51E000834
:1000E0009D110008D51E000800000000D51E000864
:1000F000D51E0008D51E0008D51E0008D51E000814
:10010000D51E0008D51E0008D51E0008D51E000803
:10011000D51E0008D51E0008D51E0008D51E0008F3
:10012000D51E0008D51E0008D51E0008D51E0008E3
:1001300010B5054C237833B9044B13B10448AFF321
:1001400000800123237010BD640000200000000027
:10015000F42C000808B5034B1BB103490348AFF367
:10016000008008BD0000000068000020F42C00089A
:1001700081F0004102E000BF83F0004330B54FEA58
:1001800041044FEA430594EA050F08BF90EA020FC5
:100190001FBF54EA000C55EA020C7FEA645C7FEA58
:1001A000655C00F0E2804FEA5454D4EB5555B8BF7B
:1001B0006D420CDD2C4480EA020281EA030382EAEC
:1001C000000083EA010180EA020281EA0303362D7E
:1001D00088BF30BD11F0004F4FEA01314FF4801C51
:1001E0004CEA113102D0404261EB410113F0004F63
:1001F0004FEA03334CEA133302D0524263EB43031A
:1002000094EA050F00F0A780A4F10104D5F1200EB7
:100210000DDB02FA0EFC22FA05F2801841F1000112
:1002200003FA0EF2801843FA05F359410EE0A5F1E6
:1002300020050EF1200E012A03FA0EFC28BF4CF017
:10024000020C43FA05F3C01851EBE37101F00045CD
:1002500007D54FF0000EDCF1000C7EEB00006EEBDA
:100260000101B1F5801F1BD3B1F5001F0CD3490864
:100270005FEA30004FEA3C0C04F101044FEA4452BB
:1002800012F5800F80F09A80BCF1004F08BF5FEA42
:10029000500C50F1000041EB045141EA050130BD22
:1002A0005FEA4C0C404141EB0101013C28BFB1F534
:1002B000801FE9D291F0000F04BF01460020B1FA7F
:1002C00081F308BF2033A3F10B03B3F120020CDA52
:1002D0000C3208DD02F1140CC2F10C0201FA0CF030
:1002E00021FA02F10CE002F11402D8BFC2F1200C95
:1002F00001FA02F120FA0CFCDCBF41EA0C0190404B
:10030000E41AA2BF01EB0451294330BD6FEA040493
:100310001F3C1CDA0C340EDC04F11404C4F120027E
:1003200020FA04F001FA02F340EA030021FA04F390
:1003300045EA030130BDC4F10C04C4F1200220FAE7
:1003400002F001FA04F340EA0300294630BD21FA25
:1003500004F0294630BD94F0000F83F4801306BFEB
:1003600081F480110134013D4EE77FEA645C18BFDF
:100370007FEA655C29D094EA050F08BF90EA020F76
:1003800005D054EA000C04BF1946104630BD91EA6E
:10039000030F1EBF0021002030BD5FEA545C05D171
:1003A0004000494128BF41F0004130BD14F58004B0
:1003B0003CBF01F5801130BD01F0004545F0FE4124
:1003C00041F470014FF0000030BD7FEA645C1ABF59
:1003D000194610467FEA655C1CBF0B46024650EA90
:1003E000013406BF52EA033591EA030F41F40021BC
:1003F00030BD00BF90F0000F04BF0021704730B542
:100400004FF4806404F132044FF000054FF0000116
:1004100050E700BF90F0000F04BF0021704730B5D7
:100420004FF4806404F1320410F0004548BF4042AC
:100430004FF000013EE700BF42004FEAE2014FEA01
:1004400031014FEA02701FBF12F07F4393F07F4FDC
:1004500081F06051704732F07F4208BF704793F0DF
:100460007F4F04BF41F40021704730B54FF46074F2
:1004700001F0004521F000411CE700BF50EA0102F5
:1004800008BF704730B54FF000050AE050EA01029E
:1004900008BF704730B511F0004502D5404261EB0E
:1004A00041014FF4806404F132045FEA915C3FF44F
:1004B000D8AE4FF003025FEADC0C18BF03325FEAEC
:1004C000DC0C18BF033202EBDC02C2F1200300FA9D
:1004D00003FC20FA02F001FA03FE40EA0E0021FAC2
:1004E00002F11444BDE600BF70B54FF0FF0C4CF4B0
:1004F000E06C1CEA11541DBF1CEA135594EA0C0F62
:1005000095EA0C0F00F0DEF82C4481EA030621EA9C
:100510004C5123EA4C5350EA013518BF52EA0335D7
:1005200041F4801143F4801338D0A0FB02CE4FF089
:100530000005E1FB02E506F00042E0FB03E54FF0B9
:100540000006E1FB03569CF0000F18BF4EF0010EB1
:10055000A4F1FF04B6F5007F64F5407404D25FEAAD
:100560004E0E6D4146EB060642EAC62141EA555160
:100570004FEAC52040EA5E504FEACE2EB4F1FD0CA2
:1005800088BFBCF5E06F1ED8BEF1004F08BF5FEA20
:10059000500E50F1000041EB045170BD06F00046D2
:1005A00046EA010140EA020081EA0301B4EB5C047F
:1005B000C2BFD4EB0C0541EA045170BD41F4801177
:1005C0004FF0000E013C00F3AB8014F1360FDEBF9C
:1005D000002001F0004170BDC4F10004203C35DA78
:1005E0000C341BDC04F11404C4F1200500FA05F3FB
:1005F00020FA04F001FA05F240EA020001F000429C
:1006000021F0004110EBD37021FA04F642EB060111
:100610005EEA430E08BF20EAD37070BDC4F10C043B
:10062000C4F1200500FA04F320FA05F001FA04F2FF
:1006300040EA020001F0004110EBD37041F10001EB
:100640005EEA430E08BF20EAD37070BDC4F12005F6
:1006500000FA05F24EEA020E20FA04F301FA05F25E
:1006600043EA020321FA04F001F0004121FA04F206
:1006700020EA020000EBD3705EEA430E08BF20EAD6
:10068000D37070BD94F0000F0FD101F00046400010
:1006900041EB010111F4801F08BF013CF7D041EA92
:1006A000060195F0000F18BF704703F00046520096
:1006B00043EB030313F4801F08BF013DF7D043EA67
:1006C0000603704794EA0C0F0CEA135518BF95EA1D
:1006D0000C0F0CD050EA410618BF52EA4306D1D1A4
:1006E00081EA030101F000414FF0000070BD50EAC3
:1006F000410606BF1046194652EA430619D094EA4D
:100700000C0F02D150EA013613D195EA0C0F05D136
:1007100052EA03361CBF104619460AD181EA03018A
:1007200001F0004141F0FE4141F470014FF0000042
:1007300070BD41F0FE4141F4780170BD70B54FF0DD
:10074000FF0C4CF4E06C1CEA11541DBF1CEA13555D
:1007500094EA0C0F95EA0C0F00F0A7F8A4EB05043F
:1007600081EA030E52EA03354FEA013100F0888036
:100770004FEA03334FF0805545EA131343EA1263FF
:100780004FEA022245EA111545EA10654FEA0026B4
:100790000EF000419D4208BF964244F1FD0404F56D
:1007A000407402D25B084FEA3202B61A65EB0305C9
:1007B0005B084FEA32024FF480104FF4002CB6EB86
:1007C000020E75EB030E22BFB61A754640EA0C0006
:1007D0005B084FEA3202B6EB020E75EB030E22BF46
:1007E000B61A754640EA5C005B084FEA3202B6EB87
:1007F000020E75EB030E22BFB61A754640EA9C0046
:100800005B084FEA3202B6EB020E75EB030E22BF15
:10081000B61A754640EADC0055EA060E18D04FEAD3
:10082000051545EA16754FEA06164FEAC30343EA73
:1008300052734FEAC2025FEA1C1CC0D111F4801F40
:100840000BD141EA00014FF000004FF0004CB6E739
:1008500011F4801F04BF01430020B4F1FD0C88BFD8
:10086000BCF5E06F3FF6AFAEB5EB030C04BFB6EBE3
:10087000020C5FEA500C50F1000041EB045170BDD6
:100880000EF0004E4EEA113114EB5C04C2BFD4EB03
:100890000C0541EA045170BD41F480114FF0000E87
:1008A000013C90E645EA060E8DE60CEA135594EA03
:1008B0000C0F08BF95EA0C0F3FF43BAF94EA0C0F06
:1008C0000AD150EA01347FF434AF95EA0C0F7FF47B
:1008D00025AF104619462CE795EA0C0F06D152EACF
:1008E00003353FF4FDAE1046194622E750EA4106B3
:1008F00018BF52EA43067FF4C5AE50EA41047FF4C4
:100900000DAF52EA43057FF4EBAE12E74FF0FF3C28
:1009100006E000BF4FF0010C02E000BF4FF0010CF9
:100920004DF804CD4FEA410C7FEA6C5C4FEA430C72
:1009300018BF7FEA6C5C1BD001B050EA410C0CBFC1
:1009400052EA430C91EA030F02BF90EA020F002023
:10095000704710F1000F91EA030F58BF994208BF8A
:1009600090422CBFD8176FEAE37040F00100704747
:100970004FEA410C7FEA6C5C02D150EA013C07D19E
:100980004FEA430C7FEA6C5CD6D152EA033CD3D0E9
:100990005DF8040B704700BF8446104662468C46E3
:1009A0001946634600E000BF01B5FFF7B7FF002816
:1009B00048BF10F1000F01BD4DF808EDFFF7F4FF3F
:1009C0000CBF012000205DF808FB00BF4DF808EDCA
:1009D000FFF7EAFF34BF012000205DF808FB00BFED
:1009E0004DF808EDFFF7E0FF94BF012000205DF80F
:1009F00008FB00BF4DF808EDFFF7CEFF94BF0120C4
:100A000000205DF808FB00BF4DF808EDFFF7C4FFBC
:100A100034BF012000205DF808FB00BF4FEA410C05
:100A20007FEA6C5C02D150EA013C0AD14FEA430CE8
:100A30007FEA6C5C02D152EA033C02D14FF0000025
:100A400070474FF0010070474FEA410212F5001263
:100A500015D211D56FF47873B3EB625212D94FEA05
:100A6000C12343F0004343EA505311F0004F23FAEF
:100A700002F018BF404270474FF00000704750EA44
:100A8000013005D111F0004008BF6FF00040704701
:100A90004FF00000704700BF4A0011D212F500125B
:100AA00011D20DD56FF47873B3EB62520ED44FEAC6
:100AB000C12343F0004343EA505323FA02F0704746
:100AC0004FF00000704750EA013002D14FF0FF3084
:100AD00070474FF00000704780B400AF094B5B686F
:100AE000084A43F480735360064B064ADB6AD362BC
:100AF000044B9B68034A43F00203936000BFBD466A
:100B000080BC70470024014080B582B000AF03462E
:100B10000A46FB711346BB711F4B1969FA791346DC
:100B20005B001344072202FA03F31B4A0B431361D1
:100B3000194B596BF879BB795A1E13469B00134425
:100B400000FA03F3144A0B435363134B9B68124A96
:100B500043F0010393604FF47A7000F09BFC0E4B5E
:100B60009B680D4A43F0010393604FF47A7000F0E4
:100B700091FC094B9B68084A43F00403936000BF53
:100B8000054B9B689B0803F00103012BF8D000BFC5
:100B900000BF0837BD4680BD0024014080B485B049
:100BA00000AF03460A46FB711346BB710023FB737B
:100BB000FB79032B02D80023FB7319E0FB79072B89
:100BC00005D80123FB73FB79043BFB7110E0FB7933
:100BD0000B2B05D80223FB73FB79083BFB7107E065
:100BE000FB790F2B04D80323FB73FB790C3BFB71C0
:100BF000134AFB7B023352F82320FB799B000F2121
:100C000001FA03F3DB4318460D49FB7B0240023334
:100C100041F823200A4AFB7B023352F82320B9799A
:100C2000FB799B0001FA03F318460549FB7B02435D
:100C3000023341F8232000BF1437BD4680BC704703
:100C40000000014080B483B000AF0346FB710B4647
:100C5000BB7113467B71FB79022B7AD0022B00F318
:100C6000B680002B02D0012B3AD0B0E0BB79072B25
:100C700017D8594B1B68BA7992000F2101FA02F27A
:100C8000D2431146544A0B401360534B1B68797989
:100C9000BA79920001FA02F211464F4A0B431360EF
:100CA00090E0BB790F2B00F28D80BB79083BBB71C4
:100CB0004A4B1B68BA7992000F2101FA02F2D24323
:100CC0001146464A0B401360444B1B687979BA7948
:100CD000920001FA02F21146404A0B43136071E0A0
:100CE000BB79072B17D83E4B1B68BA7992000F21AE
:100CF00001FA02F2D2431146394A0B401360384BD5
:100D00001B687979BA79920001FA02F21146344AE5
:100D10000B43136058E0BB790F2B55D8BB79083BC8
:100D2000BB71304B1B68BA7992000F2101FA02F2B5
:100D3000D24311462B4A0B4013602A4B1B6879792A
:100D4000BA79920001FA02F21146264A0B43136067
:100D50003AE0BB79072B17D8234B1B68BA7992006E
:100D60000F2101FA02F2D24311461F4A0B401360D1
:100D70001D4B1B687979BA79920001FA02F211468B
:100D8000194A0B43136021E0BB790F2B1ED8BB79A6
:100D9000083BBB71154B1B68BA7992000F2101FA11
:100DA00002F2D2431146114A0B4013600F4B1B68ED
:100DB0007979BA79920001FA02F211460B4A0B4393
:100DC000136003E000BF02E000BF00E000BF00BF0F
:100DD0000C37BD4680BC7047000801400408014044
:100DE000000C0140040C01400010014004100140BF
:100DF00080B483B000AF0346FB710B46BB71134652
:100E00007B71FB79022B2AD0022B3FDC002B02D016
:100E1000012B12D03AE07B79012B05D1BB7901225D
:100E20009A401D4B1A602CE07B79002B29D1BB79AD
:100E300001229A40194B1A6023E07B79012B05D1DE
:100E4000BB7901229A40164B1A601CE07B79002B7B
:100E500019D1BB7901229A40124B1A6013E07B79B9
:100E6000012B05D1BB7901229A400F4B1A600CE08F
:100E70007B79002B09D1BB7901229A400B4B1A6078
:100E800003E000BF02E000BF00E000BF00BF0C377E
:100E9000BD4680BC704700BF1008014014080140E7
:100EA000100C0140140C01401010014014100140BE
:100EB00080B485B000AF03460A46FB711346BB7190
:100EC0000023FB73FB79022B1AD0022B22DC002BB0
:100ED00002D0012B0AD01DE0114B1A68BB7922FA0F
:100EE00003F3DBB203F00103FB7313E00D4B1A684D
:100EF000BB7922FA03F3DBB203F00103FB7309E0D1
:100F0000094B1A68BB7922FA03F3DBB203F0010341
:100F1000FB7300BFFB7B18461437BD4680BC70478F
:100F200008080140080C01400810014080B400AFDF
:100F3000074B9B68064A43F001039360044B1B6810
:100F4000034A23F00103136000BFBD4680BC704715
:100F50000004014080B483B000AF03460A46FB7131
:100F60001346BB71BB79022B1CD0022B2FDC002B4C
:100F700002D0012B0BD02AE01C4B9B68FA7901218F
:100F800001FA02F21146194A0B4393601FE0174B16
:100F9000DB68FA79012101FA02F21146134A0B4388
:100FA000D36014E0114B9B68FA79012101FA02F237
:100FB00011460E4A0B4393600C4BDB68FA79012112
:100FC00001FA02F21146094A0B43D36000BF074BF6
:100FD0001B68FA79012101FA02F21146034A0B4318
:100FE000136000BF0C37BD4680BC70470004014051
:100FF00080B483B000AF78600B46FB70FB78044987
:101000007A6841F8232000BF0C37BD4680BC70478A
:101010008000002080B500AF054B1B689847054B4A
:101020005B69044A43F00103536100BF80BD00BF08
:10103000800000200004014080B500AF054B5B68D4
:101040009847054B5B69044A43F00203536100BFB4
:1010500080BD00BF800000200004014080B500AFCB
:10106000054B9B689847054B5B69044A43F00403B2
:10107000536100BF80BD00BF80000020000401401C
:1010800080B500AF054BDB689847054B5B69044AA8
:1010900043F00803536100BF80BD00BF8000002003
:1010A0000004014080B500AF054B1B699847054B14
:1010B0005B69044A43F01003536100BF80BD00BF69
:1010C000800000200004014080B582B000AF314BA9
:1010D0005B695B09DBB203F00103FB712D4B5B69BC
:1010E0009B09DBB203F00103BB712A4B5B69DB098F
:1010F000DBB203F001037B71264B5B691B0ADBB299
:1011000003F001033B71234B5B695B0ADBB203F025
:101110000103FB70FB79012B08D11F4B5B699847DA
:101120001C4B5B691B4A43F020035361BB79012BC5
:1011300008D1194B9B699847164B5B69154A43F0D8
:10114000400353617B79012B08D1134BDB6998472E
:10115000104B5B690F4A43F0800353613B79012BCD
:1011600008D10D4B1B6A98470A4B5B69094A43F447
:1011700080735361FB78012B08D1074B5B6A98475A
:10118000044B5B69034A43F40073536100BF0837A3
:10119000BD4680BD000401408000002080B582B0C3
:1011A00000AF3B4B5B699B0ADBB203F00103FB71B1
:1011B000374B5B69DB0ADBB203F00103BB71344BD5
:1011C0005B691B0BDBB203F001037B71304B5B6986
:1011D0005B0BDBB203F001033B712D4B5B699B0B97
:1011E000DBB203F00103FB70294B5B699B0BDBB2A5
:1011F00003F00103BB70FB79012B08D1254B9B6ADF
:101200009847234B5B69224A43F480635361BB795F
:10121000012B08D11F4BDB6A98471D4B5B691C4AA9
:1012200043F4006353617B79012B08D1194B1B6B8D
:101230009847174B5B69164A43F4805353613B79D7
:10124000012B08D1134B5B6B9847114B5B69104A1C
:1012500043F400535361FB78012B08D10D4B9B6B7A
:1012600098470B4B5B690A4A43F480435361BB7850
:10127000012B08D1074BDB6B9847054B5B69044A90
:1012800043F40043536100BF0837BD4680BD00BF33
:10129000000401408000002080B584B000AF034608
:1012A0000A46FB711346BB71BB790133DAB2FB7995
:1012B00011461846FFF7FCFD0346FB73BB79082B6C
:1012C00019D1FB7B012B08D1194B01221A70194B44
:1012D0001B68013B174A13600AE0FB7B002B07D118
:1012E000134B02221A70134B1B680133114A13600F
:1012F000104B1B6818E0FB7B012B08D10E4B012221
:101300001A700E4B1B68013B0C4A13600AE0FB7B12
:10131000002B07D1084B02221A70084B1B680133BF
:10132000064A1360054B1B6818461037BD4680BD42
:10133000C1000020C8000020C0000020C400002020
:1013400080B483B000AF0346FB71FB79082B03D157
:10135000074B00221A6005E0FB790A2B02D1054BEE
:1013600000221A6000BF0C37BD4680BC704700BF2A
:10137000C8000020C400002080B400AF034B4FF031
:1013800000021A6000BFBD4680BC7047CC00002040
:1013900080B483B000AF0346FB71FB791F2B05D8E7
:1013A000FB7901229A40094B1A600AE0FB793B2B3A
:1013B00007D8FB79203BFB71FB7901229A40044B53
:1013C0001A6000BF0C37BD4680BC704700E100E0EA
:1013D00004E100E080B400AF054B4FF480321A60A6
:1013E000044B01221A6000BFBD4680BC704700BF9D
:1013F000001002400410024080B483B000AF0346E6
:101400000A46FB711346BB71BB791F2B2AD8FB79A7
:10141000022B1CD0022B26DC002B02D0012B0BD080
:1014200021E0134B1B68BA79012101FA02F211463F
:101430000F4A0B43136016E00E4B1B68BA7901216B
:1014400001FA02F211460B4A0B4313600BE00A4B00
:101450001B68BA79012101FA02F21146064A0B43D0
:10146000136000E000BF00BF0C37BD4680BC704772
:10147000141002401C1002401810024080B400AF4B
:10148000034B00221A6000BFBD4680BC704700BFFE
:1014900010E000E080B483B000AF7860104A7B6851
:1014A00053600F4B1B680E4A43F00103136000BFEB
:1014B0000B4B1B681B0C03F00103002BF8D0084BEF
:1014C0001B68074A43F001031360054B00225A6072
:1014D000034B00229A6000BF0C37BD4680BC7047AA
:1014E00010E000E080B582B000AF124B1B78002BFB
:1014F00011D1114B1B68104A23F0020313600E4BED
:101500001B680D4A43F0010313600B4B00225A6025
:10151000094B00229A60094B1B689847064B1B68D1
:101520001B0CDBB203F00103FB7100BF0837BD46A3
:1015300080BD00BFD400002010E000E0D0000020FB
:1015400080B400AF4FF080431B684FF0804223F01F
:10155000100313604FF080431B684FF0804243F04C
:10156000100313604FF0804308229A624FF08043CB
:10157000DB684FF0804243F00103D3604FF08043BB
:101580001B6A4FF0804243F0100313624FF0804318
:101590009B694FF0804223F4805393614FF0804366
:1015A0009B694FF0804243F4005393614FF08043B6
:1015B0009B694FF0804243F4804393614FF0804336
:1015C0009B694FF0804223F4006393614FF08043A6
:1015D0001B684FF0804243F0800313604FF080435C
:1015E0006422DA624FF080431B684FF0804243F080
:1015F000010313604FF080435B694FF0804243F07A
:101600000103536100BFBD4680BC704780B483B006
:1016100000AF0346FB80044AFB88136000BF0C3711
:10162000BD4680BC704700BF3800004080B400AFAA
:10163000244B1B68234A23F010031360214B214ADB
:101640001B6813601F4B08229A621E4BDB681D4A01
:1016500043F00103D3601B4B1B6A1A4A43F001039A
:101660001362184B9B69174A23F010039361154BC3
:101670009B69144A43F020039361124B9B69114A02
:1016800043F0400393610F4B9B690E4A23F008031C
:1016900093610C4B1B680B4A43F080031360094BAA
:1016A0006422DA62074B1B68064A43F001031360A9
:1016B000044B5B69034A43F00103536100BFBD461D
:1016C00080BC70470004004080B483B000AF034684
:1016D000FB80044AFB88136000BF0C37BD4680BC0A
:1016E000704700BF3404004080B500AF02210220E3
:1016F000FFF782FE00210220FFF77EFE112101206C
:10170000FFF77AFE092202210020FFF79BFA04224C
:1017100003210020FFF796FA0D4B40F241329A6008
:101720000B4BDB680A4A43F00803D360084BDB68C5
:10173000074A43F00403D360054BDB68044A43F4D3
:101740000053D360024B00221A6000BF80BD00BF6F
:101750000044004080B483B000AF0346FB710B4AE5
:10176000FB79536000BF094B1B689B0903F0010321
:10177000002BF8D0054B1B68044A23F0400313608C
:1017800000BF0C37BD4680BC704700BF004400401E
:1017900080B582B000AF786007E07B681B781846A0
:1017A000FFF7D8FF7B6801337B607B681B78002BD9
:1017B000F3D100BF00BF0837BD4680BD80B483B001
:1017C00000AF0023FB7100BF074B1B685B0903F0F0
:1017D0000103002BF8D0044B5B68FB71FB791846C2
:1017E0000C37BD4680BC70470044004080B584B0D3
:1017F00000AF78600023FB730023BB73FFF7DEFFAD
:101800000346FB730BE0BB7B7A681344FA7B1A70C8
:10181000BB7B0133BB73FFF7D1FF0346FB73FB7B3D
:10182000002BF0D1BB7B18461037BD4680BD0000B1
:1018300080B500AF08210020FFF72EFD0346024AC5
:10184000136000BF80BD00BFDC00002080B500AF8A
:101850000A210120FFF720FD0346024A136000BF62
:1018600080BD00BFD80000202DE9B04382B000AF9A
:101870005348FFF7BBFF03461A46524B1A70524BB0
:1018800000221A804E4B1B78612B40F090804C4B0D
:101890005B782D2B4AD10223FB7138E04A4BB3F918
:1018A00000301846FEF7B6FD04460D46FB79444A63
:1018B000D35C303B1846FEF7ADFD80468946414B70
:1018C0001B785A1EFB79D31A1846FEF7A3FD024671
:1018D0000B464FF000003D4900F028FB02460B4646
:1018E00040464946FEF700FE02460B462046294682
:1018F000FEF744FC02460B4610461946FFF7A4F8D3
:1019000003461AB2304B1A80FB790133FB712D4B21
:101910001B78FA799A42C1D32B4BB3F900309BB2B2
:101920005B429BB21AB2284B1A8040E00123BB7184
:1019300038E0254BB3F900301846FEF76BFD04463E
:101940000D46BB791E4AD35C303B1846FEF762FD5C
:10195000804689461B4B1B785A1EBB79D31A184602
:10196000FEF758FD02460B464FF00000174900F005
:10197000DDFA02460B4640464946FEF7B5FD0246F3
:101980000B4620462946FEF7F9FB02460B46104659
:101990001946FFF759F803461AB20B4B1A80BB7968
:1019A0000133BB71074B1B78BA799A42C1D3064BFE
:1019B000B3F9003018460837BD46BDE8B08300BF14
:1019C000E4000020E0000020FA0000200000244095
:1019D00080B582B000AF00237B800023FB80002312
:1019E000BB80FFF741FF03467B807B885A339BB265
:1019F000FB80B7F90630B42B04DDFB88A3F5B47384
:101A00009BB2FB80FA887B88D31A9BB2BB800122F1
:101A100000210020FFF7ECF9002205210020FFF74C
:101A2000E7F91E20FFF7F2FD1E20FFF74DFEB7F984
:101A3000043013F1B40F04DABB8803F5B4739BB21E
:101A4000BB80B7F90430002B0CDC0020FFF73CFE14
:101A50000020FFF7DBFD0820FFF772FC0A20FFF7EC
:101A60006FFC09E0FFF700FF03467B80FA887B8864
:101A7000D31A9BB2BB80CAE700BF0837BD4680BD02
:101A800080B582B000AF00237B800023FB80002361
:101A9000BB80FFF7E9FE03467B807B885A3B9BB205
:101AA000FB80B7F9063013F1B40F04DAFB8803F5B5
:101AB000B4739BB2FB80FA887B88D31A9BB2BB803D
:101AC000012200210020FFF793F9002205210020C8
:101AD000FFF78EF91E20FFF799FD1E20FFF7F4FD9A
:101AE000B7F90430B42B04DDBB88A3F5B4739BB203
:101AF000BB80B7F90430002B0CDB0020FFF7E4FDBE
:101B00000020FFF783FD0820FFF71AFC0A20FFF7EB
:101B100017FC09E0FFF7A8FE03467B80FA887B8864
:101B2000D31A9BB2BB80CBE700BF0837BD4680BD50
:101B300080B582B000AF00237B600820FFF700FC77
:101B40000A20FFF7FDFBFFF717FC4FF433737B60B0
:101B5000164B1B881846FFF759FD144B1B88184677
:101B6000FFF7B2FD124B1B68002BB8BF5B421A4651
:101B70007B689342ECD80820FFF7E2FB0A20FFF7CE
:101B8000DFFB0A4B00221A800020FFF79DFD00209A
:101B9000FFF73CFD0748FFF7FBFD0748FFF7F8FD9F
:101BA00000BF00BF0837BD4680BD00BFF800002061
:101BB000D8000020102D0008142D00082DE9B04396
:101BC00082B000AFFFF706FC02210220FFF714FCF1
:101BD00003210220FFF710FC00210220FFF70CFC7C
:101BE00000210120FFF708FC01210120FFF704FC80
:101BF00009210220FFF700FC0A2201210020FFF743
:101C000021F8022200210020FFF71CF80A220621F9
:101C10000020FFF717F8022205210020FFF712F835
:101C2000042208210020FFF70DF8042209210020DA
:101C3000FFF708F804220A210120FFF703F8042225
:101C40000B210120FEF7FEFF002200210120FEF7FC
:101C5000F9FF00210820FEF7A1FF01210A20FEF76D
:101C60009DFF08217F48FFF7C3F90A217E48FFF74F
:101C7000BFF9FFF75BF900210820FFF76BF900219E
:101C80000A20FFF767F9FEF727FF01210820FEF77A
:101C90003BFF1720FFF77CFB2820FFF779FBFFF7BE
:101CA000EDFBFFF74DFCFFF7C1FCFFF71DFD6F4893
:101CB000FFF79CFD03461A466D4B1A706B4B1B7861
:101CC000792B40F0A7800020FFF7A0FC0020FFF751
:101CD000FBFC664B5B782D2B4CD1002200210020B1
:101CE000FFF786F8002205210020FFF781F8022384
:101CF000FB7137E05F4B1B881846FEF78BFB0446F1
:101D00000D46FB79594AD35C303B1846FEF782FBFF
:101D100080468946564B1B785A1EFB79D31A1846C3
:101D2000FEF778FB02460B464FF00000524900F0E8
:101D3000FDF802460B4640464946FEF7D5FB0246F3
:101D40000B4620462946FEF719FA02460B46104676
:101D50001946FEF7A1FE03469AB2464B1A80FB795C
:101D60000133FB71424B1B78FA799A42C2D3FFF7D9
:101D7000DFFE9CE7012200210020FFF739F8012255
:101D800005210020FFF734F80123BB7137E0394B00
:101D90001B881846FEF73EFB04460D46BB79334AC6
:101DA000D35C303B1846FEF735FB80468946304B06
:101DB0001B785A1EBB79D31A1846FEF72BFB024636
:101DC0000B464FF000002C4900F0B0F802460B46DD
:101DD00040464946FEF788FB02460B462046294608
:101DE000FEF7CCF902460B4610461946FEF754FEA4
:101DF00003469AB21F4B1A80BB790133BB711C4B4F
:101E00001B78BA799A42C2D31A4B1B881846FFF73F
:101E10008FFE4CE7154B1B786D2B1BD10020FFF775
:101E2000F5FB0020FFF750FC104B5B782D2B08D101
:101E3000FFF7CEFD1148FFF7ABFC1148FFF7A8FCF8
:101E400035E7FFF71DFE0D48FFF7A2FC0C48FFF732
:101E50009FFC2CE70020FFF737FC0020FFF7D6FBA4
:101E600025E700BF311800084D180008E4000020E5
:101E7000E0000020F800002000002440182D000899
:101E80001C2D00080D488546AFF300800C480D4915
:101E90000D4A002302E0D458C4500433C4188C42C5
:101EA000F9D30A4A0A4C002301E013600432A2422B
:101EB000FBD300F017F8FFF781FEFEE7005000208B
:101EC0000000002064000020602D00086400002055
:101ED000FC000020FEE70000014B1868704700BFBF
:101EE0000000002070B500260C4D0D4C641BA410A2
:101EF000A64209D100F0FEFE00260A4D0A4C641BE2
:101F0000A410A64205D170BD55F8043B9847013690
:101F1000EEE755F8043B98470136F2E7582D0008E4
:101F2000582D0008582D00085C2D00082DE9F843B5
:101F300014461D468046894600F062F82246064651
:101F40000F462B4620462946FEF768FDC8BB0022F7
:101F5000002340464946FEF72FFDB8B1002200237A
:101F600020462946FEF728FD002841D12046294673
:101F700000F03BFE28B30022002320462946FEF74E
:101F800025FDF0B1FFF7A8FF222319E030463946BE
:101F900000F02BFEC8B94046494600F026FEA0B12D
:101FA0002046294600F021FE78B132463B463046B5
:101FB0003946FEF733FD0028E4D0FFF78DFF2123DB
:101FC000036030463946BDE8F883002200233046DE
:101FD0003946FEF7F1FC0028F3D04046494600F0B0
:101FE00004FE0028EDD02046294600F0FEFDC8E79B
:101FF0000026014FE5E700BF0000F03F00000000B1
:102000002DE9F04F93B0CDE90223DDE9022727F057
:102010000046894656EA0201804611D1031889F428
:10202000002252419942824B934180F0B984DDE90C
:10203000022340464946FEF7A1F883468C466FE0EE
:102040007C4B29F000449C424D46824606DC01D17F
:102050000028ECD19E4201DC0FD172B105F1404560
:1020600005F5801555EA0A05E1D1DDE90232DB18F4
:1020700082F4002252419D42D5E7002D39DA6E4BA1
:102080009E4252DCA3F154739E4240F39C8433156C
:10209000A3F2FF33142B0FDDC3F1340322FA03F153
:1020A00001FA03F3934240F08E8401F00101C1F183
:1020B0000203009382B15DE0002A59D1C3F11403F9
:1020C00046FA03F101FA03F3B34240F0798401F0D8
:1020D0000101C1F102030093584B9E4232D1002FFF
:1020E00080F26A8442464B4600205449FEF726FBA4
:1020F000A3E700230093002A3CD14E4B9E42EBD134
:1021000004F1404303F5801353EA0A0300F04884C6
:102110004B4B9C420BDD002FC0F24884DDE902BC32
:102120005846614613B0BDE8F08F0223E2E7002F66
:102130004FF0000B4FF0000CF2DADDE902B303F1CF
:10214000004CEDE7B7F1804F06D142464B46404682
:102150004946FEF7C9F970E73A4B9F420AD1002D74
:1021600008DB4046494613B0BDE8F04F00F05EBCC6
:10217000002300934046494600F034FD83468C46D8
:10218000BAF1000F28D124B12C4B25F040429A42DD
:1021900022D1002F07DA5A46634600202749FEF76E
:1021A000CDFA83468C46002DBADA009B04F14044F8
:1021B00004F58014234308D15A46634658466146C5
:1021C000FDF7DAFF02460B4690E7009B012BA7D1F3
:1021D0000CF100439C46A3E7EB0F013B0C930C9AD8
:1021E000009B134304D142464B4640464946E7E72D
:1021F000154B9E4240F3F68003F104739E42104B50
:1022000009DD9C420CDC002F0CDA002013B0BDE885
:10221000F04F00F0E2BC9C42F5DB084B9C4215DD20
:10222000002FF2DC002013B0BDE8F04F00F0D0BC6E
:102230000000F0FF0000F07FFFFF3F430000F03F91
:10224000FFFFEF3F0000E03F0000E0416146002259
:1022500058465F4BFDF790FF55A3D3E90023044692
:102260000D46FEF741F954A3D3E9002306460F4675
:1022700020462946FEF738F9002282468B46204642
:102280002946544BFEF730F902460B464CA1D1E9E2
:102290000001FDF771FF22462B46FEF725F90246A5
:1022A0000B4600204C49FDF767FF22462B4680462F
:1022B000894620462946FEF717F902460B46404656
:1022C0004946FEF711F940A3D3E90023FEF70CF9C4
:1022D00002460B4650465946FDF74EFF4FF0000AA6
:1022E00002460B4604460D4630463946FDF746FF8A
:1022F00032463B4650468B46FDF73EFF02460B46B4
:1023000020462946FDF738FFDDE90267009B0C9A5D
:10231000013B13434FF000064FF000020CBF2F4B60
:102320002B4B04460D46DDE90201CDE90023324680
:102330003B46FDF721FF52465B46FEF7D5F8DDE947
:1023400002238046894620462946FEF7CDF80246FC
:102350000B4640464946FDF711FF32463B46804654
:10236000894650465946FEF7BFF804460D460B46CF
:10237000024649464046CDE90245FDF7FFFE184BAF
:10238000824699420F460E4640F3E58201F13F43F3
:1023900003F5E003034300F0DF81DDE900010022E3
:1023A0000023FEF713FB003818BF01202EE700BF03
:1023B000000000604715F73F44DF5DF80BAE543E68
:1023C000555555555555D53FFE822B654715F73F59
:1023D0000000F03F0000D03F0000E03F0000F0BFF1
:1023E000FFFF8F40D24B00222B4043B95846614635
:1023F000D04BFEF779F86FF0340283460C46231574
:10240000A3F2FF3313440B93CB4BC4F3130444F0F8
:102410007F559C4245F4401508DDC84B9C4240F373
:1024200099810B9BA5F5801501330B930026F300D2
:102430000D93C34B584603EBC603D3E9003429463A
:102440001A46CDE908342346FDF796FEDA462B46B8
:102450005246CDE90E01DDE90801FDF78FFE024687
:102460000B460020B749FEF769F902460B46CDE955
:102470001001DDE90E01FEF737F8CDE90601DDE9CF
:102480000634CDE9043400230022AB466D1045F03C
:102490000055049305F50025DDE9048905EB864325
:1024A0004046494614461D46FEF71EF802460B46B6
:1024B000DDE90E01FDF760FEDDE9082306460F4663
:1024C00020462946FDF758FE02460B46504659461F
:1024D000FDF752FE42464B46FEF706F802460B4613
:1024E00030463946FDF748FEDDE91023FDF7FCFFD5
:1024F000DDE90623CDE9080110461946FDF7F4FF92
:1025000079A3D3E9002304460D46FDF7EDFF78A338
:10251000D3E90023FDF732FE22462B46FDF7E4FF08
:1025200075A3D3E90023FDF729FE22462B46FDF7CC
:10253000DBFF73A3D3E90023FDF720FE22462B46E1
:10254000FDF7D2FF70A3D3E90023FDF717FE224663
:102550002B46FDF7C9FF6EA3D3E90023FDF70EFE5E
:10256000224606460F462B4620462946FDF7BCFF6D
:1025700002460B4630463946FDF7B6FF04460D4687
:10258000DDE9060142464B46FDF7F8FDDDE908238B
:10259000FDF7AAFF22462B46FDF7F0FD4246064610
:1025A0000F464B4640464946FDF79EFF0022664BCC
:1025B00082468B46FDF7E2FD32463B46FDF7DEFDE7
:1025C00000240D4622460B4640464946FDF78CFF47
:1025D000002280468946204629465B4BFDF7CCFD0C
:1025E00052465B46FDF7C8FD02460B46304639466B
:1025F000FDF7C2FDDDE90623FDF776FF224606461C
:102600000F46DDE908012B46FDF76EFF02460B463B
:1026100030463946FDF7B2FD002406460F46024615
:102620000B4640464946FDF7A9FD3BA3D3E90023ED
:1026300020460D46FDF758FF42464B46CDE90601C0
:1026400020462946FDF798FD02460B46304639469E
:10265000FDF792FD32A3D3E90023FDF745FF32A336
:10266000D3E9002306460F4620462946FDF73CFFE6
:1026700002460B4630463946FDF780FD0D9A334B36
:102680004FF0000A1344D3E90023FDF777FD80469D
:102690000B988946FDF7BEFE04460D460D9A2C4B5D
:1026A0001344D3E900674246DDE906014B46FDF7D6
:1026B00065FD32463B46FDF761FD22462B46FDF7A0
:1026C0005DFD22462B4650468B46FDF755FD3246B2
:1026D0003B46FDF751FDDDE90623FDF74DFD0246C2
:1026E0000B46404649460DE6EF4E454A287ECA3F16
:1026F00065DBC9934A86CD3F01411DA96074D13F76
:102700004D268F515555D53FFFAB6FDBB66DDB3F87
:10271000033333333333E33F000000E009C7EE3FB8
:10272000FD033ADC09C7EE3FF5015B14E02F3EBE26
:102730000000F07F000040438E98030079B60B0044
:10274000282D00080000F03F00000840482D000838
:10275000382D000801266AE69DA3D3E900234046F0
:102760004946FDF70BFD2246CDE904012B465046B4
:102770003946FDF701FD02460B46DDE90401FEF78F
:1027800043F900287FF409AEA34A26F000439342A0
:1027900040F301814FF4801A00201B15A3F2FE3391
:1027A0004AFA03F33344C3F30A529C4FA2F2FF32B6
:1027B0001741C3F3130A23EA0701C2F114024AF4D2
:1027C000801A0B464AFA02FA002E02462946204693
:1027D000B8BFCAF1000AFDF7CFFCCDE90201DDE97F
:1027E0000201002442464B46FDF7C8FC7AA3D3E918
:1027F000002320460D46FDF777FEDDE9022306465D
:102800000F4620462946FDF7B7FC02460B464046D8
:102810004946FDF7B1FC72A3D3E90023FDF764FE3E
:1028200071A3D3E900238046894620462946FDF757
:102830005BFE02460B4640464946FDF79FFC0446B8
:102840000D4602460B4630463946FDF797FC3246A8
:102850003B4680468946FDF78FFC02460B462046E4
:102860002946FDF789FC424606460F464B46404640
:102870004946FDF739FE5EA3D3E9002304460D4621
:10288000FDF732FE5CA3D3E90023FDF775FC224679
:102890002B46FDF729FE5AA3D3E90023FDF76EFC72
:1028A00022462B46FDF720FE57A3D3E90023FDF770
:1028B00063FC22462B46FDF717FE55A3D3E9002300
:1028C000FDF75CFC22462B46FDF70EFE02460B464A
:1028D00040464946FDF750FC04460D4602460B466D
:1028E00040464946FDF700FE0022CDE902014FF0C7
:1028F000804320462946FDF73FFC02460B46DDE9B2
:102900000201FDF71BFF324604460D463B4640469A
:102910004946FDF7E9FD32463B46FDF72FFC0246EE
:102920000B4620462946FDF727FC42464B46FDF75D
:1029300023FC02460B4600203949FDF71DFC01EB44
:102940000A54B4F5801F29DA524600F055F9DDE942
:102950000023FFF7FEBB334B21F000479F427FF778
:1029600013AF314B0B44034309D0DDE900010022D2
:102970000023FEF72BF8003818BF012053E422464D
:102980002B46FDF7F9FB42464B46FEF733F800288D
:102990003FF4FAAEE9E74FF0000A20E72146D6E718
:1029A0004FF0000BDFF878C0FFF7BABB4FF0000B19
:1029B0004FF0000CFFF7B4BB40464946FFF73DBB64
:1029C0000092FFF789BB0023FFF773BBAFF30080D2
:1029D000FE822B654715973C00000000432EE63F22
:1029E000EF39FAFE422EE63F396CA80C615C20BE3E
:1029F000D0A4BE726937663EF16BD2C541BDBB3E05
:102A00002CDE25AF6A56113F93BDBE166CC1663FE2
:102A10003E5555555555C53F0000E03FFFFF0F009F
:102A20000000F03FFFCB904000346F3FDFF858C10B
:102A30002DE9F0413CEA010C06460D460C460A46DB
:102A4000074603460FD102460B46FDF74DFD0246F1
:102A50000B4630462946FDF791FB06460D463046AB
:102A60002946BDE8F08100290EDC21F0004C5CEA2B
:102A70000707F4D041B102460B46FDF77DFB024645
:102A80000B46FDF75BFEE8E7211575D0CC074FF04C
:102A90000004C2F31302A1F2FF3742F480125EBFBA
:102AA000D90F5B0001EB4202D90F01EB4202162560
:102AB00020464FF400117F105B0046189642DEBF9F
:102AC000921B701864185200013D02EBD3724FEA5A
:102AD00051014FEA4303F0D129464FF0200E4FF049
:102AE0000046824206EB050C02DC13D19C4511D84E
:102AF000BCF1000F0CEB060543DA002D41DB00F1C1
:102B00000108121A40469C4588BF02F1FF32A3EB30
:102B10000C0331444FEAD37CBEF1010E0CEB4202B0
:102B20004FEA43034FEA5606DBD1134306D0481C55
:102B30000BBF71460131013421F0010163104908D6
:102B400003F17F53E20703F5001348BF41F0004152
:102B50000E4603EB075582E7DA0A15385B05002AB3
:102B6000FAD0D5020AD5C1F1200423FA04F44D1E8F
:102B70008B402243411B89E70846F0E752000131B0
:102B8000EFE78046BDE700BF0000F07F70B5044668
:102B90000D461646FFF7A0F929460660204670BD8F
:102BA00037B515461C4680B1104603F10041CDE90A
:102BB0000001DDE9002328462146FDF795FC22228D
:102BC00003B0BDE83040FFF7E1BF10461946EEE71D
:102BD00000224FF08053FFF7E3BF00224FF0E043A5
:102BE000FFF7DEBF21F00041704741F0004000F5E3
:102BF0008010C00F70470000F8B5C1F30A560446B4
:102C00000D4617460B4696B921F00043034339D0D1
:102C1000334B0022FDF768FC324B04469F420D46C1
:102C20000FDA2BA3D3E90023FDF75EFC06E040F2A8
:102C3000FF7296420AD10246FDF7A0FA04460D46FD
:102C400020E00B46C1F30A51A1F1360640F2FE72B4
:102C5000B91991420EDD05F0004444F0FC4141F405
:102C60005F1141F41051204841F03C011AA3D3E90F
:102C70000023D9E7002908DD23F0FF4323F4E00314
:102C800043EA015520462946F8BD11F1350F12DA05
:102C90004CF250339F424FEAD5734FEAC374DCDCE9
:102CA0000BA3D3E9002344F0D27141F4B7310F48AC
:102CB00041F01F01B8E723F0FF43363123F4E0036E
:102CC00043EA0155204629460022094BACE700BFE4
:102CD00059F3F8C21F6EA5019C7500883CE4377E4D
:102CE00000005043B03CFFFF9C75008859F3F8C2C8
:102CF0000000903CF8B500BFF8BC08BC9E46704789
:0C2D0000F8B500BFF8BC08BC9E46704748
:102D1000733100000D0A0000733200002F722F6E15
:102D20000000000000000000000000000000F03F74
:102D3000000000000000F83F00000000000000005C
:102D40000000004003B8E23F000000000000000067
:082D500006D0CF43EBFD4C3E21
:042D58005501000819
:042D5C003101000839
:102D6000040000200000000000000000000000003F
:102D70000000000000000000000000000000000053
:102D80000000000000000000000000000000000043
:102D90000000000000000000000000000000000033
:102DA0000000000000000000000000000000000023
:102DB0000000000000000000000000000000000013
:042DC000000000000F
:0400000508001E854C
:00000001FF
