:020000040800F2
:10000000005000200D2700085D2700085D2700082C
:100010005D2700085D2700085D270008000000003C
:100020000000000000000000000000005D27000844
:100030005D270008000000005D270008F11A000895
:100040005D2700085D2700085D2700085D27000880
:100050005D2700085D270008D5150008F915000880
:100060001D16000841160008651600085D270008E7
:100070005D2700085D2700085D2700085D27000850
:100080005D2700085D2700085D2700085D27000840
:100090005D2700085D2700085D2700088916000815
:1000A0005D2700085D2700085D2700085D27000820
:1000B0005D2700085D2700085D2700085D27000810
:1000C0005D2700085D2700085D2700085D27000800
:1000D0005D2700085D2700085D2700085D270008F0
:1000E0005D1700085D270008000000005D2700087C
:1000F0005D2700085D2700085D2700085D270008D0
:100100005D2700085D2700085D2700085D270008BF
:100110005D2700085D2700085D2700085D270008AF
:100120005D2700085D2700085D2700085D2700089F
:1001300010B5054C237833B9044B13B10448AFF321
:1001400000800123237010BD680000200000000023
:100150003436000808B5034B1BB103490348AFF31D
:10016000008008BD000000006C000020343600084C
:1001700081F0004102E000BF83F0004330B54FEA58
:1001800041044FEA430594EA050F08BF90EA020FC5
:100190001FBF54EA000C55EA020C7FEA645C7FEA58
:1001A000655C00F0E2804FEA5454D4EB5555B8BF7B
:1001B0006D420CDD2C4480EA020281EA030382EAEC
:1001C000000083EA010180EA020281EA0303362D7E
:1001D00088BF30BD11F0004F4FEA01314FF4801C51
:1001E0004CEA113102D0404261EB410113F0004F63
:1001F0004FEA03334CEA133302D0524263EB43031A
:1002000094EA050F00F0A780A4F10104D5F1200EB7
:100210000DDB02FA0EFC22FA05F2801841F1000112
:1002200003FA0EF2801843FA05F359410EE0A5F1E6
:1002300020050EF1200E012A03FA0EFC28BF4CF017
:10024000020C43FA05F3C01851EBE37101F00045CD
:1002500007D54FF0000EDCF1000C7EEB00006EEBDA
:100260000101B1F5801F1BD3B1F5001F0CD3490864
:100270005FEA30004FEA3C0C04F101044FEA4452BB
:1002800012F5800F80F09A80BCF1004F08BF5FEA42
:10029000500C50F1000041EB045141EA050130BD22
:1002A0005FEA4C0C404141EB0101013C28BFB1F534
:1002B000801FE9D291F0000F04BF01460020B1FA7F
:1002C00081F308BF2033A3F10B03B3F120020CDA52
:1002D0000C3208DD02F1140CC2F10C0201FA0CF030
:1002E00021FA02F10CE002F11402D8BFC2F1200C95
:1002F00001FA02F120FA0CFCDCBF41EA0C0190404B
:10030000E41AA2BF01EB0451294330BD6FEA040493
:100310001F3C1CDA0C340EDC04F11404C4F120027E
:1003200020FA04F001FA02F340EA030021FA04F390
:1003300045EA030130BDC4F10C04C4F1200220FAE7
:1003400002F001FA04F340EA0300294630BD21FA25
:1003500004F0294630BD94F0000F83F4801306BFEB
:1003600081F480110134013D4EE77FEA645C18BFDF
:100370007FEA655C29D094EA050F08BF90EA020F76
:1003800005D054EA000C04BF1946104630BD91EA6E
:10039000030F1EBF0021002030BD5FEA545C05D171
:1003A0004000494128BF41F0004130BD14F58004B0
:1003B0003CBF01F5801130BD01F0004545F0FE4124
:1003C00041F470014FF0000030BD7FEA645C1ABF59
:1003D000194610467FEA655C1CBF0B46024650EA90
:1003E000013406BF52EA033591EA030F41F40021BC
:1003F00030BD00BF90F0000F04BF0021704730B542
:100400004FF4806404F132044FF000054FF0000116
:1004100050E700BF90F0000F04BF0021704730B5D7
:100420004FF4806404F1320410F0004548BF4042AC
:100430004FF000013EE700BF42004FEAE2014FEA01
:1004400031014FEA02701FBF12F07F4393F07F4FDC
:1004500081F06051704732F07F4208BF704793F0DF
:100460007F4F04BF41F40021704730B54FF46074F2
:1004700001F0004521F000411CE700BF50EA0102F5
:1004800008BF704730B54FF000050AE050EA01029E
:1004900008BF704730B511F0004502D5404261EB0E
:1004A00041014FF4806404F132045FEA915C3FF44F
:1004B000D8AE4FF003025FEADC0C18BF03325FEAEC
:1004C000DC0C18BF033202EBDC02C2F1200300FA9D
:1004D00003FC20FA02F001FA03FE40EA0E0021FAC2
:1004E00002F11444BDE600BF70B54FF0FF0C4CF4B0
:1004F000E06C1CEA11541DBF1CEA135594EA0C0F62
:1005000095EA0C0F00F0DEF82C4481EA030621EA9C
:100510004C5123EA4C5350EA013518BF52EA0335D7
:1005200041F4801143F4801338D0A0FB02CE4FF089
:100530000005E1FB02E506F00042E0FB03E54FF0B9
:100540000006E1FB03569CF0000F18BF4EF0010EB1
:10055000A4F1FF04B6F5007F64F5407404D25FEAAD
:100560004E0E6D4146EB060642EAC62141EA555160
:100570004FEAC52040EA5E504FEACE2EB4F1FD0CA2
:1005800088BFBCF5E06F1ED8BEF1004F08BF5FEA20
:10059000500E50F1000041EB045170BD06F00046D2
:1005A00046EA010140EA020081EA0301B4EB5C047F
:1005B000C2BFD4EB0C0541EA045170BD41F4801177
:1005C0004FF0000E013C00F3AB8014F1360FDEBF9C
:1005D000002001F0004170BDC4F10004203C35DA78
:1005E0000C341BDC04F11404C4F1200500FA05F3FB
:1005F00020FA04F001FA05F240EA020001F000429C
:1006000021F0004110EBD37021FA04F642EB060111
:100610005EEA430E08BF20EAD37070BDC4F10C043B
:10062000C4F1200500FA04F320FA05F001FA04F2FF
:1006300040EA020001F0004110EBD37041F10001EB
:100640005EEA430E08BF20EAD37070BDC4F12005F6
:1006500000FA05F24EEA020E20FA04F301FA05F25E
:1006600043EA020321FA04F001F0004121FA04F206
:1006700020EA020000EBD3705EEA430E08BF20EAD6
:10068000D37070BD94F0000F0FD101F00046400010
:1006900041EB010111F4801F08BF013CF7D041EA92
:1006A000060195F0000F18BF704703F00046520096
:1006B00043EB030313F4801F08BF013DF7D043EA67
:1006C0000603704794EA0C0F0CEA135518BF95EA1D
:1006D0000C0F0CD050EA410618BF52EA4306D1D1A4
:1006E00081EA030101F000414FF0000070BD50EAC3
:1006F000410606BF1046194652EA430619D094EA4D
:100700000C0F02D150EA013613D195EA0C0F05D136
:1007100052EA03361CBF104619460AD181EA03018A
:1007200001F0004141F0FE4141F470014FF0000042
:1007300070BD41F0FE4141F4780170BD70B54FF0DD
:10074000FF0C4CF4E06C1CEA11541DBF1CEA13555D
:1007500094EA0C0F95EA0C0F00F0A7F8A4EB05043F
:1007600081EA030E52EA03354FEA013100F0888036
:100770004FEA03334FF0805545EA131343EA1263FF
:100780004FEA022245EA111545EA10654FEA0026B4
:100790000EF000419D4208BF964244F1FD0404F56D
:1007A000407402D25B084FEA3202B61A65EB0305C9
:1007B0005B084FEA32024FF480104FF4002CB6EB86
:1007C000020E75EB030E22BFB61A754640EA0C0006
:1007D0005B084FEA3202B6EB020E75EB030E22BF46
:1007E000B61A754640EA5C005B084FEA3202B6EB87
:1007F000020E75EB030E22BFB61A754640EA9C0046
:100800005B084FEA3202B6EB020E75EB030E22BF15
:10081000B61A754640EADC0055EA060E18D04FEAD3
:10082000051545EA16754FEA06164FEAC30343EA73
:1008300052734FEAC2025FEA1C1CC0D111F4801F40
:100840000BD141EA00014FF000004FF0004CB6E739
:1008500011F4801F04BF01430020B4F1FD0C88BFD8
:10086000BCF5E06F3FF6AFAEB5EB030C04BFB6EBE3
:10087000020C5FEA500C50F1000041EB045170BDD6
:100880000EF0004E4EEA113114EB5C04C2BFD4EB03
:100890000C0541EA045170BD41F480114FF0000E87
:1008A000013C90E645EA060E8DE60CEA135594EA03
:1008B0000C0F08BF95EA0C0F3FF43BAF94EA0C0F06
:1008C0000AD150EA01347FF434AF95EA0C0F7FF47B
:1008D00025AF104619462CE795EA0C0F06D152EACF
:1008E00003353FF4FDAE1046194622E750EA4106B3
:1008F00018BF52EA43067FF4C5AE50EA41047FF4C4
:100900000DAF52EA43057FF4EBAE12E74FF0FF3C28
:1009100006E000BF4FF0010C02E000BF4FF0010CF9
:100920004DF804CD4FEA410C7FEA6C5C4FEA430C72
:1009300018BF7FEA6C5C1BD001B050EA410C0CBFC1
:1009400052EA430C91EA030F02BF90EA020F002023
:10095000704710F1000F91EA030F58BF994208BF8A
:1009600090422CBFD8176FEAE37040F00100704747
:100970004FEA410C7FEA6C5C02D150EA013C07D19E
:100980004FEA430C7FEA6C5CD6D152EA033CD3D0E9
:100990005DF8040B704700BF8446104662468C46E3
:1009A0001946634600E000BF01B5FFF7B7FF002816
:1009B00048BF10F1000F01BD4DF808EDFFF7F4FF3F
:1009C0000CBF012000205DF808FB00BF4DF808EDCA
:1009D000FFF7EAFF34BF012000205DF808FB00BFED
:1009E0004DF808EDFFF7E0FF94BF012000205DF80F
:1009F00008FB00BF4DF808EDFFF7CEFF94BF0120C4
:100A000000205DF808FB00BF4DF808EDFFF7C4FFBC
:100A100034BF012000205DF808FB00BF4FEA410C05
:100A20007FEA6C5C02D150EA013C0AD14FEA430CE8
:100A30007FEA6C5C02D152EA033C02D14FF0000025
:100A400070474FF0010070474FEA410212F5001263
:100A500015D211D56FF47873B3EB625212D94FEA05
:100A6000C12343F0004343EA505311F0004F23FAEF
:100A700002F018BF404270474FF00000704750EA44
:100A8000013005D111F0004008BF6FF00040704701
:100A90004FF00000704700BF4A0011D212F500125B
:100AA00011D20DD56FF47873B3EB62520ED44FEAC6
:100AB000C12343F0004343EA505323FA02F0704746
:100AC0004FF00000704750EA013002D14FF0FF3084
:100AD00070474FF0000070474FEA4102B2F1E04327
:100AE00024BFB3F5001CDCF1FE5C0DD901F0004C15
:100AF0004FEAC0024CEA5070B2F1004F40EB830065
:100B000008BF20F00100704711F0804F21D113F190
:100B10003872BCBF01F00040704741F480114FEAC9
:100B20005252C2F11802C2F1200C10FA0CF320FA52
:100B300002F018BF40F001004FEAC1234FEAD3236F
:100B400003FA0CFC40EA0C0023FA02F34FEA4303D9
:100B5000CCE77FEA625307D150EA01331EBF4FF062
:100B6000FE4040F44000704701F0004040F0FE407D
:100B700040F40000704700BF80F0004002E000BF7A
:100B800081F0004142001FBF5FEA410392EA030F78
:100B90007FEA226C7FEA236C6AD04FEA1262D2EBC2
:100BA0001363C1BFD218414048404140B8BF5B42C7
:100BB000192B88BF704710F0004F40F4000020F060
:100BC0007F4018BF404211F0004F41F4000121F076
:100BD0007F4118BF494292EA030F3FD0A2F10102C0
:100BE00041FA03FC10EB0C00C3F1200301FA03F1FE
:100BF00000F0004302D5494260EB4000B0F5000F21
:100C000013D3B0F1807F06D340084FEA310102F1DF
:100C10000102FE2A51D2B1F1004F40EBC25008BF91
:100C200020F0010040EA03007047490040EB00005B
:100C3000013A28BFB0F5000FEDD2B0FA80FCACF15C
:100C4000080CB2EB0C0200FA0CF0AABF00EBC25089
:100C500052421843BCBFD0401843704792F0000F77
:100C600081F4000106BF80F400000132013BB5E7CA
:100C70004FEA41037FEA226C18BF7FEA236C21D040
:100C800092EA030F04D092F0000F08BF08467047A5
:100C900090EA010F1CBF0020704712F07F4F04D173
:100CA000400028BF40F00040704712F100723CBF86
:100CB00000F50000704700F0004343F0FE4040F4B0
:100CC000000070477FEA226216BF08467FEA23636E
:100CD0000146420206BF5FEA412390EA010F40F459
:100CE000800070474FF0000304E000BF10F00043A5
:100CF00048BF40425FEA000C08BF704743F096438C
:100D000001464FF000001CE050EA010208BF7047A6
:100D10004FF000030AE000BF50EA010208BF70472D
:100D200011F0004302D5404261EB41015FEA010C42
:100D300002BF84460146002043F0B64308BFA3F13A
:100D40008053A3F50003BCFA8CF2083AA3EBC2531C
:100D500010DB01FA02FC634400FA02FCC2F120023B
:100D6000BCF1004F20FA02F243EB020008BF20F072
:100D70000100704702F1200201FA02FCC2F12002D8
:100D800050EA4C0021FA02F243EB020008BF20EACD
:100D9000DC7070474FF0FF0C1CEAD0521EBF1CEAFB
:100DA000D15392EA0C0F93EA0C0F6FD01A4480EAE9
:100DB000010C400218BF5FEA41211ED04FF00063D2
:100DC00043EA501043EA5111A0FB01310CF00040FE
:100DD000B1F5000F3EBF490041EAD3715B0040EA24
:100DE000010062F17F02FD2A1DD8B3F1004F40EBF4
:100DF000C25008BF20F00100704790F0000F0CF0C7
:100E0000004C08BF49024CEA502040EA51207F3A8A
:100E1000C2BFD2F1FF0340EAC250704740F4000065
:100E20004FF00003013A5DDC12F1190FDCBF00F056
:100E300000407047C2F10002410021FA02F1C2F104
:100E4000200200FA02FC5FEA310040F1000053EAA0
:100E50004C0308BF20EADC70704792F0000F00F0EE
:100E6000004C02BF400010F4000F013AF9D040EAF4
:100E70000C0093F0000F01F0004C02BF490011F488
:100E8000000F013BF9D041EA0C018FE70CEAD15386
:100E900092EA0C0F18BF93EA0C0F0AD030F0004C06
:100EA00018BF31F0004CD8D180EA010000F00040BA
:100EB000704790F0000F17BF90F0004F084691F078
:100EC000000F91F0004F14D092EA0C0F01D14202B2
:100ED0000FD193EA0C0F03D14B0218BF084608D17B
:100EE00080EA010000F0004040F0FE4040F40000C5
:100EF000704740F0FE4040F4400070474FF0FF0C58
:100F00001CEAD0521EBF1CEAD15392EA0C0F93EA9E
:100F10000C0F69D0A2EB030280EA010C49024FEAF0
:100F2000402037D04FF0805343EA111143EA1013A9
:100F30000CF000408B4238BF5B0042F17D024FF461
:100F4000000C8B4224BF5B1A40EA0C00B3EB510F3C
:100F500024BFA3EB510340EA5C00B3EB910F24BF25
:100F6000A3EB910340EA9C00B3EBD10F24BFA3EBAA
:100F7000D10340EADC001B0118BF5FEA1C1CE0D172
:100F8000FD2A3FF650AF8B4240EBC25008BF20F025
:100F9000010070470CF0004C4CEA50207F32C2BF79
:100FA000D2F1FF0340EAC250704740F400004FF016
:100FB0000003013A37E792F0000F00F0004C02BF47
:100FC000400010F4000F013AF9D040EA0C0093F011
:100FD000000F01F0004C02BF490011F4000F013B6B
:100FE000F9D041EA0C0195E70CEAD15392EA0C0FD3
:100FF00008D142027FF47DAF93EA0C0F7FF470AF0B
:10100000084676E793EA0C0F04D14B023FF44CAF4D
:1010100008466EE730F0004C18BF31F0004CCAD1E2
:1010200030F000427FF45CAF31F000437FF43CAF1E
:101030005FE700BF4FEA4002B2F1FE4F0FD34FF01F
:101040009E03B3EB12620DD94FEA002343F0004335
:1010500010F0004F23FA02F018BF404270474FF0E3
:101060000000704712F1610F01D1420205D110F06A
:10107000004008BF6FF0004070474FF0000070471D
:1010800080B400AF094B5B68084A43F48073536037
:10109000064B064ADB6AD362044B9B68034A43F063
:1010A0000203936000BFBD4680BC7047002401402E
:1010B00080B582B000AF03460A46FB711346BB7190
:1010C0001F4B1969FA7913465B001344072202FA91
:1010D00003F31B4A0B431361194B596BF879BB7926
:1010E0005A1E13469B00134400FA03F3144A0B43A1
:1010F0005363134B9B68124A43F0010393604FF410
:101100007A7000F0A7FC0E4B9B680D4A43F0010378
:1011100093604FF47A7000F09DFC094B9B68084A7D
:1011200043F00403936000BF054B9B689B0803F0EA
:101130000103012BF8D000BF00BF0837BD4680BDBA
:101140000024014080B400AF034BDB6C9BB2184617
:10115000BD4680BC704700BF0024014080B485B00C
:1011600000AF03460A46FB711346BB710023FB73B5
:10117000FB79032B02D80023FB7319E0FB79072BC3
:1011800005D80123FB73FB79043BFB7110E0FB796D
:101190000B2B05D80223FB73FB79083BFB7107E09F
:1011A000FB790F2B04D80323FB73FB790C3BFB71FA
:1011B000134AFB7B023352F82320FB799B000F215B
:1011C00001FA03F3DB4318460D49FB7B024002336F
:1011D00041F823200A4AFB7B023352F82320B979D5
:1011E000FB799B0001FA03F318460549FB7B024398
:1011F000023341F8232000BF1437BD4680BC70473E
:101200000000014080B483B000AF0346FB710B4681
:10121000BB7113467B71FB79022B7AD0022B00F352
:10122000B680002B02D0012B3AD0B0E0BB79072B5F
:1012300017D8594B1B68BA7992000F2101FA02F2B4
:10124000D2431146544A0B401360534B1B687979C3
:10125000BA79920001FA02F211464F4A0B43136029
:1012600090E0BB790F2B00F28D80BB79083BBB71FE
:101270004A4B1B68BA7992000F2101FA02F2D2435D
:101280001146464A0B401360444B1B687979BA7982
:10129000920001FA02F21146404A0B43136071E0DA
:1012A000BB79072B17D83E4B1B68BA7992000F21E8
:1012B00001FA02F2D2431146394A0B401360384B0F
:1012C0001B687979BA79920001FA02F21146344A20
:1012D0000B43136058E0BB790F2B55D8BB79083B03
:1012E000BB71304B1B68BA7992000F2101FA02F2F0
:1012F000D24311462B4A0B4013602A4B1B68797965
:10130000BA79920001FA02F21146264A0B431360A1
:101310003AE0BB79072B17D8234B1B68BA799200A8
:101320000F2101FA02F2D24311461F4A0B4013600B
:101330001D4B1B687979BA79920001FA02F21146C5
:10134000194A0B43136021E0BB790F2B1ED8BB79E0
:10135000083BBB71154B1B68BA7992000F2101FA4B
:1013600002F2D2431146114A0B4013600F4B1B6827
:101370007979BA79920001FA02F211460B4A0B43CD
:10138000136003E000BF02E000BF00E000BF00BF49
:101390000C37BD4680BC704700080140040801407E
:1013A000000C0140040C01400010014004100140F9
:1013B00080B483B000AF0346FB710B46BB7113468C
:1013C0007B71FB79022B2AD0022B3FDC002B02D051
:1013D000012B12D03AE07B79012B05D1BB79012298
:1013E0009A401D4B1A602CE07B79002B29D1BB79E8
:1013F00001229A40194B1A6023E07B79012B05D119
:10140000BB7901229A40164B1A601CE07B79002BB5
:1014100019D1BB7901229A40124B1A6013E07B79F3
:10142000012B05D1BB7901229A400F4B1A600CE0C9
:101430007B79002B09D1BB7901229A400B4B1A60B2
:1014400003E000BF02E000BF00E000BF00BF0C37B8
:10145000BD4680BC704700BF100801401408014021
:10146000100C0140140C01401010014014100140F8
:1014700080B485B000AF03460A46FB711346BB71CA
:101480000023FB73FB79022B1AD0022B22DC002BEA
:1014900002D0012B0AD01DE0114B1A68BB7922FA49
:1014A00003F3DBB203F00103FB7313E00D4B1A6887
:1014B000BB7922FA03F3DBB203F00103FB7309E00B
:1014C000094B1A68BB7922FA03F3DBB203F001037C
:1014D000FB7300BFFB7B18461437BD4680BC7047CA
:1014E00008080140080C01400810014080B400AF1A
:1014F000074B9B68064A43F001039360044B1B684B
:10150000034A23F00103136000BFBD4680BC70474F
:101510000004014080B483B000AF03460A46FB716B
:101520001346BB71BB79022B1CD0022B2FDC002B86
:1015300002D0012B0BD02AE01C4B9B68FA790121C9
:1015400001FA02F21146194A0B4393601FE0174B50
:10155000DB68FA79012101FA02F21146134A0B43C2
:10156000D36014E0114B9B68FA79012101FA02F271
:1015700011460E4A0B4393600C4BDB68FA7901214C
:1015800001FA02F21146094A0B43D36000BF074B30
:101590001B68FA79012101FA02F21146034A0B4352
:1015A000136000BF0C37BD4680BC7047000401408B
:1015B00080B483B000AF78600B46FB70FB780449C1
:1015C0007A6841F8232000BF0C37BD4680BC7047C5
:1015D0008400002080B500AF054B1B689847054B81
:1015E0005B69044A43F00103536100BF80BD00BF43
:1015F000840000200004014080B500AF054B5B680B
:101600009847054B5B69044A43F00203536100BFEE
:1016100080BD00BF840000200004014080B500AF01
:10162000054B9B689847054B5B69044A43F00403EC
:10163000536100BF80BD00BF840000200004014052
:1016400080B500AF054BDB689847054B5B69044AE2
:1016500043F00803536100BF80BD00BF8400002039
:101660000004014080B500AF054B1B699847054B4E
:101670005B69044A43F01003536100BF80BD00BFA3
:10168000840000200004014080B582B000AF314BDF
:101690005B695B09DBB203F00103FB712D4B5B69F6
:1016A0009B09DBB203F00103BB712A4B5B69DB09C9
:1016B000DBB203F001037B71264B5B691B0ADBB2D3
:1016C00003F001033B71234B5B695B0ADBB203F060
:1016D0000103FB70FB79012B08D11F4B5B69984715
:1016E0001C4B5B691B4A43F020035361BB79012B00
:1016F00008D1194B9B699847164B5B69154A43F013
:10170000400353617B79012B08D1134BDB69984768
:10171000104B5B690F4A43F0800353613B79012B07
:1017200008D10D4B1B6A98470A4B5B69094A43F481
:1017300080735361FB78012B08D1074B5B6A984794
:10174000044B5B69034A43F40073536100BF0837DD
:10175000BD4680BD000401408400002080B582B0F9
:1017600000AF3B4B5B699B0ADBB203F00103FB71EB
:10177000374B5B69DB0ADBB203F00103BB71344B0F
:101780005B691B0BDBB203F001037B71304B5B69C0
:101790005B0BDBB203F001033B712D4B5B699B0BD1
:1017A000DBB203F00103FB70294B5B699B0BDBB2DF
:1017B00003F00103BB70FB79012B08D1254B9B6A19
:1017C0009847234B5B69224A43F480635361BB799A
:1017D000012B08D11F4BDB6A98471D4B5B691C4AE4
:1017E00043F4006353617B79012B08D1194B1B6BC8
:1017F0009847174B5B69164A43F4805353613B7912
:10180000012B08D1134B5B6B9847114B5B69104A56
:1018100043F400535361FB78012B08D10D4B9B6BB4
:1018200098470B4B5B690A4A43F480435361BB788A
:10183000012B08D1074BDB6B9847054B5B69044ACA
:1018400043F40043536100BF0837BD4680BD00BF6D
:10185000000401408400002080B584B000AF03463E
:101860000A46FB711346BB71BB790133DAB2FB79CF
:1018700011461846FFF7FCFD0346FB73BB79082BA6
:1018800019D1FB7B012B08D1194B01221A70194B7E
:101890001B68013B174A13600AE0FB7B002B07D152
:1018A000134B02221A70134B1B680133114A136049
:1018B000104B1B6818E0FB7B012B08D10E4B01225B
:1018C0001A700E4B1B6801330C4A13600AE0FB7B55
:1018D000002B07D1084B02221A70084B1B68013BF2
:1018E000064A1360054B1B6818461037BD4680BD7D
:1018F000C5000020CC000020C4000020C80000204B
:1019000080B483B000AF0346FB71FB79082B03D191
:10191000074B00221A6005E0FB790A2B02D1054B28
:1019200000221A6000BF0C37BD4680BC704700BF64
:10193000CC000020C800002080B400AF034B4FF063
:1019400000021A6000BFBD4680BC7047D000002076
:1019500080B483B000AF0346FB71FB791F2B05D821
:10196000FB7901229A40094B1A600AE0FB793B2B74
:1019700007D8FB79203BFB71FB7901229A40044B8D
:101980001A6000BF0C37BD4680BC704700E100E024
:1019900004E100E080B400AF054B4FF480321A60E0
:1019A000044B01221A6000BFBD4680BC704700BFD7
:1019B000001002400410024080B483B000AF034620
:1019C0000A46FB711346BB71BB791F2B2AD8FB79E2
:1019D000022B1CD0022B26DC002B02D0012B0BD0BB
:1019E00021E0134B1B68BA79012101FA02F211467A
:1019F0000F4A0B43136016E00E4B1B68BA790121A6
:101A000001FA02F211460B4A0B4313600BE00A4B3A
:101A10001B68BA79012101FA02F21146064A0B430A
:101A2000136000E000BF00BF0C37BD4680BC7047AC
:101A3000141002401C1002401810024080B400AF85
:101A4000034B00221A6000BFBD4680BC704700BF38
:101A500010E000E080B483B000AF7860104A7B688B
:101A600053600F4B1B680E4A43F00103136000BF25
:101A70000B4B1B681B0C03F00103002BF8D0084B29
:101A80001B68074A43F001031360054B00225A60AC
:101A9000034B00229A6000BF0C37BD4680BC7047E4
:101AA00010E000E080B483B000AF786039600D4A88
:101AB0007B6853600B4B1B680A4A43F001031360B9
:101AC000094A3B681360094B01221A70054B1B68D9
:101AD000044A43F00203136000BF0C37BD4680BCCC
:101AE000704700BF10E000E0D4000020D8000020C4
:101AF00080B582B000AF124B1B78002B11D1114B77
:101B00001B68104A23F0020313600E4B1B680D4A3A
:101B100043F0010313600B4B00225A60094B002273
:101B20009A60094B1B689847064B1B681B0CDBB27D
:101B300003F00103FB7100BF0837BD4680BD00BF45
:101B4000D800002010E000E0D400002080B400AFF6
:101B50004FF080431B684FF0804223F01003136066
:101B60004FF080431B684FF0804243F01003136036
:101B70004FF0804308229A624FF08043DB684FF0B9
:101B8000804243F00103D3604FF080431B6A4FF063
:101B9000804243F0100313624FF080439B694FF083
:101BA000804223F4805393614FF080439B694FF050
:101BB000804243F4005393614FF080439B694FF0A0
:101BC000804243F4804393614FF080439B694FF020
:101BD000804223F4006393614FF080431B684FF011
:101BE000804243F0800313604FF080436422DA6246
:101BF0004FF080431B684FF0804243F001031360B5
:101C00004FF080435B694FF0804243F00103536122
:101C100000BFBD4680BC704780B483B000AF0346B0
:101C2000FB80044AFB88136000BF0C37BD4680BCB4
:101C3000704700BF3800004080B400AF244B1B68E1
:101C4000234A23F010031360214B214A1B681360C1
:101C50001F4B08229A621E4BDB681D4A43F00103AA
:101C6000D3601B4B1B6A1A4A43F001031362184BE3
:101C70009B69174A23F010039361154B9B69144A23
:101C800043F020039361124B9B69114A43F04003D8
:101C900093610F4B9B690E4A23F0080393610C4B31
:101CA0001B680B4A43F080031360094B6422DA621D
:101CB000074B1B68064A43F001031360044B5B6942
:101CC000034A43F00103536100BFBD4680BC704727
:101CD0000004004080B483B000AF0346FB80044A98
:101CE000FB88136000BF0C37BD4680BC704700BF47
:101CF0003404004080B500AF02210220FFF75CFEF3
:101D000000210220FFF758FE11210120FFF754FEA9
:101D1000092202210020FFF775FA04220321002086
:101D2000FFF770FA0C4B45229A600B4BDB680A4AAE
:101D300043F00803D360084BDB68074A43F0040311
:101D4000D360054BDB68044A43F40053D360024B75
:101D500000221A6000BF80BD0044004080B483B000
:101D600000AF0346FB710B4AFB79536000BF094B80
:101D70001B689B0903F00103002BF8D0054B1B687F
:101D8000044A23F04003136000BF0C37BD4680BCFB
:101D9000704700BF0044004080B582B000AF78605B
:101DA00007E07B681B781846FFF7D8FF7B68013394
:101DB0007B607B681B78002BF3D100BF00BF083726
:101DC000BD4680BD80B588B000AF786007F10C03D8
:101DD0000A221946786800F005FD07F10C03FB6143
:101DE000F869FFF7D9FF00BF2037BD4680BD00006E
:101DF00080B483B000AF0023FB7100BF074B1B68AA
:101E00005B0903F00103002BF8D0044B5B68FB7106
:101E1000FB7918460C37BD4680BC70470044004033
:101E200080B584B000AF78600023FB730023BB73E0
:101E3000FFF7DEFF0346FB730BE0BB7B7A681344BE
:101E4000FA7B1A70BB7B0133BB73FFF7D1FF0346EC
:101E5000FB73FB7B002BF0D1BB7B18461037BD46D4
:101E600080BD000080B500AF08210020FFF7F4FC22
:101E70000346024A136000BF80BD00BFDC000020A3
:101E800080B500AF0A210120FFF7E6FC0346024AB5
:101E9000136000BF80BD00BFE00000202DE9B0430B
:101EA00082B000AF5348FFF7BBFF03461A46524BC0
:101EB0001A70524B00221A804E4B1B78612B40F057
:101EC00090804C4B5B782D2B4AD10223FB7138E07C
:101ED0004A4BB3F900301846FEF79CFA04460D460B
:101EE000FB79444AD35C303B1846FEF793FA8046B0
:101EF0008946414B1B785A1EFB79D31A1846FEF7C8
:101F000089FA02460B464FF000003D4900F0AEFC56
:101F100002460B4640464946FEF7E6FA02460B46A5
:101F200020462946FEF72AF902460B461046194676
:101F3000FEF78AFD03461AB2304B1A80FB79013353
:101F4000FB712D4B1B78FA799A42C1D32B4BB3F915
:101F500000309BB25B429BB21AB2284B1A8040E021
:101F60000123BB7138E0254BB3F900301846FEF76A
:101F700051FA04460D46BB791E4AD35C303B1846E5
:101F8000FEF748FA804689461B4B1B785A1EBB79E0
:101F9000D31A1846FEF73EFA02460B464FF00000F1
:101FA000174900F063FC02460B4640464946FEF7DF
:101FB0009BFA02460B4620462946FEF7DFF802460A
:101FC0000B4610461946FEF73FFD03461AB20B4B6F
:101FD0001A80BB790133BB71074B1B78BA799A42DF
:101FE000C1D3064BB3F9003018460837BD46BDE8EB
:101FF000B08300BFF4000020F00000200A010020A0
:102000000000244080B582B000AF0023FB80FFF7C2
:1020100045FF03461A46434B1A80424BB3F9003042
:102020009BB25A339BB21AB23F4B1A803E4BB3F964
:102030000030B42B09DD3C4BB3F900309BB2A3F563
:10204000B4739BB21AB2384B1A80374BB3F90030D5
:102050009AB2344BB3F900309BB2D31A9BB2FB80D7
:10206000012200210020FFF7A3F900220521002012
:10207000FFF79EF90F20FFF7CFFD0F20FFF72AFE95
:10208000B7F9063013F1B40F04DAFB8803F5B47323
:102090009BB2FB80B7F90630002B2DDC0020FFF748
:1020A00019FE0020FFF7B8FD0820FFF729FC0A20E1
:1020B000FFF726FC1D48FFF76FFE1D48FFF76CFE7B
:1020C0001C48FFF769FE184BB3F900301846FFF7BC
:1020D00079FE1748FFF760FE1748FFF75DFE174BC4
:1020E0001B681846FEF7A6FF03461846FFF76AFE70
:1020F0000F48FFF751FE11E0FFF7D0FE03461A46E6
:10210000084B1A80084BB3F900309AB2054BB3F96B
:1021100000309BB2D31A9BB2FB80A1E700BF083707
:10212000BD4680BD100100200E0100205036000881
:1021300054360008583600085C360008E8000020D5
:1021400080B582B000AF0023FB80FFF7A7FE0346F7
:102150001A46434B1A80424BB3F900309BB25A3BAC
:102160009BB21AB23F4B1A803E4BB3F9003013F1C9
:10217000B40F09DA3B4BB3F900309BB203F5B473EB
:102180009BB21AB2374B1A80364BB3F900309AB271
:10219000334BB3F900309BB2D31A9BB2FB800022C1
:1021A00000210020FFF704F9012205210020FFF79C
:1021B000FFF80F20FFF730FD0F20FFF78BFDB7F979
:1021C0000630B42B04DDFB88A3F5B4739BB2FB800F
:1021D000B7F90630002B2DDB0020FFF77BFD002038
:1021E000FFF71AFD0820FFF78BFB0A20FFF788FB9B
:1021F0001D48FFF7D1FD1D48FFF7CEFD1C48FFF736
:10220000CBFD184BB3F900301846FFF7DBFD17483C
:10221000FFF7C2FD1748FFF7BFFD174B1B681846B5
:10222000FEF708FF03461846FFF7CCFD0F48FFF7FF
:10223000B3FD11E0FFF732FE03461A46084B1A8041
:10224000084BB3F900309AB2054BB3F900309BB29A
:10225000D31A9BB2FB80A2E700BF0837BD4680BD02
:10226000100100200E0100205036000854360008EE
:10227000583600085C360008E800002080B582B0BF
:1022800000AF00237B6000237B800820FFF738FB32
:102290000A20FFF735FBFFF74FFB40F2FF137B608F
:1022A000FFF7FCFD03461A46314B1A80314BB3F958
:1022B00000309AB22E4BB3F900309BB2D31A9BB2C6
:1022C0001AB22D4B1A802C4BB3F900309BB29B00F5
:1022D0009BB27B80294B1A887B8813449BB218469B
:1022E000FFF79AFC254B1A887B88D31A9BB21846B5
:1022F000FFF7F0FC2248FFF74FFDB7F90230184610
:10230000FFF760FD1F48FFF747FD1F4B1B68002BC1
:10231000B8BF5B421A467B689342C1D80820FFF7DA
:10232000EFFA0A20FFF7ECFA144B00221A80002083
:10233000FFF7D0FC0020FFF76FFC1448FFF72CFDDF
:102340001048FFF729FD1248FFF726FD114B1B68C7
:102350001846FEF76FFE03461846FFF733FD09489F
:10236000FFF71AFD00BF00BF0837BD4680BD00BFA4
:10237000100100200E0100200C01002008010020A7
:102380006036000854360008DC000020643600087F
:102390005C360008E800002098B500AFFEF7D2FEDA
:1023A00003461A46224B1A80214B1B881846FEF71B
:1023B00031F81DA3D3E90023FEF796F802460B4639
:1023C000104619464FF000021A4BFEF7B7F90246C5
:1023D0000B4610461946FEF77FFB0346164A13606C
:1023E000164B1B881A46164B1B8813441846FEF7DB
:1023F0007DFC0246104B1B6819461046FEF7CAFCCE
:1024000003461C460E4B1B881846FEF76FFC03461E
:1024100019462046FEF772FD03461A46094B1A601C
:1024200000BF98BDAFF300806666666666660A40C8
:10243000E40000200000B040EC000020000000207C
:1024400002000020E80000202DE9B04382B000AF78
:10245000FFF7A0FA02210220FFF7AEFA03210220C3
:10246000FFF7AAFA00210220FFF7A6FA00210120B7
:10247000FFF7A2FA01210120FFF79EFA09210220AD
:10248000FFF79AFA0A2201210020FEF7BBFE022282
:1024900000210020FEF7B6FE0A2206210020FEF7EA
:1024A000B1FE022205210020FEF7ACFE0422082125
:1024B0000020FEF7A7FE042209210020FEF7A2FE5D
:1024C00004220A210120FEF79DFE04220B21012097
:1024D000FEF798FE002200210120FEF793FE002166
:1024E0000820FEF73BFE01210A20FEF737FE0A21F5
:1024F0007E48FFF75DF808217D48FFF759F8FEF7A1
:10250000F5FF00210820FFF705F800210A20FFF75A
:1025100001F8FEF7B5FD01210820FEF7C9FD1720DF
:10252000FFF716FA2820FFF713FAFFF787FAFFF7ED
:102530000DFBFFF781FBFFF7DDFB6E496E48FFF7F0
:10254000B1FA0020FFF768FB0020FFF7C3FB6B48E0
:10255000FFF766FC03461A46694B1A70674B1B78F7
:10256000792B40F0A7800020FFF756FB0020FFF7F3
:10257000B1FB624B5B782D2B4CD100220021002057
:10258000FEF716FF002205210020FEF711FF0223AF
:10259000FB7137E05B4B1B881846FDF73BFF044699
:1025A0000D46FB79554AD35C303B1846FDF732FFA8
:1025B00080468946524B1B785A1EFB79D31A18461F
:1025C000FDF728FF02460B464FF000004E4900F091
:1025D0004DF902460B4640464946FDF785FF024647
:1025E0000B4620462946FDF7C9FD02460B4610461C
:1025F0001946FEF751FA03469AB2424B1A80FB790C
:102600000133FB713E4B1B78FA799A42C2D3FFF734
:1026100035FE9CE7012200210020FEF7C9FE0122C1
:1026200005210020FEF7C4FE0123BB7137E0354BC6
:102630001B881846FDF7EEFE04460D46BB792F4A6F
:10264000D35C303B1846FDF7E5FE804689462C4BAF
:102650001B785A1EBB79D31A1846FDF7DBFE0246DB
:102660000B464FF00000284900F000F902460B46E7
:1026700040464946FDF738FF02460B4620462946AC
:10268000FDF77CFD02460B4610461946FEF704FA9C
:1026900003469AB21B4B1A80BB790133BB71184BAE
:1026A0001B78BA799A42C2D3164B1B881846FFF79B
:1026B000E5FD4CE7114B1B786D2B0FD10020FFF788
:1026C000ABFA0020FFF706FB0C4B5B782D2B02D1F9
:1026D000FFF798FC3BE7FFF733FD38E70020FFF7F3
:1026E000F9FA0020FFF798FA31E700BF811E0008D1
:1026F000651E00089923000840420F00F4000020E6
:10270000F000002008010020000024400D4885460C
:10271000AFF300800C480D490D4A002302E0D45865
:10272000C4500433C4188C42F9D30A4A0A4C00231B
:1027300001E013600432A242FBD300F017F8FFF768
:1027400083FEFEE70050002000000020680000200B
:10275000C83600086800002014010020FEE70000D1
:10276000014B1868704700BF0400002070B50026B8
:102770000C4D0D4C641BA410A64209D100F05AFF69
:1027800000260A4D0A4C641BA410A64205D170BD58
:1027900055F8043B98470136EEE755F8043B984757
:1027A0000136F2E7C0360008C0360008C03600081F
:1027B000C4360008931E222B10B50C4604D9002302
:1027C0001C460B70204610BD0A2A09D1002807DAE2
:1027D0002D230B7001214042214400F005F8F1E760
:1027E0000021F9E7FFF7E6BFF0B58BB005460B46D1
:1027F0006E461D4C04F1200C374620686168083491
:1028000003C764453E46F7D1217920683971911E8E
:10281000222938604FF0000104D919700B46184680
:102820000BB0F0BD581E8446B5FBF2F702FB1756FD
:1028300028366E4416F8286C0C460CF8016F2E46AC
:10284000B2423D4601F10101EED900225A54191954
:10285000A51AAA42E3DA10F8015F0E780132067079
:1028600001F80159F4E700BF673600082DE9F84385
:1028700014461D468046894600F062F82246064608
:102880000F462B4620462946FEF7C8F8C8BB002253
:10289000002340464946FEF78FF8B8B100220023D6
:1028A00020462946FEF788F8002841D120462946CF
:1028B00000F03BFE28B30022002320462946FEF705
:1028C00085F8F0B1FFF74CFF222319E03046394676
:1028D00000F02BFEC8B94046494600F026FEA0B1E4
:1028E0002046294600F021FE78B132463B4630466C
:1028F0003946FEF793F80028E4D0FFF731FF212393
:10290000036030463946BDE8F88300220023304694
:102910003946FEF751F80028F3D04046494600F00A
:1029200004FE0028EDD02046294600F0FEFDC8E751
:102930000026014FE5E700BF0000F03F0000000067
:102940002DE9F04F93B0CDE90223DDE9022727F00E
:102950000046894656EA0201804611D1031889F4DF
:10296000002252419942824B934180F0B984DDE9C3
:10297000022340464946FDF701FC83468C466FE042
:102980007C4B29F000449C424D46824606DC01D136
:102990000028ECD19E4201DC0FD172B105F1404517
:1029A00005F5801555EA0A05E1D1DDE90232DB18AB
:1029B00082F4002252419D42D5E7002D39DA6E4B58
:1029C0009E4252DCA3F154739E4240F39C84331523
:1029D000A3F2FF33142B0FDDC3F1340322FA03F10A
:1029E00001FA03F3934240F08E8401F00101C1F13A
:1029F0000203009382B15DE0002A59D1C3F11403B0
:102A000046FA03F101FA03F3B34240F0798401F08E
:102A10000101C1F102030093584B9E4232D1002FB5
:102A200080F26A8442464B4600205449FDF786FEF8
:102A3000A3E700230093002A3CD14E4B9E42EBD1EA
:102A400004F1404303F5801353EA0A0300F048847D
:102A50004B4B9C420BDD002FC0F24884DDE902BCE9
:102A60005846614613B0BDE8F08F0223E2E7002F1D
:102A70004FF0000B4FF0000CF2DADDE902B303F186
:102A8000004CEDE7B7F1804F06D142464B46404639
:102A90004946FDF729FD70E73A4B9F420AD1002DC8
:102AA00008DB4046494613B0BDE8F04F00F05EBC7D
:102AB000002300934046494600F034FD83468C468F
:102AC000BAF1000F28D124B12C4B25F040429A4294
:102AD00022D1002F07DA5A46634600202749FDF726
:102AE0002DFE83468C46002DBADA009B04F140444B
:102AF00004F58014234308D15A466346584661467C
:102B0000FDF73AFB02460B4690E7009B012BA7D14D
:102B10000CF100439C46A3E7EB0F013B0C930C9A8E
:102B2000009B134304D142464B4640464946E7E7E3
:102B3000154B9E4240F3F68003F104739E42104B06
:102B400009DD9C420CDC002F0CDA002013B0BDE83C
:102B5000F04F00F0E2BC9C42F5DB084B9C4215DDD7
:102B6000002FF2DC002013B0BDE8F04F00F0D0BC25
:102B70000000F0FF0000F07FFFFF3F430000F03F48
:102B8000FFFFEF3F0000E03F0000E0416146002210
:102B900058465F4BFDF7F0FA55A3D3E900230446EE
:102BA0000D46FDF7A1FC54A3D3E9002306460F46CA
:102BB00020462946FDF798FC002282468B46204697
:102BC0002946544BFDF790FC02460B464CA1D1E937
:102BD0000001FDF7D1FA22462B46FDF785FC02469F
:102BE0000B4600204C49FDF7C7FA22462B4680468B
:102BF000894620462946FDF777FC02460B464046AB
:102C00004946FDF771FC40A3D3E90023FDF76CFCB6
:102C100002460B4650465946FDF7AEFA4FF0000A01
:102C200002460B4604460D4630463946FDF7A6FAE5
:102C300032463B4650468B46FDF79EFA02460B460F
:102C400020462946FDF798FADDE90267009B0C9AB9
:102C5000013B13434FF000064FF000020CBF2F4B17
:102C60002B4B04460D46DDE90201CDE90023324637
:102C70003B46FDF781FA52465B46FDF735FCDDE940
:102C800002238046894620462946FDF72DFC024650
:102C90000B4640464946FDF771FA32463B468046B0
:102CA000894650465946FDF71FFC04460D460B4623
:102CB000024649464046CDE90245FDF75FFA184B0A
:102CC000824699420F460E4640F3E58201F13F43AA
:102CD00003F5E003034300F0DF81DDE9000100229A
:102CE0000023FDF773FE003818BF01202EE700BF58
:102CF000000000604715F73F44DF5DF80BAE543E1F
:102D0000555555555555D53FFE822B654715F73F0F
:102D10000000F03F0000D03F0000E03F0000F0BFA7
:102D2000FFFF8F40D24B00222B4043B958466146EB
:102D3000D04BFDF7D9FB6FF0340283460C462315C8
:102D4000A3F2FF3313440B93CB4BC4F3130444F0AF
:102D50007F559C4245F4401508DDC84B9C4240F32A
:102D600099810B9BA5F5801501330B930026F30089
:102D70000D93C34B584603EBC603D3E900342946F1
:102D80001A46CDE908342346FDF7F6F9DA462B4614
:102D90005246CDE90E01DDE90801FDF7EFF90246E3
:102DA0000B460020B749FDF7C9FC02460B46CDE9AA
:102DB0001001DDE90E01FDF797FBCDE90601DDE924
:102DC0000634CDE9043400230022AB466D1045F0F3
:102DD0000055049305F50025DDE9048905EB8643DC
:102DE0004046494614461D46FDF77EFB02460B460B
:102DF000DDE90E01FDF7C0F9DDE9082306460F46BF
:102E000020462946FDF7B8F902460B46504659467A
:102E1000FDF7B2F942464B46FDF766FB02460B460C
:102E200030463946FDF7A8F9DDE91023FDF75CFBD4
:102E3000DDE90623CDE9080110461946FDF754FBEC
:102E400079A3D3E9002304460D46FDF74DFB78A393
:102E5000D3E90023FDF792F922462B46FDF744FB08
:102E600075A3D3E90023FDF789F922462B46FDF728
:102E70003BFB73A3D3E90023FDF780F922462B46E1
:102E8000FDF732FB70A3D3E90023FDF777F9224663
:102E90002B46FDF729FB6EA3D3E90023FDF76EF95E
:102EA000224606460F462B4620462946FDF71CFBC8
:102EB00002460B4630463946FDF716FB04460D46E2
:102EC000DDE9060142464B46FDF758F9DDE90823E6
:102ED000FDF70AFB22462B46FDF750F9424606460F
:102EE0000F464B4640464946FDF7FEFA0022664B28
:102EF00082468B46FDF742F932463B46FDF73EF9E6
:102F000000240D4622460B4640464946FDF7ECFAA2
:102F1000002280468946204629465B4BFDF72CF966
:102F200052465B46FDF728F902460B4630463946C5
:102F3000FDF722F9DDE90623FDF7D6FA224606461B
:102F40000F46DDE908012B46FDF7CEFA02460B4697
:102F500030463946FDF712F9002406460F46024670
:102F60000B4640464946FDF709F93BA3D3E9002348
:102F700020460D46FDF7B8FA42464B46CDE906011C
:102F800020462946FDF7F8F802460B4630463946FA
:102F9000FDF7F2F832A3D3E90023FDF7A5FA32A337
:102FA000D3E9002306460F4620462946FDF79CFA42
:102FB00002460B4630463946FDF7E0F80D9A334B92
:102FC0004FF0000A1344D3E90023FDF7D7F88046F9
:102FD0000B988946FDF71EFA04460D460D9A2C4BB8
:102FE0001344D3E900674246DDE906014B46FDF78D
:102FF000C5F832463B46FDF7C1F822462B46FDF7A1
:10300000BDF822462B4650468B46FDF7B5F83246B2
:103010003B46FDF7B1F8DDE90623FDF7ADF80246C2
:103020000B46404649460DE6EF4E454A287ECA3FCC
:1030300065DBC9934A86CD3F01411DA96074D13F2C
:103040004D268F515555D53FFFAB6FDBB66DDB3F3E
:10305000033333333333E33F000000E009C7EE3F6F
:10306000FD033ADC09C7EE3FF5015B14E02F3EBEDD
:103070000000F07F000040438E98030079B60B00FB
:10308000903600080000F03F00000840B03600080D
:10309000A036000801266AE69DA3D3E90023404636
:1030A0004946FDF76BF82246CDE904012B46504610
:1030B0003946FDF761F802460B46DDE90401FDF7EC
:1030C000A3FC00287FF409AEA34A26F000439342F4
:1030D00040F301814FF4801A00201B15A3F2FE3348
:1030E0004AFA03F33344C3F30A529C4FA2F2FF326D
:1030F0001741C3F3130A23EA0701C2F114024AF489
:10310000801A0B464AFA02FA002E02462946204649
:10311000B8BFCAF1000AFDF72FF8CDE90201DDE9D9
:103120000201002442464B46FDF728F87AA3D3E972
:10313000002320460D46FDF7D7F9DDE902230646B8
:103140000F4620462946FDF717F802460B46404633
:103150004946FDF711F872A3D3E90023FDF7C4F93E
:1031600071A3D3E900238046894620462946FDF70E
:10317000BBF902460B4640464946FCF7FFFF0446B2
:103180000D4602460B4630463946FCF7F7FF3246FD
:103190003B4680468946FCF7EFFF02460B46204639
:1031A0002946FCF7E9FF424606460F464B46404695
:1031B0004946FDF799F95EA3D3E9002304460D467D
:1031C000FDF792F95CA3D3E90023FCF7D5FF224673
:1031D0002B46FDF789F95AA3D3E90023FCF7CEFF6C
:1031E00022462B46FDF780F957A3D3E90023FCF7CD
:1031F000C3FF22462B46FDF777F955A3D3E90023F9
:10320000FCF7BCFF22462B46FDF76EF902460B4643
:1032100040464946FCF7B0FF04460D4602460B46C1
:1032200040464946FDF760F90022CDE902014FF022
:10323000804320462946FCF79FFF02460B46DDE906
:103240000201FDF77BFA324604460D463B464046F6
:103250004946FDF749F932463B46FCF78FFF0246E7
:103260000B4620462946FCF787FF42464B46FCF7B3
:1032700083FF02460B4600203949FCF77DFF01EB36
:103280000A54B4F5801F29DA524600F055F9DDE9F9
:103290000023FFF7FEBB334B21F000479F427FF72F
:1032A00013AF314B0B44034309D0DDE90001002289
:1032B0000023FDF78BFB003818BF012053E42246A2
:1032C0002B46FCF759FF42464B46FDF793FB00287F
:1032D0003FF4FAAEE9E74FF0000A20E72146D6E7CF
:1032E0004FF0000BDFF878C0FFF7BABB4FF0000BD0
:1032F0004FF0000CFFF7B4BB40464946FFF73DBB1B
:103300000092FFF789BB0023FFF773BBAFF3008088
:10331000FE822B654715973C00000000432EE63FD8
:10332000EF39FAFE422EE63F396CA80C615C20BEF4
:10333000D0A4BE726937663EF16BD2C541BDBB3EBB
:103340002CDE25AF6A56113F93BDBE166CC1663F99
:103350003E5555555555C53F0000E03FFFFF0F0056
:103360000000F03FFFCB904000346F3FDFF858C1C2
:103370002DE9F0413CEA010C06460D460C460A4692
:10338000074603460FD102460B46FDF7ADF802464D
:103390000B4630462946FCF7F1FE06460D46304600
:1033A0002946BDE8F08100290EDC21F0004C5CEAE2
:1033B0000707F4D041B102460B46FCF7DDFE02469A
:1033C0000B46FDF7BBF9E8E7211575D0CC074FF0A8
:1033D0000004C2F31302A1F2FF3742F480125EBF71
:1033E000D90F5B0001EB4202D90F01EB4202162517
:1033F00020464FF400117F105B0046189642DEBF56
:10340000921B701864185200013D02EBD3724FEA10
:1034100051014FEA4303F0D129464FF0200E4FF0FF
:103420000046824206EB050C02DC13D19C4511D804
:10343000BCF1000F0CEB060543DA002D41DB00F177
:103440000108121A40469C4588BF02F1FF32A3EBE7
:103450000C0331444FEAD37CBEF1010E0CEB420267
:103460004FEA43034FEA5606DBD1134306D0481C0C
:103470000BBF71460131013421F00101631049088D
:1034800003F17F53E20703F5001348BF41F0004109
:103490000E4603EB075582E7DA0A15385B05002A6A
:1034A000FAD0D5020AD5C1F1200423FA04F44D1E46
:1034B0008B402243411B89E70846F0E75200013167
:1034C000EFE78046BDE700BF0000F07F70B504461F
:1034D0000D461646FFF744F929460660204670BDA2
:1034E00037B515461C4680B1104603F10041CDE9C1
:1034F0000001DDE9002328462146FCF7F5FF2222E2
:1035000003B0BDE83040FFF7E1BF10461946EEE7D3
:1035100000224FF08053FFF7E3BF00224FF0E0435B
:10352000FFF7DEBF21F00041704741F0004000F599
:103530008010C00F70470000F8B5C1F30A5604466A
:103540000D4617460B4696B921F00043034339D088
:10355000334B0022FCF7C8FF324B04469F420D4616
:103560000FDA2BA3D3E90023FCF7BEFF06E040F2FD
:10357000FF7296420AD10246FCF700FE04460D4651
:1035800020E00B46C1F30A51A1F1360640F2FE726B
:10359000B91991420EDD05F0004444F0FC4141F4BC
:1035A0005F1141F41051204841F03C011AA3D3E9C6
:1035B0000023D9E7002908DD23F0FF4323F4E003CB
:1035C00043EA015520462946F8BD11F1350F12DABC
:1035D0004CF250339F424FEAD5734FEAC374DCDCA0
:1035E0000BA3D3E9002344F0D27141F4B7310F4863
:1035F00041F01F01B8E723F0FF43363123F4E00325
:1036000043EA0155204629460022094BACE700BF9A
:1036100059F3F8C21F6EA5019C7500883CE4377E03
:1036200000005043B03CFFFF9C75008859F3F8C27E
:103630000000903CF8B500BFF8BC08BC9E4670473F
:0C364000F8B500BFF8BC08BC9E467047FF
:10365000733200000D0A00007000000076000000C8
:10366000740000007331003031323334353637386E
:10367000396162636465666768696A6B6C6D6E6FF9
:10368000707172737475767778797A000000000033
:10369000000000000000F03F000000000000F83FC4
:1036A00000000000000000000000004003B8E23FFE
:1036B000000000000000000006D0CF43EBFD4C3EB0
:0436C00055010008A8
:0436C40031010008C8
:1036C80030754C1D080000200000000000000000BC
:1036D80000000000000000000000000000000000E2
:1036E80000000000000000000000000000000000D2
:1036F80000000000000000000000000000000000C2
:1037080000000000000000000000000000000000B1
:1037180000000000000000000000000000000000A1
:08372800000000000000000099
:040000050800270DBB
:00000001FF
