:020000040800F2
:100000000050002051240008A1240008A124000869
:10001000A1240008A1240008A12400080000000079
:10002000000000000000000000000000A124000803
:10003000A124000800000000A1240008351C0008CD
:10004000A1240008A1240008A1240008A12400087C
:10005000A1240008A1240008091600082D16000894
:10006000511600087516000899160008A12400080A
:10007000A1240008A1240008A1240008A12400084C
:10008000A1240008A1240008A1240008A12400083C
:10009000A1240008A1240008A1240008BD1600081E
:1000A000A1240008A1240008A1240008A12400081C
:1000B000A1240008A1240008A1240008A12400080C
:1000C000A1240008A1240008A1240008A1240008FC
:1000D000A1240008A1240008A1240008A1240008EC
:1000E00091170008A124000800000000A1240008C6
:1000F000A1240008A1240008A1240008A1240008CC
:10010000A1240008A1240008A1240008A1240008BB
:10011000A1240008A1240008A1240008A1240008AB
:10012000A1240008A1240008A1240008A12400089B
:1001300010B5054C237833B9044B13B10448AFF321
:1001400000800123237010BD6C000020000000001F
:10015000484D000808B5034B1BB103490348AFF3F2
:10016000008008BD0000000070000020484D00081D
:1001700081F0004102E000BF83F0004330B54FEA58
:1001800041044FEA430594EA050F08BF90EA020FC5
:100190001FBF54EA000C55EA020C7FEA645C7FEA58
:1001A000655C00F0E2804FEA5454D4EB5555B8BF7B
:1001B0006D420CDD2C4480EA020281EA030382EAEC
:1001C000000083EA010180EA020281EA0303362D7E
:1001D00088BF30BD11F0004F4FEA01314FF4801C51
:1001E0004CEA113102D0404261EB410113F0004F63
:1001F0004FEA03334CEA133302D0524263EB43031A
:1002000094EA050F00F0A780A4F10104D5F1200EB7
:100210000DDB02FA0EFC22FA05F2801841F1000112
:1002200003FA0EF2801843FA05F359410EE0A5F1E6
:1002300020050EF1200E012A03FA0EFC28BF4CF017
:10024000020C43FA05F3C01851EBE37101F00045CD
:1002500007D54FF0000EDCF1000C7EEB00006EEBDA
:100260000101B1F5801F1BD3B1F5001F0CD3490864
:100270005FEA30004FEA3C0C04F101044FEA4452BB
:1002800012F5800F80F09A80BCF1004F08BF5FEA42
:10029000500C50F1000041EB045141EA050130BD22
:1002A0005FEA4C0C404141EB0101013C28BFB1F534
:1002B000801FE9D291F0000F04BF01460020B1FA7F
:1002C00081F308BF2033A3F10B03B3F120020CDA52
:1002D0000C3208DD02F1140CC2F10C0201FA0CF030
:1002E00021FA02F10CE002F11402D8BFC2F1200C95
:1002F00001FA02F120FA0CFCDCBF41EA0C0190404B
:10030000E41AA2BF01EB0451294330BD6FEA040493
:100310001F3C1CDA0C340EDC04F11404C4F120027E
:1003200020FA04F001FA02F340EA030021FA04F390
:1003300045EA030130BDC4F10C04C4F1200220FAE7
:1003400002F001FA04F340EA0300294630BD21FA25
:1003500004F0294630BD94F0000F83F4801306BFEB
:1003600081F480110134013D4EE77FEA645C18BFDF
:100370007FEA655C29D094EA050F08BF90EA020F76
:1003800005D054EA000C04BF1946104630BD91EA6E
:10039000030F1EBF0021002030BD5FEA545C05D171
:1003A0004000494128BF41F0004130BD14F58004B0
:1003B0003CBF01F5801130BD01F0004545F0FE4124
:1003C00041F470014FF0000030BD7FEA645C1ABF59
:1003D000194610467FEA655C1CBF0B46024650EA90
:1003E000013406BF52EA033591EA030F41F40021BC
:1003F00030BD00BF90F0000F04BF0021704730B542
:100400004FF4806404F132044FF000054FF0000116
:1004100050E700BF90F0000F04BF0021704730B5D7
:100420004FF4806404F1320410F0004548BF4042AC
:100430004FF000013EE700BF42004FEAE2014FEA01
:1004400031014FEA02701FBF12F07F4393F07F4FDC
:1004500081F06051704732F07F4208BF704793F0DF
:100460007F4F04BF41F40021704730B54FF46074F2
:1004700001F0004521F000411CE700BF50EA0102F5
:1004800008BF704730B54FF000050AE050EA01029E
:1004900008BF704730B511F0004502D5404261EB0E
:1004A00041014FF4806404F132045FEA915C3FF44F
:1004B000D8AE4FF003025FEADC0C18BF03325FEAEC
:1004C000DC0C18BF033202EBDC02C2F1200300FA9D
:1004D00003FC20FA02F001FA03FE40EA0E0021FAC2
:1004E00002F11444BDE600BF70B54FF0FF0C4CF4B0
:1004F000E06C1CEA11541DBF1CEA135594EA0C0F62
:1005000095EA0C0F00F0DEF82C4481EA030621EA9C
:100510004C5123EA4C5350EA013518BF52EA0335D7
:1005200041F4801143F4801338D0A0FB02CE4FF089
:100530000005E1FB02E506F00042E0FB03E54FF0B9
:100540000006E1FB03569CF0000F18BF4EF0010EB1
:10055000A4F1FF04B6F5007F64F5407404D25FEAAD
:100560004E0E6D4146EB060642EAC62141EA555160
:100570004FEAC52040EA5E504FEACE2EB4F1FD0CA2
:1005800088BFBCF5E06F1ED8BEF1004F08BF5FEA20
:10059000500E50F1000041EB045170BD06F00046D2
:1005A00046EA010140EA020081EA0301B4EB5C047F
:1005B000C2BFD4EB0C0541EA045170BD41F4801177
:1005C0004FF0000E013C00F3AB8014F1360FDEBF9C
:1005D000002001F0004170BDC4F10004203C35DA78
:1005E0000C341BDC04F11404C4F1200500FA05F3FB
:1005F00020FA04F001FA05F240EA020001F000429C
:1006000021F0004110EBD37021FA04F642EB060111
:100610005EEA430E08BF20EAD37070BDC4F10C043B
:10062000C4F1200500FA04F320FA05F001FA04F2FF
:1006300040EA020001F0004110EBD37041F10001EB
:100640005EEA430E08BF20EAD37070BDC4F12005F6
:1006500000FA05F24EEA020E20FA04F301FA05F25E
:1006600043EA020321FA04F001F0004121FA04F206
:1006700020EA020000EBD3705EEA430E08BF20EAD6
:10068000D37070BD94F0000F0FD101F00046400010
:1006900041EB010111F4801F08BF013CF7D041EA92
:1006A000060195F0000F18BF704703F00046520096
:1006B00043EB030313F4801F08BF013DF7D043EA67
:1006C0000603704794EA0C0F0CEA135518BF95EA1D
:1006D0000C0F0CD050EA410618BF52EA4306D1D1A4
:1006E00081EA030101F000414FF0000070BD50EAC3
:1006F000410606BF1046194652EA430619D094EA4D
:100700000C0F02D150EA013613D195EA0C0F05D136
:1007100052EA03361CBF104619460AD181EA03018A
:1007200001F0004141F0FE4141F470014FF0000042
:1007300070BD41F0FE4141F4780170BD70B54FF0DD
:10074000FF0C4CF4E06C1CEA11541DBF1CEA13555D
:1007500094EA0C0F95EA0C0F00F0A7F8A4EB05043F
:1007600081EA030E52EA03354FEA013100F0888036
:100770004FEA03334FF0805545EA131343EA1263FF
:100780004FEA022245EA111545EA10654FEA0026B4
:100790000EF000419D4208BF964244F1FD0404F56D
:1007A000407402D25B084FEA3202B61A65EB0305C9
:1007B0005B084FEA32024FF480104FF4002CB6EB86
:1007C000020E75EB030E22BFB61A754640EA0C0006
:1007D0005B084FEA3202B6EB020E75EB030E22BF46
:1007E000B61A754640EA5C005B084FEA3202B6EB87
:1007F000020E75EB030E22BFB61A754640EA9C0046
:100800005B084FEA3202B6EB020E75EB030E22BF15
:10081000B61A754640EADC0055EA060E18D04FEAD3
:10082000051545EA16754FEA06164FEAC30343EA73
:1008300052734FEAC2025FEA1C1CC0D111F4801F40
:100840000BD141EA00014FF000004FF0004CB6E739
:1008500011F4801F04BF01430020B4F1FD0C88BFD8
:10086000BCF5E06F3FF6AFAEB5EB030C04BFB6EBE3
:10087000020C5FEA500C50F1000041EB045170BDD6
:100880000EF0004E4EEA113114EB5C04C2BFD4EB03
:100890000C0541EA045170BD41F480114FF0000E87
:1008A000013C90E645EA060E8DE60CEA135594EA03
:1008B0000C0F08BF95EA0C0F3FF43BAF94EA0C0F06
:1008C0000AD150EA01347FF434AF95EA0C0F7FF47B
:1008D00025AF104619462CE795EA0C0F06D152EACF
:1008E00003353FF4FDAE1046194622E750EA4106B3
:1008F00018BF52EA43067FF4C5AE50EA41047FF4C4
:100900000DAF52EA43057FF4EBAE12E74FF0FF3C28
:1009100006E000BF4FF0010C02E000BF4FF0010CF9
:100920004DF804CD4FEA410C7FEA6C5C4FEA430C72
:1009300018BF7FEA6C5C1BD001B050EA410C0CBFC1
:1009400052EA430C91EA030F02BF90EA020F002023
:10095000704710F1000F91EA030F58BF994208BF8A
:1009600090422CBFD8176FEAE37040F00100704747
:100970004FEA410C7FEA6C5C02D150EA013C07D19E
:100980004FEA430C7FEA6C5CD6D152EA033CD3D0E9
:100990005DF8040B704700BF8446104662468C46E3
:1009A0001946634600E000BF01B5FFF7B7FF002816
:1009B00048BF10F1000F01BD4DF808EDFFF7F4FF3F
:1009C0000CBF012000205DF808FB00BF4DF808EDCA
:1009D000FFF7EAFF34BF012000205DF808FB00BFED
:1009E0004DF808EDFFF7E0FF94BF012000205DF80F
:1009F00008FB00BF4DF808EDFFF7CEFF94BF0120C4
:100A000000205DF808FB00BF4DF808EDFFF7C4FFBC
:100A100034BF012000205DF808FB00BF4FEA41020F
:100A200012F5001215D211D56FF47873B3EB625240
:100A300012D94FEAC12343F0004343EA505311F067
:100A4000004F23FA02F018BF404270474FF00000F9
:100A5000704750EA013005D111F0004008BF6FF037
:100A6000004070474FF00000704700BF4FEA41025E
:100A7000B2F1E04324BFB3F5001CDCF1FE5C0DD9FC
:100A800001F0004C4FEAC0024CEA5070B2F1004F46
:100A900040EB830008BF20F00100704711F0804F49
:100AA00021D113F13872BCBF01F00040704741F40E
:100AB00080114FEA5252C2F11802C2F1200C10FA12
:100AC0000CF320FA02F018BF40F001004FEAC123F6
:100AD0004FEAD32303FA0CFC40EA0C0023FA02F39A
:100AE0004FEA4303CCE77FEA625307D150EA013370
:100AF0001EBF4FF0FE4040F44000704701F0004040
:100B000040F0FE4040F40000704700BF80F000401D
:100B100002E000BF81F0004142001FBF5FEA4103D5
:100B200092EA030F7FEA226C7FEA236C6AD04FEAD5
:100B30001262D2EB1363C1BFD2184140484041401A
:100B4000B8BF5B42192B88BF704710F0004F40F4CC
:100B5000000020F07F4018BF404211F0004F41F4E8
:100B6000000121F07F4118BF494292EA030F3FD0B4
:100B7000A2F1010241FA03FC10EB0C00C3F12003C7
:100B800001FA03F100F0004302D5494260EB400056
:100B9000B0F5000F13D3B0F1807F06D340084FEAC1
:100BA000310102F10102FE2A51D2B1F1004F40EBB6
:100BB000C25008BF20F0010040EA0300704749001E
:100BC00040EB0000013A28BFB0F5000FEDD2B0FABB
:100BD00080FCACF1080CB2EB0C0200FA0CF0AABFDE
:100BE00000EBC25052421843BCBFD040184370477C
:100BF00092F0000F81F4000106BF80F40000013282
:100C0000013BB5E74FEA41037FEA226C18BF7FEA58
:100C1000236C21D092EA030F04D092F0000F08BF9A
:100C20000846704790EA010F1CBF0020704712F081
:100C30007F4F04D1400028BF40F00040704712F1C0
:100C400000723CBF00F50000704700F0004343F025
:100C5000FE4040F4000070477FEA226216BF08465B
:100C60007FEA23630146420206BF5FEA412390EA1E
:100C7000010F40F4800070474FF0000304E000BF14
:100C800010F0004348BF40425FEA000C08BF7047C5
:100C900043F0964301464FF000001CE050EA010289
:100CA00008BF70474FF000030AE000BF50EA01029E
:100CB00008BF704711F0004302D5404261EB41018B
:100CC0005FEA010C02BF84460146002043F0B643B0
:100CD00008BFA3F18053A3F50003BCFA8CF2083AD5
:100CE000A3EBC25310DB01FA02FC634400FA02FCDE
:100CF000C2F12002BCF1004F20FA02F243EB0200E5
:100D000008BF20F00100704702F1200201FA02FC46
:100D1000C2F1200250EA4C0021FA02F243EB020039
:100D200008BF20EADC7070474FF0FF0C1CEAD0527D
:100D30001EBF1CEAD15392EA0C0F93EA0C0F6FD03E
:100D40001A4480EA010C400218BF5FEA41211ED01C
:100D50004FF0006343EA501043EA5111A0FB013108
:100D60000CF00040B1F5000F3EBF490041EAD371DD
:100D70005B0040EA010062F17F02FD2A1DD8B3F159
:100D8000004F40EBC25008BF20F00100704790F0C8
:100D9000000F0CF0004C08BF49024CEA502040EA1A
:100DA00051207F3AC2BFD2F1FF0340EAC2507047E0
:100DB00040F400004FF00003013A5DDC12F1190F1E
:100DC000DCBF00F000407047C2F10002410021FA90
:100DD00002F1C2F1200200FA02FC5FEA310040F1A8
:100DE000000053EA4C0308BF20EADC70704792F021
:100DF000000F00F0004C02BF400010F4000F013A59
:100E0000F9D040EA0C0093F0000F01F0004C02BF53
:100E1000490011F4000F013BF9D041EA0C018FE7C2
:100E20000CEAD15392EA0C0F18BF93EA0C0F0AD0C8
:100E300030F0004C18BF31F0004CD8D180EA0100EE
:100E400000F00040704790F0000F17BF90F0004F87
:100E5000084691F0000F91F0004F14D092EA0C0F69
:100E600001D142020FD193EA0C0F03D14B0218BFFC
:100E7000084608D180EA010000F0004040F0FE4042
:100E800040F40000704740F0FE4040F440007047DE
:100E90004FF0FF0C1CEAD0521EBF1CEAD15392EA5D
:100EA0000C0F93EA0C0F69D0A2EB030280EA010C4D
:100EB00049024FEA402037D04FF0805343EA1111E6
:100EC00043EA10130CF000408B4238BF5B0042F144
:100ED0007D024FF4000C8B4224BF5B1A40EA0C00E9
:100EE000B3EB510F24BFA3EB510340EA5C00B3EB1B
:100EF000910F24BFA3EB910340EA9C00B3EBD10F09
:100F000024BFA3EBD10340EADC001B0118BF5FEA5A
:100F10001C1CE0D1FD2A3FF650AF8B4240EBC25083
:100F200008BF20F0010070470CF0004C4CEA502044
:100F30007F32C2BFD2F1FF0340EAC250704740F493
:100F400000004FF00003013A37E792F0000F00F085
:100F5000004C02BF400010F4000F013AF9D040EA03
:100F60000C0093F0000F01F0004C02BF490011F497
:100F7000000F013BF9D041EA0C0195E70CEAD1538F
:100F800092EA0C0F08D142027FF47DAF93EA0C0F76
:100F90007FF470AF084676E793EA0C0F04D14B025A
:100FA0003FF44CAF08466EE730F0004C18BF31F00C
:100FB000004CCAD130F000427FF45CAF31F0004306
:100FC0007FF43CAF5FE700BF4FF0FF3C06E000BF9F
:100FD0004FF0010C02E000BF4FF0010C4DF804CDC2
:100FE0004FEA40024FEA41037FEA226C18BF7FEAD2
:100FF000236C11D001B052EA530C18BF90EA010FD4
:1010000058BFB2EB030088BFC81738BF6FEAE17062
:1010100018BF40F0010070477FEA226C02D15FEAFE
:10102000402C05D17FEA236CE4D15FEA412CE1D06A
:101030005DF8040B704700BF844608466146FFE731
:101040000FB5FFF7C9FF002848BF10F1000F0FBD13
:101050004DF808EDFFF7F4FF0CBF012000205DF80C
:1010600008FB00BF4DF808EDFFF7EAFF34BF012091
:1010700000205DF808FB00BF4DF808EDFFF7E0FF2A
:1010800094BF012000205DF808FB00BF4DF808ED7B
:10109000FFF7D2FF94BF012000205DF808FB00BFDE
:1010A0004DF808EDFFF7C8FF34BF012000205DF8C0
:1010B00008FB00BF80B400AF094B5B68084A43F4EB
:1010C00080735360064B064ADB6AD362044B9B680D
:1010D000034A43F00203936000BFBD4680BC7047E3
:1010E0000024014080B582B000AF03460A46FB7180
:1010F0001346BB711F4B1969FA7913465B00134401
:10110000072202FA03F31B4A0B431361194B596B75
:10111000F879BB795A1E13469B00134400FA03F377
:10112000144A0B435363134B9B68124A43F0010369
:1011300093604FF47A7000F029FD0E4B9B680D4AC6
:1011400043F0010393604FF47A7000F01FFD094BE8
:101150009B68084A43F00403936000BF054B9B68FB
:101160009B0803F00103012BF8D000BF00BF083734
:10117000BD4680BD0024014080B400AF034BDB6C52
:101180009BB21846BD4680BC704700BF002401409A
:1011900080B485B000AF03460A46FB711346BB71AD
:1011A0000023FB73FB79032B02D80023FB7319E0A8
:1011B000FB79072B05D80123FB73FB79043BFB71FB
:1011C00010E0FB790B2B05D80223FB73FB79083B5E
:1011D000FB7107E0FB790F2B04D80323FB73FB792A
:1011E0000C3BFB71134AFB7B023352F82320FB7943
:1011F0009B000F2101FA03F3DB4318460D49FB7BEB
:101200000240023341F823200A4AFB7B023352F8A2
:101210002320B979FB799B0001FA03F318460549AD
:10122000FB7B0243023341F8232000BF1437BD4645
:1012300080BC70470000014080B483B000AF03461B
:10124000FB710B46BB7113467B71FB79022B7AD085
:10125000022B00F3B680002B02D0012B3AD0B0E075
:10126000BB79072B17D8594B1B68BA7992000F210D
:1012700001FA02F2D2431146544A0B401360534B19
:101280001B687979BA79920001FA02F211464F4A45
:101290000B43136090E0BB790F2B00F28D80BB797C
:1012A000083BBB714A4B1B68BA7992000F2101FAC7
:1012B00002F2D2431146464A0B401360444B1B686E
:1012C0007979BA79920001FA02F21146404A0B4349
:1012D000136071E0BB79072B17D83E4B1B68BA79B6
:1012E00092000F2101FA02F2D2431146394A0B4013
:1012F0001360384B1B687979BA79920001FA02F2CF
:101300001146344A0B43136058E0BB790F2B55D874
:10131000BB79083BBB71304B1B68BA7992000F2137
:1013200001FA02F2D24311462B4A0B4013602A4BBA
:101330001B687979BA79920001FA02F21146264ABD
:101340000B4313603AE0BB79072B17D8234B1B687C
:10135000BA7992000F2101FA02F2D24311461F4AD4
:101360000B4013601D4B1B687979BA79920001FA22
:1013700002F21146194A0B43136021E0BB790F2B8F
:101380001ED8BB79083BBB71154B1B68BA7992001C
:101390000F2101FA02F2D2431146114A0B401360A9
:1013A0000F4B1B687979BA79920001FA02F2114663
:1013B0000B4A0B43136003E000BF02E000BF00E0F4
:1013C00000BF00BF0C37BD4680BC7047000801401D
:1013D00004080140000C0140040C014000100140D1
:1013E0000410014080B483B000AF0346FB710B468C
:1013F000BB7113467B71FB79022B2AD0022B3FDC99
:10140000002B02D0012B12D03AE07B79012B05D1C1
:10141000BB7901229A401D4B1A602CE07B79002B8E
:1014200029D1BB7901229A40194B1A6023E07B79BC
:10143000012B05D1BB7901229A40164B1A601CE0A2
:101440007B79002B19D1BB7901229A40124B1A608B
:1014500013E07B79012B05D1BB7901229A400F4B18
:101460001A600CE07B79002B09D1BB7901229A40EC
:101470000B4B1A6003E000BF02E000BF00E000BFBA
:1014800000BF0C37BD4680BC704700BF100801404C
:1014900014080140100C0140140C014010100140D0
:1014A0001410014080B485B000AF03460A46FB71BA
:1014B0001346BB710023FB73FB79022B1AD0022B5E
:1014C00022DC002B02D0012B0AD01DE0114B1A6840
:1014D000BB7922FA03F3DBB203F00103FB7313E0E1
:1014E0000D4B1A68BB7922FA03F3DBB203F0010358
:1014F000FB7309E0094B1A68BB7922FA03F3DBB2EC
:1015000003F00103FB7300BFFB7B18461437BD4695
:1015100080BC704708080140080C014008100140D9
:1015200080B400AF074B9B68064A43F00103936009
:10153000044B1B68034A23F00103136000BFBD4640
:1015400080BC70470004014080B483B000AF034604
:101550000A46FB711346BB71BB79022B1CD0022BD0
:101560002FDC002B02D0012B0BD02AE01C4B9B68F8
:10157000FA79012101FA02F21146194A0B439360EC
:101580001FE0174BDB68FA79012101FA02F21146DC
:10159000134A0B43D36014E0114B9B68FA79012185
:1015A00001FA02F211460E4A0B4393600C4BDB68C2
:1015B000FA79012101FA02F21146094A0B43D3607C
:1015C00000BF074B1B68FA79012101FA02F21146AC
:1015D000034A0B43136000BF0C37BD4680BC704705
:1015E0000004014080B483B000AF78600B46FB700C
:1015F000FB7804497A6841F8232000BF0C37BD46C8
:1016000080BC70478800002080B500AF054B1B6888
:101610009847054B5B69044A43F00103536100BFDF
:1016200080BD00BF880000200004014080B500AFED
:10163000054B5B689847054B5B69044A43F002031E
:10164000536100BF80BD00BF88000020000401403E
:1016500080B500AF054B9B689847054B5B69044A12
:1016600043F00403536100BF80BD00BF8800002029
:101670000004014080B500AF054BDB689847054B7F
:101680005B69044A43F00803536100BF80BD00BF9B
:10169000880000200004014080B500AF054B1B69A5
:1016A0009847054B5B69044A43F01003536100BF40
:1016B00080BD00BF880000200004014080B582B0DA
:1016C00000AF314B5B695B09DBB203F00103FB71D7
:1016D0002D4B5B699B09DBB203F00103BB712A4B05
:1016E0005B69DB09DBB203F001037B71264B5B69AD
:1016F0001B0ADBB203F001033B71234B5B695B0AFE
:10170000DBB203F00103FB70FB79012B08D11F4B07
:101710005B6998471C4B5B691B4A43F0200353618C
:10172000BB79012B08D1194B9B699847164B5B6914
:10173000154A43F0400353617B79012B08D1134BC9
:10174000DB699847104B5B690F4A43F08003536194
:101750003B79012B08D10D4B1B6A98470A4B5B69FB
:10176000094A43F480735361FB78012B08D1074B7E
:101770005B6A9847044B5B69034A43F40073536107
:1017800000BF0837BD4680BD00040140880000202E
:1017900080B582B000AF3B4B5B699B0ADBB203F0C4
:1017A0000103FB71374B5B69DB0ADBB203F001031A
:1017B000BB71344B5B691B0BDBB203F001037B7124
:1017C000304B5B695B0BDBB203F001033B712D4BCC
:1017D0005B699B0BDBB203F00103FB70294B5B6978
:1017E0009B0BDBB203F00103BB70FB79012B08D12B
:1017F000254B9B6A9847234B5B69224A43F48063DD
:101800005361BB79012B08D11F4BDB6A98471D4BF5
:101810005B691C4A43F4006353617B79012B08D157
:10182000194B1B6B9847174B5B69164A43F480535F
:1018300053613B79012B08D1134B5B6B9847114BDC
:101840005B69104A43F400535361FB78012B08D1C4
:101850000D4B9B6B98470B4B5B690A4A43F48043E3
:101860005361BB78012B08D1074BDB6B9847054BC5
:101870005B69044A43F40043536100BF0837BD4627
:1018800080BD00BF000401408800002080B483B008
:1018900000AF0346FB71FB79082B02D1044B1B7888
:1018A00001E0044B1B7818460C37BD4680BC7047DE
:1018B000C9000020C800002080B584B000AF0346F6
:1018C0000A46FB711346BB71BB790133DAB2FB796F
:1018D00011461846FFF7E6FD0346FB73BB79082B5C
:1018E00019D1FB7B012B08D1194B01221A70194B1E
:1018F0001B68013B174A13600AE0FB7B002B07D1F2
:10190000134B02221A70134B1B680133114A1360E8
:10191000104B1B6818E0FB7B012B08D10E4B0122FA
:101920001A700E4B1B68013B0C4A13600AE0FB7BEC
:10193000002B07D1084B02221A70084B1B68013399
:10194000064A1360054B1B6818461037BD4680BD1C
:10195000C9000020D0000020C8000020CC000020DA
:1019600080B483B000AF0346FB71FB79082B03D131
:10197000074B00221A6005E0FB790A2B02D1054BC8
:1019800000221A6000BF0C37BD4680BC704700BF04
:10199000D0000020CC00002080B485B000AF78607B
:1019A00039600023FB607A6813461B019B1A9B0079
:1019B00019463A6813461B019B1A1A01D31A064AA4
:1019C000A2FB03239B0CB1FBF3F3FB60FB681846FF
:1019D0001437BD4680BC704783DE1B430000000007
:1019E000B0B582B000AF78601F4B1B681846FEF799
:1019F00023FD04460D467B685B001846FEF70AFD92
:101A000015A3D3E90023FEF76FFD02460B461046EF
:101A100019464FF00002154BFEF766FD02460B46D5
:101A2000104619460EA3D3E90023FEF787FE0246AF
:101A30000B4620462946FEF7A1FB02460B46104600
:101A40001946FFF713F80346074A1360064B1B6855
:101A500018460837BD46B0BD1F85EB51B81E09407A
:101A60000000000000206C40D400002000000C406A
:101A700080B400AF034B4FF000021A6000BFBD46B8
:101A800080BC7047D400002080B483B000AF034610
:101A9000FB71FB791F2B05D8FB7901229A40094B7A
:101AA0001A600AE0FB793B2B07D8FB79203BFB71DE
:101AB000FB7901229A40044B1A6000BF0C37BD46E7
:101AC00080BC704700E100E004E100E080B400AFBA
:101AD000054B4FF480321A60044B01221A6000BF9C
:101AE000BD4680BC704700BF001002400410024099
:101AF00080B483B000AF03460A46FB711346BB7146
:101B0000BB791F2B2AD8FB79022B1CD0022B26DC99
:101B1000002B02D0012B0BD021E0134B1B68BA79AC
:101B2000012101FA02F211460F4A0B43136016E03D
:101B30000E4B1B68BA79012101FA02F211460B4AD9
:101B40000B4313600BE00A4B1B68BA79012101FAC1
:101B500002F21146064A0B43136000E000BF00BFCB
:101B60000C37BD4680BC7047141002401C10024068
:101B70001810024080B400AF034B00221A6000BF6F
:101B8000BD4680BC704700BF10E000E080B483B069
:101B900000AF7860104A7B6853600F4B1B680E4A99
:101BA00043F00103136000BF0B4B1B681B0C03F0D9
:101BB0000103002BF8D0084B1B68074A43F00103D0
:101BC0001360054B00225A60034B00229A6000BF4D
:101BD0000C37BD4680BC704710E000E080B483B095
:101BE00000AF7860094A7B685360084B1B68074A5E
:101BF00043F001031360054B1B68044A43F00203E2
:101C0000136000BF0C37BD4680BC704710E000E099
:101C100080B483B000AF064B5A68054B9B68D31A5B
:101C20007B607B6818460C37BD4680BC704700BFA0
:101C300010E000E080B483B000AF064B1B681B0CC3
:101C4000DBB203F00103FB7100BF0C37BD4680BC63
:101C5000704700BF10E000E080B400AF4FF0804359
:101C60001B684FF0804223F0100313604FF0804355
:101C70001B684FF0804243F0100313604FF0804325
:101C800008229A624FF08043DB684FF0804243F0B5
:101C90000103D3604FF080431B6A4FF0804243F052
:101CA000100313624FF080439B694FF0804223F48E
:101CB000805393614FF080439B694FF0804243F41F
:101CC000005393614FF080439B694FF0804243F48F
:101CD000804393614FF080439B694FF0804223F42F
:101CE000006393614FF080431B684FF0804243F0E4
:101CF000800313604FF080436422DA624FF0804328
:101D00001B684FF0804243F0010313604FF08043A3
:101D10005B694FF0804243F00103536100BFBD4651
:101D200080BC704780B483B000AF0346FB80044A98
:101D3000FB88136000BF0C37BD4680BC704700BFF6
:101D40003800004080B400AF244B1B68234A23F0C6
:101D500010031360214B214A1B6813601F4B08229C
:101D60009A621E4BDB681D4A43F00103D3601B4B94
:101D70001B6A1A4A43F001031362184B9B69174A06
:101D800023F010039361154B9B69144A43F0200321
:101D90009361124B9B69114A43F0400393610F4BCF
:101DA0009B690E4A23F0080393610C4B1B680B4A96
:101DB00043F080031360094B6422DA62074B1B680F
:101DC000064A43F001031360044B5B69034A43F086
:101DD0000103536100BFBD4680BC70470004004052
:101DE00080B483B000AF0346FB80044AFB881360D5
:101DF00000BF0C37BD4680BC704700BF34040040B4
:101E000080B500AF02210220FFF772FE0021022000
:101E1000FFF76EFE11210120FFF76AFE0922022161
:101E20000020FFF709FA042203210020FFF704FA3B
:101E30000D4B40F241329A600B4BDB680A4A43F08B
:101E40000803D360084BDB68074A43F00403D36000
:101E5000054BDB68044A43F40053D360024B002275
:101E60001A6000BF80BD00BF0044004080B483B052
:101E700000AF0346FB710B4AFB79536000BF094B6F
:101E80001B689B0903F00103002BF8D0054B1B686E
:101E9000044A23F04003136000BF0C37BD4680BCEA
:101EA000704700BF0044004080B582B000AF78604A
:101EB00007E07B681B781846FFF7D8FF7B68013383
:101EC0007B607B681B78002BF3D100BF00BF083715
:101ED000BD4680BD80B588B000AF78607868FEF7F9
:101EE000ABFA07F10C03082200F0DCFA07F10C034F
:101EF000FB61F869FFF7D8FF00BF2037BD4680BD02
:101F000080B500AF204B93F90030002B39D1082069
:101F1000FFF7BCFC03461A461C4B1A701C4B1B688F
:101F20001C4A126811461846FFF736FD03461A4A46
:101F30001360174B1B681846FFF752FD0346174AFC
:101F400013600820FFF70CFD0A20FFF79FFC0346F3
:101F50001A46134B1A70134B1B680E4A126811462F
:101F60001846FFF719FD03460F4A13600D4B1B6817
:101F70001846FFF735FD03460C4A13600A20FFF7A9
:101F8000EFFC00BF80BD00BF04000020D80000208F
:101F9000DC00002004010020E0000020E40000201C
:101FA000E8000020EC000020F0000020F4000020F9
:101FB00080B500AF08210020FFF77EFC0346024AEF
:101FC000136000BF80BD00BFDC00002080B500AF03
:101FD0000A210120FFF770FC0346024A136000BF8C
:101FE00080BD00BFEC00002080B500AF1E20FFF7D1
:101FF00099FE1E20FFF7F4FE012205210020FFF7C5
:10200000F1F9012200210020FFF7ECF90C4B1B68CD
:102010000C491846FFF71CF80346002BF6D00020A9
:10202000FFF7DEFE0020FFF77DFE00BF0120FFF777
:102030001DFFFFF71DFD044B00221A7000BF80BD7D
:10204000E400002000008C42050000200000000099
:1020500098B500AFFFF790F803461A46344B1A8044
:10206000334B1B881846FEF7D5F92FA3D3E900237D
:10207000FEF73AFA02460B46104619464FF00002A8
:102080002C4BFEF75BFB02460B4610461946FEF74B
:10209000EDFC0346284A1360284B1B881A46284B40
:1020A0001B8813441846FEF7EBFD0246224B1B68C3
:1020B00019461046FEF738FE03461C46204B1B8887
:1020C0001846FEF7DDFD034619462046FEF7E0FE02
:1020D00003461A461B4B1A601A4B1B681A491846CE
:1020E000FEF722FE03461846FEF7A6F902460B4607
:1020F0001046194602F0A8FD4FF00002134BFEF700
:102100001DFB02460B4610461946FEF7AFFC034680
:102110000C4A13600B4B1B681846FFF7DBFE00BF31
:1021200098BD00BFAFF300808FC2F5285C8F0640DA
:10213000F80000200000B040000100200000002056
:1021400002000020FC0000200000C84200005940AE
:1021500080B500AFFFF7BAFC02210220FFF7C8FCF0
:1021600003210220FFF7C4FC00210220FFF7C0FC7E
:1021700000210120FFF7BCFC01210120FFF7B8FC82
:1021800009210220FFF7B4FC0A2201210020FFF7F9
:1021900053F8022200210020FFF74EF80A22062100
:1021A0000020FFF749F8022205210020FFF744F83C
:1021B000042208210020FFF73FF804220921002013
:1021C000FFF73AF804220A210120FFF735F804222C
:1021D0000B210120FFF730F8002200210120FFF73A
:1021E0002BF800210820FEF7D3FF01210A20FEF77B
:1021F000CFFF08212F48FFF7F5F90A212E48FFF7F6
:10220000F1F9FFF78DF900210820FFF79DF9002172
:102210000A20FFF799F9FEF74DFF01210820FEF78C
:1022200061FF1720FFF730FC2820FFF72DFCFFF798
:10223000A1FCFFF711FDFFF785FDFFF7E1FD1F484A
:10224000FFF7CCFC002205210020FFF7CBF800228D
:1022500000210020FFF7C6F81E20FFF763FD1E20B7
:10226000FFF7BEFDFFF7D4FC0346154A1360144B7D
:102270001B68B3F57A7F0ED3114B1B6840F21A42EC
:10228000934208D8FFF73CFE0E4B1B78012B10D170
:10229000FFF7AAFE0DE0FFF7BBFC03460A4A934294
:1022A000D0D9FFF7B5FC0346084A9342CAD8FFF7D6
:1022B000CFFEC7E7B11F0008CD1F0008C0C62D0024
:1022C00004010020050000203F420F0072420F0071
:1022D00080B400AF01231846BD4680BC704780B56E
:1022E00082B000AF7860396000F000F90346162232
:1022F0001A604FF0FF3318460837BD4680BD80B5E1
:1023000082B000AF78604FF0FF317868FFF7E7FFE9
:10231000FEE780B586B000AFF860B9607A60002350
:102320007B610AE0AFF300800146BB685A1CBA60CB
:10233000CAB21A707B6901337B617A697B689A4201
:10234000F0DB7B6818461837BD4680BD80B586B087
:1023500000AFF860B9607A6000237B6109E0BB6878
:102360005A1CBA601B781846AFF300807B690133B2
:102370007B617A697B689A42F1DB7B681846183783
:10238000BD4680BD80B483B000AF78604FF0FF33AE
:1023900018460C37BD4680BC704780B483B000AF90
:1023A000786039603B684FF400525A600023184649
:1023B0000C37BD4680BC704780B483B000AF7860F6
:1023C000012318460C37BD4680BC704780B485B0E9
:1023D00000AFF860B9607A60002318461437BD4634
:1023E00080BC704780B586B000AF7860144A154B4A
:1023F000D31A7B617B693B61134B1B68002B02D1B5
:10240000114B124A1A60104B1A687B6813443A69E0
:102410009A4207D200F06AF803460C221A604FF085
:10242000FF3309E0084B1B68FB60074B1A687B68A9
:102430001344054A1360FB6818461837BD4680BD33
:1024400000500020000400000801002020010020AE
:102450000D488546AFF300800C480D490D4A002316
:1024600002E0D458C4500433C4188C42F9D30A4A49
:102470000A4C002301E013600432A242FBD300F0B7
:102480003BF8FFF765FEFEE700500020000000204B
:102490006C000020285000086C0000201C01002067
:1024A000FEE70000F0B51C4615460023002285B06B
:1024B00006460F46FEF78AFA234618B12D22013D43
:1024C00003F8012B67220021CDE90053CDE9022159
:1024D000054932463B46086800F0B2F8002814BFB0
:1024E0002046002005B0F0BD08000020014B186810
:1024F000704700BF0800002070B500260C4D0D4C41
:10250000641BA410A64209D102F01EFC00260A4D4D
:102510000A4C641BA410A64205D170BD55F8043BBB
:1025200098470136EEE755F8043B98470136F2E745
:1025300020500008205000082050000824500008B7
:1025400003460244934200D1704703F8011BF9E7A8
:10255000F0B58BB00D4608A9109E049107A9039110
:1025600009A90291711C0191022100919DF844700A
:10257000129C00F02DFE42F20F73099A01469A4216
:1025800004D1284600F072FD0BB0F0BD2B46007858
:10259000002E03F8010BC8BF01242E2011F8015FA3
:1025A0000DB1002E37DC672F46D0472F46D02E21A5
:1025B0003020002E38DC511E0029A8BF2B221846DF
:1025C0000991BEBF2D21C2F10102099200F8027BE0
:1025D000A8BF5A70099AB8BF5970632A0BDD6421ED
:1025E00092FBF1F101F13004D81C9C706FF0630391
:1025F00003FB012209920A22099B93FBF2F202F1EA
:10260000300101706FF0090101FB02333033437078
:1026100000238370B8E70CB103F8010B0C78013E7E
:1026200003F8014B0024B9E70CB103F8011B0024A7
:1026300003F8010B013EBCE76527BCE74527BAE775
:102640002DE9F04390461C468BB08146DDE91275BA
:102650000022002340462146159EFEF7B7F908B137
:1026600004F100440022002340462146FEF7A4F96D
:1026700038B130232B7000236B7028460BB0BDE8B7
:10268000F08340464CA3D3E900232146FEF7A8F986
:1026900060B19DF85030013F0193424623462946E0
:1026A000484602960097FFF753FFE6E7384600F0EA
:1026B00009FC42462346FEF793F90028E9D109AB0D
:1026C000049308AB039307ABCDE9017302234246A1
:1026D00000934846234600F07BFD42F20F73079AB1
:1026E00001469A420FD02B462F44084611F801CBE1
:1026F000079AFC1ABCF1000F01D0002A07DC002168
:102700004FF0300C0CE0284600F0B0FCB5E7013A81
:1027100003F801CB0792E8E7012103F801CB013C64
:10272000002A17462ADC01B107920EB9027812B3CB
:10273000AB4204BF302203F8012B2E22194600279A
:102740004FF0300E1A70079AA2EB030C1CEB010F2E
:102750001CD4002AC2F10001C8BF002101F1010C04
:1027600063440A4407B10792421E12F8011F09B1DF
:10277000002C0FDCDEB900221A707EE7002C02F17B
:10278000FF32C9DC0029D0D00797CEE7012701F836
:1027900001EFDBE703F8011B013CE6E702F8016B00
:1027A000811A0029FADC002CA8BF1B19E3E71A469E
:1027B00030261819F4E700BF2D431CEBE2361A3F10
:1027C00070B5466A04460D4676B9102001F000FB4C
:1027D0000246606220B96621174B184800F04EFC93
:1027E000C0E901660660C660666AF36883B1636A21
:1027F000DB6853F82500B8B9012101FA05F6721D0E
:102800002046920000F07AFB60B1C0E901560EE06C
:1028100021220421204600F071FB636AF060DB682E
:10282000002BE4D1002070BD026843F8252000236E
:10283000C0E90333F7E700BF644D00087B4D000893
:1028400070B5466A05460C4676B9102001F0C0FA0C
:102850000246686220B98A21084B094800F00EFC44
:10286000C0E901660660C6603CB16B6A6268DB68FD
:1028700053F82210216043F8224070BD644D0008D7
:102880007B4D00082DE9F04107460C461E4600200E
:102890000D6901F1140CDCF80030013099B202FB33
:1028A00001611E0C0B0C02FB063389B201EB0341E4
:1028B00085424FEA13464CF8041BECDC0EB3A368C8
:1028C000AB4219DC616838460131FFF779FF804679
:1028D00028B90246B5210C4B0C4800F0CFFB226909
:1028E00004F10C01023292000C3001F079FA214619
:1028F0003846FFF7A5FF444604EB850301355E61CA
:1029000025612046BDE8F081D74D00087B4D0008C9
:10291000020C12040346CAB90304102013F07F4FBF
:1029200004BF1B02083013F0704F04BF1B010430BA
:1029300013F0404F04BF9B000230002B05DB13F067
:10294000804F00F1010008BF202070470020E5E71C
:102950000368024613F007000BD0D90721D498076B
:1029600049BF5B089B08012013605CBF0220136015
:10297000704799B209B910201B0CD9B209B90830B7
:102980001B0A190704BF1B090430990704BF9B08E1
:102990000230D90703D45B0800F1010003D01360B3
:1029A00070470020704720207047000010B50C468B
:1029B0000121FFF705FF024628B94FF4A071044B2F
:1029C000044800F05BFB01234461036110BD00BFBC
:1029D000D74D00087B4D00082DE9F04F91460A695C
:1029E000D9F810300C469A42BEBF0B464C46994669
:1029F0002769D9F810A0A368616807EB0A06B342FB
:102A000085B0B8BF0131FFF7DBFE30B9024640F2B6
:102A10005D11434B434800F031FB00F114052B4698
:102A2000002205EB8608434521D304F1140303EB90
:102A3000870709F1140303EB8A0202923A1B153A45
:102A400022F00302043204F115018F4238BF042240
:102A50000192029A03939A420CD8002E03DD58F893
:102A6000043D002B59D0066105B0BDE8F08F43F856
:102A7000042BD8E7B3F800A0BAF1000F23D0A94681
:102A80004FF0000C04F1140E5EF8042BD9F800107E
:102A90001FFA82FB89B20AFB0B116144D9F800C00E
:102AA000120C4FEA1C4C0AFB02C202EB114289B223
:102AB00041EA024177454FEA124C49F8041BE3D83A
:102AC000019A45F802C0039A0433B2F80290B9F1B2
:102AD000000F20D0AE464FF0000A296804F1140C14
:102AE000BCF800B0BEF8022089B209FB0B22924468
:102AF00041EA0A414EF8041B5CF8042BBEF80010B2
:102B0000120C09FB0211674501EB1A414FEA114A09
:102B1000E6D8019AA95004359BE7013E9DE700BF26
:102B2000D74D00087B4D00082DE9F843154612F0FB
:102B3000030206460F4607D0254C013A002354F8FD
:102B40002220FFF79FFE0746AD103DD0746A7CB986
:102B5000102001F03DF90246706228B94FF4D77198
:102B60001C4B1D4800F08AFAC0E901440460C460AF
:102B7000D6F82480D8F808404CB940F2712130468C
:102B8000FFF714FF00230446C8F8080003604FF065
:102B90000009EB070AD5394622463046FFF71CFFED
:102BA000804639463046FFF74BFE47466D100BD046
:102BB000206838B9224621463046FFF70DFF2060D5
:102BC000C0F800900446E4E73846BDE8F88300BF4B
:102BD000D84E0008644D00087B4D00082DE9F047F1
:102BE0000C46074691462369496803EB6218A368BF
:102BF0004FEA621A08F10106B3420BDB3846FFF7D1
:102C0000DFFD054648B9024640F2D911294B2A4852
:102C100000F034FA01315B00EEE7002300F114010B
:102C200000F110021846534537DB20692AEAEA7A98
:102C300004F1140319F01F0901EB8A0103EB800072
:102C40002FD08A464FF0000CC9F1200E1A6802FA04
:102C500009F242EA0C024AF8042B53F8042B98427A
:102C600022FA0EFCF2D8031B153B23F003030433B6
:102C700004F11502904238BF042341F803C0BCF1AF
:102C8000000F01D008F10206013E384621462E61B0
:102C9000FFF7D6FD2846BDE8F08742F8040F013360
:102CA000C1E7043953F8042B984241F8042FF9D8AE
:102CB000EAE700BFD74D00087B4D000803460A69CC
:102CC000006930B5801A0DD11433143103EB82043E
:102CD00001EB820154F8045D51F8042D954202D0B5
:102CE00004D3012030BDA342F4D3FBE74FF0FF3003
:102CF000F8E700002DE9F84F0D4607461146284633
:102D00001446FFF7DBFF061E11D131463846FFF7A8
:102D100057FD024628B940F232213A4B3A4800F0BA
:102D2000ADF90123C0E904361046BDE8F88FA4BF11
:102D300023462C4638466168A6BF1D46002601265C
:102D4000FFF73EFD024618B94FF410712D4BE5E731
:102D500002F11408C2464FF0000C2769C6602E69C4
:102D600004F1140005F1140900EB870E09EB860647
:102D7000103454F804BF59F8043B1FFA8BF18C440B
:102D800099B21B0CACEB0101C3EB1B4303EB2143DA
:102D900089B24FEA234C4E4541EA03434AF8043BCB
:102DA000E7D8731B153B23F0030315350433AE42FC
:102DB00038BF0423184443441E46054675450ED3C8
:102DC0000EF10301091A21F003010338864538BFCB
:102DD0000021194451F8043D8BB11761A4E755F85F
:102DE000048B1FFA88F161440C1404EB184489B277
:102DF00041EA04414FEA244C46F8041BDEE7013F58
:102E0000E8E700BFD74D00087B4D00082DE9F341EE
:102E10000121DDE9087690461D46FFF7D1FC044606
:102E200030B9024640F20A31244B254800F026F919
:102E3000C5F31303C5F30A552DBB0193B8F1000385
:102E400026D068460093FFF783FD0099F0B1019A00
:102E5000C0F1200302FA03F30B43C2406361019205
:102E6000019B002B14BF02210121A3612161C5B187
:102E7000A5F233450544C0F135003D603060204681
:102E800002B0BDE8F08143F48013D6E76161E7E763
:102E900001A8FFF75DFD0121019B216163612030E5
:102EA000E5E704EB8103A0F2324038601869FFF7D0
:102EB0002FFDC0EB41113160E1E700BFD74D0008A5
:102EC0007B4D00081728D0B5044605DC084800EB08
:102ED000C404D4E90001D0BD002000260549064FF6
:102EE00032463B46FDF700FB013CF9D1F3E700BF5A
:102EF000104E00080000F03F0000244070B5A1FB18
:102F0000025434B9294600F02DF8064628B9304657
:102F100070BD0C2200260260F9E72A462146FFF721
:102F20000FFBF4E770B50E4E0C463168054611B93B
:102F300000F08CF830602146284600F087F8431CEA
:102F40000AD0C41C24F00304A04207D0211A28464A
:102F500000F07CF8013001D14FF0FF34204670BD05
:102F6000100100202DE9F041CD1C25F003050835A6
:102F70000C2D38BF0C25002D074601DBA94205D9D1
:102F80000C2300263B603046BDE8F0812E4E00F059
:102F900035FF33681C4634BB29463846FFF7C2FF6D
:102FA000431C04464DD134682646002E40D1236888
:102FB0003146384604EB030800F048F880453AD122
:102FC000216803356D1A25F0030508350C2D38BF2F
:102FD0000C2538462946FFF7A5FF01302BD0236882
:102FE0002B4423600EE02268521B1ED40B2A16D9F4
:102FF0006119A342256018BF5960636808BF31603A
:1030000062514B60384604F10B0600F0FDFE26F0DD
:103010000706231DF21AB6D09B1BA350B3E76268C4
:10302000A3420CBF32605A60ECE723466468B2E703
:1030300034467668B9E70C2338463B6000F0E4FE7E
:10304000A1E72560DEE700BF0C01002038B50023B2
:10305000054D044608462B60FFF7C4F9431C02D116
:103060002B6803B1236038BD14010020034611F81A
:10307000012B03F8012B002AF9D170471FB5144624
:103080001A46094B05461B68D8684CB1074BCDE979
:10309000013400912B46064900F088FE01F0B0FA99
:1030A000044B1C46F3E700BF08000020E44E000874
:1030B000F14E00081F4F00082DE9F74F03690C6916
:1030C0000746A342C0F28280013C00F1140501F1E1
:1030D000140805EB8403019358F8243055F8242094
:1030E00001339A42B2FBF3F64FEA840B08EB8409F2
:1030F00031D34FF0000E4046AC46F24650F8042B58
:1031000093B206FB03E3120C4FEA134E9BB206FB8D
:1031100002E2AAEB0303DCF800A04FEA124E1FFA0A
:103120008AFA5344DCF800A092B2C2EB1A4202EBD6
:1031300023429BB243EA024381454FEA224A4CF8BC
:10314000043BDBD255F80B302BB9019B043B9D426D
:103150001A462FD33C613846FFF7B0FD002825DB27
:1031600028464FF0000C013658F8041BD0F800E058
:103170008BB2ACEB03031FFA8EF213440A0CC2EBC2
:103180001E4202EB23429BB243EA0243C1454FEA8F
:10319000224C40F8043BE7D255F8242005EB840389
:1031A00022B9043B9D421A460AD33C61304603B023
:1031B000BDE8F08F1268043B002ACBD1013CC6E782
:1031C0001268043B002AF0D1013CEBE70020EEE757
:1031D0002DE9F04F16461F46446A99B00546CDE9E1
:1031E0000467DDF8948074B9102000F0F1FD024608
:1031F000686220B9EA21A84BA848FFF73FFFC0E961
:1032000001440460C4606B6A196851B15A680123B3
:1032100093404A608B602846FFF712FB00226B6ADE
:103220001A603B1EAFBF0023012223F00043059329
:10323000A8BFC8F80030DDF81490994BB8BFC8F8A3
:10324000002033EA090319D142F20F73249A136064
:10325000C9F31303334300F07F85269B53B9914B89
:1032600022E0914B03930833269A1360039819B018
:10327000BDE8F08F8B4B03930333F5E7DDE90434AE
:10328000CDE90C34DDE90C0100220023FDF794FBAD
:10329000804658B10123249A1360269B002B00F02E
:1032A000588582481860431E0393DFE716AB0193ED
:1032B00017AB00932846DDE90C23FFF7A7FDC9F300
:1032C0000A548346002C7FD0DDE90C010D9BA4F24B
:1032D000FF34C3F3130343F07F5141F44011CDF8A1
:1032E0004C800022724BFCF747FF65A3D3E9002313
:1032F000FDF7FAF864A3D3E90023FCF73FFF064685
:1033000020460F46FDF786F861A3D3E90023FDF7B9
:10331000EBF802460B4630463946FCF72FFF0646CF
:103320000F46FDF77BFB00228246002330463946DC
:10333000FDF74CFB48B15046FDF76CF832463B4672
:10334000FDF73AFB08B90AF1FF3ABAF1160F58D85F
:10335000DDE90C01574B03EBCA03D3E90023FDF76A
:1033600035FB00284FD000230AF1FF3A0F93169B3C
:103370001C1B631E099349BFC4F10103002306937C
:10338000002354BF06930993BAF1000F3DDB099B5C
:10339000CDF838A05344099300230A93229B092BAC
:1033A00000F28C80052BC4BF043B2293229BC8BF34
:1033B0000024A3F10203D8BF0124032B00F28A806A
:1033C000DFE803F02D4F4D5BDDE916431C4404F2AA
:1033D0003243202BC3BFC3F1400304F2124009FA69
:1033E00003F3C3F12003C6BF26FA00F0184306FA20
:1033F00003F0FCF7FFFF0123A1F1F871013C1393E7
:103400006FE70123B2E70F90B1E7069BA3EB0A0336
:103410000693CAF100030A9300230E93BEE700232C
:103420000B93239B002B58DC4FF001094B46CDF842
:103430002090CDF88C900022686A4260042202F14C
:1034400014069E4241684ED92846FFF7B9F9039009
:1034500000284CD102464FF4D571174BCCE601231E
:10346000DEE700230B93239B0AEB030909F1010319
:10347000012B0893B8BF0123DDE70123F2E700BF6A
:1034800061436F63A787D23FB3C8608B288AC63F6A
:10349000FB799F501344D33F644D00082F4F000821
:1034A0000000F07F294F0008204F00082E4F000831
:1034B0000000F83F104E0008D74D000801240023FB
:1034C0000B9422934FF0FF3900221223CDF8209065
:1034D0002392B0E701230B93F4E7DDF88C904B4681
:1034E000CDF82090A7E7013141605200A7E76B6A51
:1034F000039A1A60089B0E2B00F2A880002C00F0A3
:10350000A580BAF1000F34DD9A4A0AF00F0302EBEE
:10351000C3031AF4807FD3E90034CDE910344FEAB5
:103520002A1416D0DDE90C01934B0327D3E90823B5
:10353000FDF704F9CDE9040104F00F048E4E54B9EF
:10354000DDE91023DDE90401FDF7F8F8CDE9040118
:1035500029E00227F2E7E10708D5DDE91001D6E905
:103560000023FCF7C1FFCDE91001013764100836D4
:10357000E5E700F0A580DDE90C01CAF100047D4B10
:1035800004F00F0203EBC203D3E90023FCF7ACFF06
:1035900002270023CDE90401774E2411002C40F0CE
:1035A0008480002BD2D10F9B002B00F08B80DDE9B3
:1035B0000434CDE91034DDE9100100226F4BFDF732
:1035C00005FA00287ED0089B002B7BD0B9F1000FB4
:1035D00038DDDDE910010022694BFCF785FF4C4620
:1035E000CDE904010AF1FF3801373846FCF712FF34
:1035F000DDE90423FCF778FF0022624BFCF7BEFDF7
:10360000A1F15076CDE910011196002C5DD1DDE9D4
:10361000040100225C4BFCF7AFFD02460B46CDE9EE
:1036200004233346109AFDF7EFF9002840F09C82FE
:10363000DDE90401109A06F10043FDF7C7F90028FF
:1036400040F09082DDE90C34CDE90434179B002B67
:10365000C0F25281BAF10E0F00F34E81454B03EBDD
:10366000CA03D3E90034CDE90634239B002B80F252
:10367000DB80089B002B00F3D78040F07282DDE9ED
:1036800006010022404BFCF72FFFDDE90423FDF784
:10369000B1F9089C2646002840F048823123039F58
:1036A0000AF1010A07F8013B44E2E20705D5D6E931
:1036B0000023FCF719FF01230137641008366DE77A
:1036C000022770E7D046089C8FE70399294B2144D5
:1036D00012910B9903EBC403DDE9106753E9022350
:1036E000002955D000202949FDF728F83B463246ED
:1036F000FCF742FDCDE91001039FDDE90401FDF770
:103700008DF90446FCF786FE02460B46DDE904010E
:10371000FCF732FD02460B463034CDE90423DDE9E7
:10372000102307F8014BFDF751F9002874D1DDE9AA
:10373000042300201149FCF71FFDDDE91023FDF7EC
:1037400045F9002840F0B780129B9F423FF47AAFC2
:10375000DDE9100100220A4BFCF7C6FE0022CDE98C
:103760001001DDE90401064BFCF7BEFECDE90401C2
:10377000C3E700BF104E0008E84D00080000F03F0E
:103780000000244000001C40000014400000E03F06
:1037900030463946FCF7A8FE129BCDE91001039C88
:1037A0001493DDE90401FDF739F91590FCF732FEB9
:1037B00002460B46DDE90401FCF7DEFC159B0646DC
:1037C000303304F8013B129B0F469C424FF000023D
:1037D00024D1DDE91001B04BFCF7D0FC02460B46CA
:1037E00030463946FDF710F9002863D1DDE9102392
:1037F0000020A949FCF7C0FC02460B46304639467A
:10380000FDF7E4F800283FF41DAF149F7B1E1493CE
:1038100017F8013C302BF8D0C2463BE09F4BFCF739
:1038200063FECDE90401BCE7039FDDE90489DDE91E
:10383000062340464946FCF781FFFDF7EFF80446B2
:10384000FCF7E8FDDDE90623FCF74EFE02460B46D9
:1038500040464946FCF790FC04F1300607F8016B3E
:10386000039EDDF820C0BE1BB44502460B4636D190
:10387000FCF784FCDDE9062380468946FDF7C4F8A1
:1038800058BBDDE9062340464946FDF795F808B1E7
:10389000E10722D428465946FEF7D2FF00233B70A9
:1038A000249B0AF101001860269B002B3FF4DEAC3C
:1038B0001F60DBE427463B461F4613F8012D392ADB
:1038C00007D1039A9A42F7D13022039908F10108EF
:1038D0000A701A7801321A709EE7D046EBE7002290
:1038E0006E4BFCF701FE0022002380468946FDF75F
:1038F00063F800289BD0CDE70B9A002A00F0D08017
:10390000229A012A00F3AE80139A002A00F0A680C2
:1039100003F233430A9C069F069A01211A44069239
:10392000099A28461A440992FFF740F80646002FE4
:103930000CDD099B002B09DDBB42A8BF3B46069A64
:10394000FF1AD21A0692099AD31A09930A9BF3B165
:103950000B9B002B00F0A880002C10DD3146224686
:103960002846FFF7E1F85A46014606462846FFF783
:1039700033F8804659462846FEF762FFC3460A9B45
:103980001A1B04D059462846FFF7CEF8834601217A
:103990002846FFF70BF80E9B0446002B40F3868069
:1039A0001A4601462846FFF7BFF8229B0446012B22
:1039B0007FDD4FF00008236904EB83031869FEF7ED
:1039C000A7FFC0F12000099B184410F01F0000F071
:1039D0009280C0F12003042B40F38A80C0F11C00C8
:1039E000069B074403440693099B03440993069BE3
:1039F000002B05DD59461A462846FFF7EFF88346A7
:103A0000099B002B05DD21461A462846FFF7E6F8FC
:103A100004460F9B002B70D021465846FFF74EF905
:103A200000286ADA002359460A222846FEF72AFFB0
:103A30000B9B83460AF1FF3A002B00F0948131463C
:103A400000230A222846FEF71DFFB9F1000F0646A3
:103A500000F39380229B022B57DC8EE0169BC3F170
:103A6000360357E7089B5C1E0A9BA342B7BF0A9B1D
:103A70001C1BE21A0E9BBEBF0A949B180E93089B58
:103A8000B8BF0024002BBBBF069B089A069F9F1A55
:103A9000ACBF089B00233FE70000E03F000024404C
:103AA0000A9C069F0B9E42E70A9A6BE7229B012B1A
:103AB00019DC049BBBB9059BC3F313039BB9059B9E
:103AC00023F000431B0D1B0583B14FF00108069B3B
:103AD00001330693099B013309930E9B002B7FF45E
:103AE0006AAF01206FE74FF00008F6E79846F4E769
:103AF0003FF47DAF18461C3072E7089B002B36DC84
:103B0000229B022B33DDDDF82090B9F1000F0DD19F
:103B100021464B4605222846FEF7B4FE01460446E0
:103B20005846FFF7CBF800283FF7B8AD239B039F1B
:103B30006FEA030A4FF0000821462846FEF780FE90
:103B4000002E3FF4A7AEB8F1000F05D0B04503D06A
:103B500041462846FEF774FE31462846FEF770FEC1
:103B600098E600242646E1E7C246264696E50B9BEA
:103B7000DDF82090002B00F0FD80002F05DD3146A0
:103B80003A462846FFF72AF80646B8F1000F5CD0FF
:103B900028467168FEF714FE074628B9024640F22F
:103BA000EA217F4BFFF728BB326906F10C01023294
:103BB00092000C3000F014F9012239462846FFF734
:103BC0000DF8B0460646039B01330893039B4B4414
:103BD0000A93049B03F001030993089B2146013BD0
:103BE00058460493FFF768FA03464146303306907F
:103BF00058460B93FFF762F8324681462146284625
:103C0000FFF778F8C26807460B9B02BB014658468F
:103C1000FFF754F802460B9B39462846CDE90B3294
:103C2000FEF70EFE229B0C9A089F43EA0201099BB5
:103C30000B430B9B0DD1392B29D0B9F1000F01DDBE
:103C4000069B3133049A137076E73046B9E70122B8
:103C5000E2E7B9F1000F06DB229941EA0909099967
:103C600059EA010120D1002AECDD594601222846FB
:103C70000893FEF7B3FF21468346FFF71FF800289D
:103C8000089B02DCDED1DA07DCD5392BD8D1392309
:103C9000049A13703B461F4617F8012C013B392A42
:103CA00050D001321A7047E7002A03DD392BEED0DD
:103CB0000133C7E7089A0A9902F8013C8A422AD0E0
:103CC000594600230A222846FEF7DCFDB04583460C
:103CD0004FF000034FF00A024146284607D1FEF795
:103CE000D1FD80460646089B0133089375E7FEF731
:103CF000C9FD3146804600230A222846FEF7C2FD50
:103D00000646F0E7B9F1000FCCBF4F4601274FF050
:103D10000008039A17445946012228460893FEF7E3
:103D20005DFF21468346FEF7C9FF0028B2DC02D1C1
:103D3000089BDB07AED43B461F4613F8012D302A03
:103D4000FAD0F9E6039A9A42A5D131230AF1010A81
:103D500079E7144BFFF7A8BA269B002B7FF481AAC2
:103D6000114BFFF7A1BAB9F1000F03DC229B022B24
:103D70003FF7CBAE039F21465846FFF79DF9039AC4
:103D800000F1300307F8013BBA1A9145BADD5946F4
:103D900000230A222846FEF775FD8346EBE700BFA5
:103DA000D74D00082D4F0008204F00080EB403B572
:103DB000014603AB054853F8042B0068019300F05B
:103DC00099F802B05DF804EB03B0704708000020DA
:103DD000024B01461868FFF7C5B800BF0800002075
:103DE0000A44914200F1FF3300D1704710B511F839
:103DF000014B914203F8014FF9D110BD014800F089
:103E0000BBBD00BF18010020014800F0B6BD00BFD7
:103E10001801002038B50546002940D051F8043C6F
:103E20000C1F002BB8BFE418FFF7E8FF1C4A13680B
:103E300033B9636014602846BDE83840FFF7E4BF3B
:103E4000A34208D9206821188B4201BF19685B681A
:103E500009182160EDE71A465B680BB1A342FAD955
:103E600011685018A0420BD12068014450188342B9
:103E70001160E0D118685B68014411605360DAE7B3
:103E800002D90C232B60D6E7206821188B4201BF92
:103E900019685B680918216063605460CBE738BD1E
:103EA0000C010020936810B4013B002B936007DAEB
:103EB0009469A34201DB0A2902D110BC00F0E0BAE8
:103EC0001368581C10601970084610BC7047F8B58C
:103ED00006460F461446D518AC4201D1002007E033
:103EE0003A46304614F8011BFFF7DCFF431CF3D1C0
:103EF000F8BD00002DE9F04F0D46144698460646E1
:103F00009DB018B183690BB900F098FC894B9D42B4
:103F10001BD175686B6ED90705D4AB899A0502D49D
:103F2000A86D00F029FDAB891B0701D52B69EBB902
:103F30002946304600F0F6FAC0B16B6EDC070ED5AC
:103F40004FF0FF301DB0BDE8F08F7B4B9D4201D19B
:103F5000B568DFE7794B9D4208BFF568DAE7AB89C2
:103F60009805EDD4A86D00F008FDE9E7002309935A
:103F700020238DF8293030234FF00109CDF80C8033
:103F8000DFF8BC818DF82A3023469A4613F8012BBE
:103F90000AB1252AF9D1BAEB040B0BD05B462246B5
:103FA00029463046FFF793FF013000F0AA80099AB6
:103FB0005A4409929AF80030002B00F0A2800023A6
:103FC0004FF0FF32CDE905230AF1010A049307936C
:103FD0008DF853301A935446052214F8011B5848A3
:103FE00000F032FD049AD8B9D10644BF20238DF8E1
:103FF0005330130744BF2B238DF853309AF8003009
:104000002A2B15D0544600204FF00A0C079A21465F
:1040100011F8013B303B092B4ED9B0B1079214E0A7
:10402000A0EB080309FA03F31343A2460493D2E773
:10403000039B191D1B680391002BBBBF5B4242F021
:10404000020207930793B8BF049223782E2B0CD15A
:1040500063782A2B35D1039B02341A1D1B68039207
:10406000002BB8BF4FF0FF330593DFF8D8A0032231
:104070005046217800F0E8FC40B14023A0EB0A0054
:1040800003FA00F0049B01340343049314F8011B6A
:1040900006222D488DF8281000F0D6FC00283FD0CD
:1040A0002A4B1BBB039B073323F0070308330393FF
:1040B000099B3B44099367E70C4601200CFB023245
:1040C000A5E700234FF00A0C19460134059320465A
:1040D00010F8012B303A092A03D9002BC5D00591DD
:1040E000C3E7044601230CFB0121F0E703AB009377
:1040F0002A463046164B04A9AFF300800746781CC9
:10410000D6D16B6ED90705D4AB899A0502D4A86DB8
:1041100000F033FCAB895B063FF512AF099811E75D
:1041200003AB00932A463046094B04A900F082F8FD
:10413000E4E700BFE04F000800500008C04F00084F
:104140008A4F0008904F0008944F000800000000BC
:10415000CF3E00082DE9F047164699468A680B695C
:1041600007469342B8BF1346336091F843200C468C
:10417000DDF820800AB1013333602368990642BF1D
:10418000336802333360256815F0060506D104F163
:10419000190AE36832689B1AAB4228DC94F8432082
:1041A000131E226818BF012392062DD449463846B3
:1041B00004F14302C047013020D02368E56803F0D2
:1041C0000603042B18BF002532684FF00006A368D1
:1041D00008BFAD1A226908BF25EAE5759342C4BF3E
:1041E0009B1AED181A34B5421AD1002008E00123B9
:1041F000524649463846C047013003D14FF0FF30A0
:10420000BDE8F0870135C4E73020E11881F84300AC
:104210005A1C94F845102244023382F84310C5E733
:104220000123224649463846C0470130E6D00136D0
:10423000D9E700002DE9FF470F7E9146782F804691
:104240000C469A460C9D01F1430207D8622F0AD80A
:10425000002F00F0D980582F00F0A48004F142050F
:1042600084F842703AE0A7F16303152BF6D801A158
:1042700051F823F0CD420008E14200085D420008F9
:104280005D4200085D4200085D420008E14200080E
:104290005D4200085D4200085D4200085D42000882
:1042A000EF43000811430008D14300085D420008B5
:1042B0005D420008114400085D42000811430008F7
:1042C0005D4200085D420008D94300082B681A1DB2
:1042D0001B682A6004F1420584F842300123A4E0FF
:1042E00020682968060601F104030AD50E682B60D0
:1042F000002E03DA2D23764284F843300A235E48E9
:1043000019E00E6810F0400F2B6018BF36B2EFE7CF
:104310002B682068191D2960010601D51E6802E07E
:104320004606FBD51E886F2F0CBF08230A23524870
:10433000002184F843106568002DA8BF2168A5609E
:10434000A4BF21F0040121600EB9002D4DD0154607
:10435000B6FBF3F103FB1167C75D05F8017D374636
:10436000BB420E46F4D9082B0BD12368DE0708D5D3
:10437000236961689942DEBF302305F8013C05F1ED
:10438000FF35521B22614B4621464046CDF800A026
:1043900003AAFFF7DFFE01304CD14FF0FF3004B02D
:1043A000BDE8F087344881F845702968236851F8E2
:1043B000046B29601D0614D5DF0744BF43F02003BA
:1043C00023601EB9236823F0200323601023AFE786
:1043D000236843F0200323607823284884F845307D
:1043E000E3E7590648BFB6B2E6E71546BBE72B68D8
:1043F0002668181D6169286035061B6801D519609B
:1044000002E07006FBD51980002315462361BAE748
:104410002B6800211A1D2A601D686268284600F07A
:1044200013FB08B1401B606063682361002384F8BC
:104430004330A8E72A46494640462369D047013021
:10444000ABD023689B0713D4E068039B9842B8BFA6
:104450001846A4E70123324649464046D04701307A
:104460009BD00135E36803995B1AAB42F2DCEBE7C2
:10447000002504F11906F5E79B4F0008AC4F000832
:10448000F8B50E461446054618B183690BB900F01D
:10449000D5F9214B9C422BD16C68A369A360A389F9
:1044A0001A072FD523696BB323692068F6B2C01AA7
:1044B00063693746834204DC2146284600F02AF926
:1044C00030BBA3680130013BA36023685A1C226003
:1044D0001E706369834204D0A389DB0706D50A2EC8
:1044E00004D12146284600F015F988B93846F8BDB0
:1044F0000A4B9C4201D1AC68CFE7094B9C4208BFF4
:10450000EC68CAE72146284600F00CF80028CBD01A
:104510004FF0FF37EAE700BFE04F00080050000807
:10452000C04F0008324B70B51D6806460C4625B1D9
:10453000AB6913B9284600F081F92E4B9C420FD18C
:104540006C68A389B4F90C2019072CD4DD0611D4AA
:104550000923336042F040034FF0FF30A3813EE077
:10456000254B9C4201D1AC68EBE7244B9C4208BF31
:10457000EC68E6E7580712D5616B41B104F14403DA
:10458000994202D03046FFF745FC00236363A389BC
:1045900023F02403A3810023636023692360A3899C
:1045A00043F00803A38123694BB9A38903F4207363
:1045B000B3F5007F03D02146304600F005FAA0890C
:1045C000B4F90C2010F001030AD00023A360636942
:1045D0005B42A361236943B910F08000BAD170BD7A
:1045E000810758BF6369A360F4E70020F7E700BFC5
:1045F00008000020E04F000800500008C04F0008ED
:10460000062008B500F056FA0120FDF778FE0000FC
:104610008A89F8B5054610070C4657D44B68002B1D
:1046200004DC0B6C002B01DC0020F8BDE66A002ED8
:10463000FAD0002312F480522F682B6032D0606DC4
:10464000A3895A0705D56368C01A636B0BB1236C45
:10465000C01A00230246E66A2846216AB047431C76
:10466000A38906D129681D292CD8294ACA40D60712
:1046700028D5002262602269D904226004D5421C38
:1046800001D12B6803B96065616B2F600029CBD025
:1046900004F14403994202D02846FFF7BBFB0020F7
:1046A0006063C2E7216A01232846B047411CC7D195
:1046B0002B68002BC4D01D2B01D0162B01D12F60ED
:1046C000B2E7A38943F04003A381AEE70F69002F4F
:1046D000AAD0930718BF00230E6808BF4B69F61BCA
:1046E0000F608B60002E9FDD33463A462846216AD4
:1046F000D4F828C0E047002806DCA3894FF0FF303B
:1047000043F04003A38190E70744361AEAE700BF6D
:104710000100402038B50B6905460C4613B9002549
:10472000284638BD18B183690BB900F087F8144BDF
:104730009C421BD16C68B4F90C30002BEFD0626E38
:10474000D00704D4990502D4A06D00F015F92846CD
:104750002146FFF75DFF636E0546DA07E0D4A389C3
:104760009B05DDD4A06D00F008F9D9E7054B9C420C
:1047700001D1AC68DFE7044B9C4208BFEC68DAE784
:10478000E04F000800500008C04F0008002310B59B
:104790000446C0E90033C0E9043383608181436685
:1047A000C2818361194608225C30FDF7C9FE054BC2
:1047B00024626362044BA362044BE362044B2363F1
:1047C00010BD00BFED4A00080F4B0008474B000822
:1047D0006B4B0008014900F0AFB800BF1547000857
:1047E000682270B54D1E55430E4605F17401FEF763
:1047F000B9FB044640B10021C0E900160C30A060AE
:1048000005F16802FDF79CFE204670BD014800F0EE
:10481000B3B800BF19010020014800F0AEB800BFD6
:1048200019010020014800F0A7B800BF1A010020BC
:10483000014800F0A2B800BF1A01002010B50446DC
:10484000FFF7F0FFA3691BB1BDE81040FFF7F0BF11
:10485000C4E912332365134B134A1B68A262A342B7
:1048600008BF0123204608BFA36100F01FF8606065
:10487000204600F01BF8A060204600F017F8002248
:104880000421E0606068FFF781FF01220921A06830
:10489000FFF77CFF02221221E068FFF777FF012378
:1048A000A361D1E7604D0008D5470008F8B5074679
:1048B000FFF7ACFF1E4B1E68B36913B93046FFF714
:1048C000BDFF4836D6E90134013B03D533680BB34D
:1048D0003668F7E7B4F90C50D5B9164B04F1580017
:1048E000E360656600F047F8FFF796FF0822294667
:1048F000C4E90155C4E904552560A56104F15C00D3
:10490000FDF71EFEC4E90D55C4E912552046F8BD59
:104910006834D9E704213846FFF762FF0446306067
:104920000028D5D1FFF778FF0C233B60EEE700BFEE
:10493000604D00080100FFFF2DE9F8430646884658
:10494000002700F14804D4E90195B9F1010905D522
:104950002468002CF7D13846BDE8F883AB89012BD9
:1049600007D9B5F90E30013303D029463046C04788
:1049700007436835E9E770477047704770B50E46E2
:10498000B1F90E10144600291D4696B008DA00222F
:10499000B6F90C302A601A0610D44FF480630EE08A
:1049A0006A4600F009F90028F1DB019A02F470422E
:1049B000A2F500535A425A412A60EEE740230020F4
:1049C000236016B070BD00008B8973B59D07064645
:1049D0000C4607D504F1470323602361012363617B
:1049E00002B070BD6A4601ABFFF7C8FF00990546EB
:1049F0003046FEF7B7FA48B9B4F90C309A05EFD44F
:104A000023F0030343F00203A381E3E70D4BB362FA
:104A1000A389206043F08003A381009B2061636130
:104A2000019B5BB13046B4F90E1000F0D7F828B105
:104A3000A38923F0030343F00103A381A089054365
:104A4000A581CDE7D5470008034610B5C9B2024499
:104A50009342184601D1002003E0047801338C42D0
:104A6000F6D110BD1F2938B504460D4604D91623CA
:104A700003604FF0FF3038BD426C12B152F8213064
:104A80004BB9204600F030F82A4601462046BDE8E2
:104A9000384000F017B8012B0AD0591C03D1162357
:104AA00003600120E7E70024284642F825409847A4
:104AB0000020E0E7024B01461868FFF7D3BF00BFB4
:104AC0000800002038B50023064D0446084611466C
:104AD0002B60FDF704FC431C02D12B6803B123605B
:104AE00038BD00BF14010020FDF7F2BB10B50C4625
:104AF000B1F90E1000F094F80028ABBF636DA389E4
:104B00001B1823F48053ACBF6365A38110BD2DE94E
:104B1000F0411F468B890546DB050C46164605D538
:104B200002230022B1F90E1000F068F8A389324682
:104B300023F48053A38128463B46B4F90E10BDE808
:104B4000F04100F017B810B50C46B1F90E1000F0A6
:104B500055F8431CA38915BF606523F4805343F4C3
:104B60008053A38118BFA38110BDB1F90E1000F0CE
:104B700013B8000038B50446084611460022054D1A
:104B80002A601A46FDF7E2FB431C02D12B6803B1F1
:104B9000236038BD1401002038B50023054D0446BC
:104BA00008462B60FDF7EEFB431C02D12B6803B1D6
:104BB000236038BD1401002038B50023064D04469B
:104BC000084611462B60FDF7E8FB431C02D12B6819
:104BD00003B1236038BD00BF1401002038B50023A5
:104BE000054D044608462B60FDF7E6FB431C02D149
:104BF0002B6803B1236038BD1401002038B504468A
:104C0000084611460022054D2A601A46FDF7DEFBD4
:104C1000431C02D12B6803B1236038BD140100206E
:104C200038B50446084611460022054D2A601A464A
:104C3000FDF76FFB431C02D12B6803B1236038BD25
:104C400014010020000000002DE9F843C1F30A58C8
:104C5000A8F2FF36132E02460B4607460C460546C1
:104C600033DC002E14DA34A3D3E90023FBF786FAF1
:104C700000220023FBF7C8FE38B1002C58DA24F0DC
:104C800000431D4301D000252D4C23462F4625E02F
:104C90002C4A42FA06F801EA080202431ED026A373
:104CA000D3E90023FBF76AFA00220023FBF7ACFEEE
:104CB0000028EAD0002CBEBF4FF4801343FA06F65A
:104CC000A419002524EA0804DFE7332E0ADDB6F52F
:104CD000806F03D1FBF752FA07460B463846194658
:104CE000BDE8F8834FF0FF32A8F2134822FA08F823
:104CF00018EA000FF2D010A3D3E90023FBF73EFA25
:104D000000220023FBF780FE0028BED0002C02DA30
:104D1000142E03D1013425EA0805B6E70123C6F1B4
:104D2000340603FA06F63544BD4238BFE418F2E70C
:104D300000252C46A9E700BF9C7500883CE4377E1F
:104D40000000F0BFFFFF0F00F8B500BFF8BC08BCC3
:104D50009E467047F8B500BFF8BC08BC9E46704739
:104D60000C0000205245454E54206D616C6C6F6301
:104D700020737563636565646564002F6275696C93
:104D8000642F676E752D746F6F6C732D666F722D47
:104D900073746D33325F31302E332D323032312E19
:104DA00031302E32303231313130352D31313030F9
:104DB0002F7372632F6E65776C69622F6E65776CE7
:104DC00069622F6C6962632F7374646C69622F6D02
:104DD000707265632E630042616C6C6F6320737543
:104DE00063636565646564000080E03779C34143AF
:104DF000176E05B5B5B89346F5F93FE9034F384D41
:104E0000321D30F94877825A3CBF737FDD4F1575EC
:104E1000000000000000F03F0000000000002440FF
:104E200000000000000059400000000000408F40DA
:104E3000000000000088C34000000000006AF84045
:104E40000000000080842E4100000000D012634169
:104E50000000000084D797410000000065CDCD41DF
:104E6000000000205FA00242000000E876483742C0
:104E7000000000A2941A6D42000040E59C30A2425E
:104E80000000901EC4BCD64200003426F56B0C43D3
:104E90000080E03779C3414300A0D885573476437A
:104EA00000C84E676DC1AB43003D9160E458E143DB
:104EB000408CB5781DAF154450EFE2D6E41A4B4450
:104EC00092D54D06CFF08044F64AE1C7022DB54495
:104ED000B49DD9794378EA44050000001900000028
:104EE0007D0000002C2066756E6374696F6E3A2039
:104EF00000617373657274696F6E202225732220BE
:104F00006661696C65643A2066696C652022257368
:104F1000222C206C696E65202564257325730A0098
:104F2000496E66696E697479004E614E0030002FDB
:104F30006275696C642F676E752D746F6F6C732D5D
:104F4000666F722D73746D33325F31302E332D32B4
:104F50003032312E31302E32303231313130352D48
:104F6000313130302F7372632F6E65776C69622F29
:104F70006E65776C69622F6C6962632F7374646C01
:104F800069622F64746F612E6300232D302B200023
:104F9000686C4C00656667454647003031323334F3
:104FA0003536373839414243444546003031323393
:104FB0003435363738396162636465660000000055
:104FC00000000000000000000000000000000000E1
:104FD00000000000000000000000000000000000D1
:104FE00000000000000000000000000000000000C1
:104FF00000000000000000000000000000000000B1
:1050000000000000000000000000000000000000A0
:105010000000000000000000000000000000000090
:04502000550100082E
:04502400310100084E
:1050280030754C1D010100000C000020000000003C
:10503800E04F000800500008C04F000800000000C2
:105048000000000000000000000000000000000058
:105058000000000000000000000000000000000048
:105068000000000000000000000000000000000038
:105078000000000000000000000000000000000028
:0C5088000000000000000000000000001C
:04000005080024517A
:00000001FF
